:020000040000FA
:060000009FEF04F0120066
:020006001200E6
:08000800F2A402D052EF02F055
:080010001200D08EF28E1200E6
:0800180004004A000000480149
:10002000000001000000D50900003E0100000900A9
:100030000000C30900002201000012000000A10915
:0A0040000000000100002200000093
:01004A0000B5
:10005000D9CFE6FFE1CFD9FF030EE126300EF36ED4
:10006000010EF3CFDBFF750EF36E020EF3CFDBFF55
:10007000010EDF6EDF0425E105DA00000000839247
:100080008384000000008386000000008350800B02
:1000900001E0010EDF6E83968386000000008396E8
:1000A000010EDB06020E01E2DB06D950010FE96EFC
:1000B000DACFEAFFEE50ED1003E1ECD9FF0E04D0E9
:1000C000D9D7E8D9000E00D0026E030EE15C02E23F
:1000D000E16AE552E16E0250E552E7CFD9FF120026
:1000E000D9CFE6FFE1CFD9FF839283940000FE0EC3
:1000F000DB50F00B026E0F0E8C1402108C6E0000A1
:100100008386000000008396E552E7CFD9FF1200F6
:10011000D9CFE6FFE1CFD9FF9BDF83928394000024
:10012000FE0EDB50F00B026E0F0E8C1402108C6E64
:1001300000008386000000008396FE0EDB38F00B83
:10014000F00B026E0F0E8C1402108C6E0000838672
:10015000000000008396E552E7CFD9FF1200D9CF07
:10016000E6FFE1CFD9FF74DF838283940000FE0EA7
:10017000DB50F00B026E0F0E8C1402108C6E000020
:100180008386000000008396FE0EDB38F00BF00B38
:10019000026E0F0E8C1402108C6E0000838600001D
:1001A00000008396E552E7CFD9FF1200D9CFE6FFD2
:1001B000E1CFD9FF0B0EE1266DD9280EF36E010EAB
:1001C000F3CFDBFF020EDB6A010EDBCF02F0DB06B2
:1001D000020EDBCF03F001E2DB060250031006E063
:1001E000080EE66E7FEC04F0E552EED7300EE66EB8
:1001F00077DFE5520A0EF36E030EF3CFDBFF040E3A
:10020000DB6A030EDBCF02F0DB06040EDBCF03F06C
:1002100001E2DB060250031006E0080EE66E7FECFA
:1002200004F0E552EED7300EE66E5ADFE5520A0EC4
:10023000F36E050EF3CFDBFF060EDB6A050EDBCF98
:1002400002F0DB06060EDBCF03F001E2DB06025014
:10025000031006E0080EE66E7FEC04F0E552EED7E0
:10026000300EE66E3DDFE5520A0EF36E070EF3CF59
:10027000DBFF080EDB6A070EDBCF02F0DB06080EA1
:10028000DBCF03F001E2DB060250031006E0080EAC
:10029000E66E7FEC04F0E552EED7200EE66E20DF2E
:1002A000E5520A0EF36E090EF3CFDBFF0A0EDB6A8E
:1002B000090EDBCF02F0DB060A0EDBCF03F001E212
:1002C000DB060250031006E0080EE66E7FEC04F039
:1002D000E552EED7280EE66E1BDFE552B9DEDF6E83
:1002E000DF5010E10F0EE66E13DFE552010EE66EF1
:1002F0000FDFE552040EE66E0BDFE552060EE66EEA
:1003000007DFE5520B0EE15C03E200D0E16AE55243
:10031000E16EE552E7CFD9FF1200D9CFE6FFE1CF7A
:10032000D9FFFE0EDBCF01F1E552E7CFD9FF120076
:10033000010EE66EEDDEE5520101006B1200D9CF31
:10034000E6FFE1CFD9FFE652FE0EDB500101015D71
:1003500023E1005101E137D0100E005D0EE1800E67
:10036000E66ED6DEE552DF6A100EDF5C06E2140EA2
:10037000E66ECEDEE552DF2AF7D7100EE66EC8DE57
:10038000E552200EE66EEBDEE552100EE66EC0DEA4
:10039000E5520101000717D0100E005D05E1C00E07
:1003A000E66EB6DEE55208D0200E005D05E3006B78
:1003B000020EE66EADDEE552FE0EDBCFE6FFCFDECF
:1003C000E5520101002BE552E552E7CFD9FF1200BB
:1003D000EDDE010EE66E9CDEE5520101006B1200BF
:1003E000D9CFE6FFE1CFD9FFE652010EE66E90DEEF
:1003F000E552DF6A100EDF5C1CE2FD0EDBCFE9FF89
:10040000FE0EDBCFEAFFEF50E66EDF50EA6A020F26
:10041000E96E010EEA22E552E750EF6EFD0EDBCFEA
:10042000E9FFDB2AFE0EDBCFEAFF01E3DB2ADF2A4E
:10043000E1D7C00EE66E6CDEE552DF6A100EDF5CBF
:100440001CE2FD0EDBCFE9FFFE0EDBCFEAFFEF5033
:10045000E66EDF50EA6A020FE96E010EEA22E5520B
:10046000E750EF6EFD0EDBCFE9FFDB2AFE0EDBCFA0
:10047000EAFF01E3DB2ADF2AE1D7E552E552E7CFC5
:10048000D9FF1200958E958C958A958895969594AE
:1004900095921200959E959C959A9598959695940F
:0404A000959212001F
:0C04A400DACFE4FFE2CFDAFFE9CFE4FF9B
:1004B000EACFE4FFF6CFE4FFF7CFE4FFF5CFE4FFA8
:1004C000F3CFE4FFF4CFE4FFFACFE4FF00EE00F057
:1004D000020EE80403E3EECFE4FFFBD700EE02F0E8
:1004E000020EE80403E3EECFE4FFFBD7E652F294FA
:1004F00001012A2B000E2B232451251107E005D0E2
:1005000025C1FAFF01012451F96EFADF0101700ED5
:10051000325D170E335903E2322B000E3323700E77
:10052000305D170E315903E2302B000E312322C10A
:10053000E6FF23C1E6FF47EC04F0E552E552E55241
:1005400000EE03F0020EE80403E3E5CFEDFFFBD776
:1005500000EE01F0020EE80403E3E5CFEDFFFBD768
:10056000E5CFFAFFE5CFF4FFE5CFF3FFE5CFF5FFE9
:10057000E5CFF7FFE5CFF6FFE5CFEAFFE5CFE9FFEF
:10058000E5CFDAFF1100DACFE4FFE2CFDAFFE9CFFF
:10059000E4FFEACFE4FFF6CFE4FFF7CFE4FFF5CFC7
:1005A000E4FFF3CFE4FFF4CFE4FFFACFE4FF00EE83
:1005B00000F0020EE80403E3EECFE4FFFBD700EE09
:1005C00002F0020EE80403E3EECFE4FFFBD7E652AD
:1005D0009E9026C1E6FF27C1E6FF2BEC04F0E55212
:1005E000E55201012851291107E005D029C1FAFF80
:1005F00001012851F96EFADFE55200EE03F0020E18
:10060000E80403E3E5CFEDFFFBD700EE01F0020EB7
:10061000E80403E3E5CFEDFFFBD7E5CFFAFFE5CF35
:10062000F4FFE5CFF3FFE5CFF5FFE5CFF7FFE5CF2B
:10063000F6FFE5CFEAFFE5CFE9FFE5CFDAFF1100EE
:10064000D9CFE6FFE1CFD9FF9F0EE66E63EC04F051
:10065000E552FD0EDBCF22F1FE0EDBCF23F1FB0EC8
:10066000DBCF24F1FC0EDBCF25F1FD0EDBCFE6FF67
:10067000FE0EDBCFE6FF47EC04F0E552E552E55213
:10068000E7CFD9FF1200D9CFE6FFE1CFD9FFC50EE2
:10069000E66E0AEC04F0E552FD0EDBCFE6FFFE0E3F
:1006A000DBCFE6FF2BEC04F0E552E5529F80FD0E18
:1006B000DBCF26F1FE0EDBCF27F1FB0EDBCF28F1DF
:0E06C000FC0EDBCF29F1E552E7CFD9FF120087
:0206CE00D9CF82
:1006D000E6FFE1CFD9FF030EE126ADEC04F0E8EC34
:1006E00001F0000EE66EE66ADF0EE66EB10EE66E13
:1006F00020EC03F0E552E552E552E552DF6A1A0EAE
:10070000DF5C21E2410EDF24E66E9FEC01F0E55252
:10071000C80EF36E010EF3CFDBFF020EDB6A010E93
:10072000DBCF02F0DB06020EDBCF03F001E2DB06DB
:100730000250031006E0080EE66E7FEC04F0E5526E
:10074000EED7DF2ADCD709EC00F00101C80E2A5DE4
:10075000000E2B5905E3BEEC04F001012A6B2B6B54
:10076000F4D7030EE15C02E2E16AE552E16EE55284
:06077000E7CFD9FF1200E3
:0A077600180EF66E000EF76E000E6E
:10078000F86E01010900F550396F0900F5503A6F14
:1007900003E1396701D03DD00900F550346F0900FD
:1007A000F550356F0900F550366F09000900F55016
:1007B000E96E0900F550EA6E090009000900F550DC
:1007C000376F0900F550386F09000900F6CF3BF18B
:1007D000F7CF3CF1F8CF3DF134C1F6FF35C1F7FF5B
:1007E00036C1F8FF0101375302E1385307E0090031
:1007F000F550EE6E3707F8E23807F9D73BC1F6FF40
:100800003CC1F7FF3DC1F8FF01013907000E3A5B1B
:04081000BFD712003C
:0C081400D9CFE6FFDACFE6FFE1CFD9FF35
:10082000E2CFDAFFFD0EDB507E0BCD6EFD0EDBACB2
:1008300002D0CD8E01D0CD9ECF6ACE6A9E90DBAE27
:1008400002D09D8001D09D90CD80E552E5CFDAFFAA
:06085000E7CFD9FF120002
:0A085600D9CFE6FFDACFE6FFE1CFCD
:10086000D9FFE2CFDAFFE652E652FC0EDBCFDEFF25
:10087000DBCFDDFF010EDB50CF6EDF50CE6EE552D9
:0E088000E552E552E5CFDAFFE7CFD9FF1200CF
:02088E00D9CFC0
:10089000E6FFDACFE6FFE1CFD9FFE2CFDAFFE6529B
:1008A000E652FC0EDBCFDEFFDBCFDDFF010EDB50BF
:1008B000D76EDF50D66EE552E552E552E5CFDAFF4E
:0608C000E7CFD9FF120092
:0A08C600D9CFE6FFDACFE6FFE1CF5D
:1008D000D9FFE2CFDAFFFD0EDB507F0BD56ED76A72
:1008E000D66AF294FD0EDBAE02D0F28A01D0F29A03
:0E08F000D58EE552E5CFDAFFE7CFD9FF120033
:0208FE00FF0EEB
:10090000E350046E480E01D04C0EE76EE72EFED782
:0E091000E76AE72EFED7042EF7D7000012008C
:02091E00000EC9
:10092000F36E00EE00F0060E01D81200EA6002D06D
:0E093000EE6AFCD7F350E9601200EE6AFCD7C5
:02093E0010EEB9
:1009400080F020EE80F0F86A019CBBEC03F003EC31
:0A09500000F067EC03F0FBD7120083
:06095A000F0EC16E700ECD
:10096000D3129B8C9690959E959C959A959895966A
:060970009594959212001F
:0A0976000101486B12000101480561
:1009800003E1486B849003D0010E486F848012000D
:100990002020202020202020202020202020202057
:0109A0000056
:0F09A10000000000000000000000000000000047
:1009B0000000000000000000000000000000000037
:0309C00000000034
:0D09C3000000000000000000000000000027
:0509D000007017701714
:0909D5004944454F4E49435300CB
:020000040030CA
:0100010008F6
:010002001BE2
:0100030012EA
:010005008179
:010006008178
:010008000FE8
:01000900C036
:01000A000FE6
:01000B00E014
:01000C000FE4
:01000D0040B2
:00000001FF
