:020000040000FA
:06000000CFEF27F0120013
:08000800F2A402D056EF24F02F
:100010009EAA02D025EF21F01200D08EF28E12009F
:06002A000C0092540000DE
:10003000BD0400001E00000090540000F104000008
:100040000200000001500000F60400000100000062
:100050008D540000EE0400000300000084540000F2
:10006000E5040000090000000C5400000005000039
:1000700078000000EA5300008A040000220000001B
:10008000CC530000E20500001E000000FF510000FC
:1000900000010000CD01000000510000CD02000071
:1000A000FF00000096500000780500006A00000084
:0C00B0000C500000000400008A0000005A
:0400BC00D9CFE6FFB3
:1000C000E1CFD9FF0A0EE126050EDB6A060EDB6AD8
:1000D000070EDB6A080EDB6A090EDB6A0101036B9F
:1000E000046B056B066B0101076B086B096B0A6BF0
:1000F0000201D16BDE6ADD6ADECF14F0DDCF15F0D0
:100100000F0E145C000E155801E3AED0DECF14F0D4
:10011000DDCF15F01D0E1502F3CF15F01D0E1402E4
:10012000F3CF14F0F4501526170E1426010E1522E5
:10013000030E14C0DBFF040E15C0DBFF020EDB6AEA
:100140001D0EF36E020EDBCFF4FFF350F45C35E2CC
:1001500001EC28F00400020EDB50166E176A1D0E2B
:10016000086E096ADECF0DF0DDCF0EF059EC27F0F6
:1001700006501624146E07501720156E14C0E6FFA3
:1001800015C0E6FF18EC27F0E552E552E66E020EC8
:10019000DB50E76E030EDBCFE9FF040EDBCFEAFF97
:1001A000E750E926000EEA22E552E750EF6E01EC37
:1001B00028F00400020EDB2AC3D7DECFE9FFDDCF33
:1001C000EAFF1D0EEA02F3CFEAFF1D0EE902F3CFAC
:1001D000E9FFF450EA26170EE926010EEA221B0E6B
:1001E000E926000EEA22EF0402E10101012BDECF35
:1001F000E9FFDDCFEAFF1D0EEA02F3CFEAFF1D0E95
:10020000E902F3CFE9FFF450EA26170EE926010EC2
:10021000EA221B0EE926000EEA22EF50030802E153
:100220000101022BDECFE9FFDDCFEAFF1D0EEA025E
:10023000F3CFEAFF1D0EE902F3CFE9FFF450EA26FF
:10024000170EE926010EEA221C0EE926000EEA220C
:10025000EF0405E1010EF36E050EF3CFDBFFDF2A9D
:10026000010E01E3DB2A48D701010251000806E232
:10027000010EF36E080EF3CFDBFF0FD00101015129
:10028000000806E2010EF36E070EF3CFDBFF05D088
:10029000010EF36E060EF3CFDBFF050EDB0405E166
:1002A000010EF36E090EF3CFDBFF0201060ECC6FD9
:1002B00001EC28F00400E66AE66AE66AE66A54ECB5
:1002C00011F0E552E552E552E55231D80201010E36
:1002D000CA6F090EDBCFE6FF080EDBCFE6FF070E85
:1002E000DBCFE6FF060EDBCFE6FF54EC11F0E55264
:1002F000E552E552E552BC0EE66E270EE66EDD0EC7
:10030000E66ECC0EE66EBB0EE66EAA0EE66ECBEC8B
:100310001CF0146E060EE15E14500A0EE15C02E25F
:10032000E16AE552E16EE552E7CFD9FF1200D9CF7D
:10033000E6FFE1CFD9FF050EE126DF6A010EDB6A99
:10034000020EDB6A030EDB6A01010251000808E2BB
:10035000030E006F010EF36E020EF3CFDBFF0DD024
:100360000151000805E2010E006FDE52DD6E05D07E
:10037000006B010EDF6E030EDB6A040EDB6A0F0EEC
:10038000F36E040EDBCFF4FFF350F45C1AE2040EBC
:10039000DB501D0DF3CFE9FFF4CFEAFF170EE9267E
:1003A000010EEA221C0EE926000EEA22EF0406E105
:1003B000010EF36E030EF3CFDBFF03D0040EDB2A36
:1003C000DED7030EDBCFE6FF020EDBCFE6FF010E2A
:1003D000DBCFE6FFDFCFE6FF54EC11F0E552E5524C
:1003E000E552E552050EE15C02E2E16AE552E16E9A
:1003F000E552E7CFD9FF1200D9CFE6FFE1CFD9FF11
:10040000050EE126DF6A010EDB6A020EDB6A030ECF
:10041000DB6A01010251000808E2030E006F010EC1
:10042000F36E020EF3CFDBFF0DD00151000805E2A1
:10043000010E006FDE52DD6E05D0006B010EDF6E27
:10044000030EDB6A030EDBCFE6FF020EDBCFE6FF17
:10045000010EDBCFE6FFDFCFE6FF54EC11F0E552F3
:10046000E552E552E5520201010ECA6F146E050E07
:10047000E15C03E200D0E16AE552E16E1450E5521E
:10048000E7CFD9FF1200D9CFE6FFE1CFD9FF050EA4
:10049000E126DF6A010EDB6A020EDB6A030EDB6A0D
:1004A000FD0EDBCFE6FFFE0EDBCFE6FF120EE66EA3
:1004B000010EE66EEEEC23F0E552E552E552E55210
:1004C000000902E0000E1FD0030EDBCFE6FF020E94
:1004D000DBCFE6FF010EDBCFE6FFDFCFE6FF54EC1C
:1004E00011F0E552E552E552E552FB0EDBCFE6FF97
:1004F000FC0EDBCFE6FF04EC11F0E552E552020101
:10050000CA6B010E00D0146E050EE15C02E2E16AD6
:10051000E552E16E1450E552E7CFD9FF1200D9CF72
:10052000E6FFE1CFD9FF090EE126010EF36E080EBA
:10053000F3CFDBFFB6EC25F006C007F107C008F1EA
:1005400008C009F109C00AF1030EE96E010EEA6E56
:10055000EE50010107190CE1EE500101081908E104
:10056000EE500101091904E1EE5001010A1900E100
:1005700001E1BBD007C103F108C104F109C105F1D4
:100580000AC106F1DF6A0F0EDF5C01E3A4D0DF5081
:100590001D0DF3CFE9FFF4CFEAFF170EE926010E98
:1005A000EA221B0EE926000EEA22EF0401E091D0B8
:1005B000DF501D0DF3CFE9FFF4CFEAFF170EE92658
:1005C000010EEA22190EE926000EEA22EE06000EBE
:1005D000ED5ADF501D0DF3CFE9FFF4CFEAFF170E00
:1005E000E926010EEA22190EE926000EEA22E9CFD9
:1005F00014F0EACF15F0010E14C0DBFF020E15C097
:10060000DBFF010EDBCFE9FF020EDBCFEAFF030EBB
:10061000EFCFDBFF1D0EDF02F350190F146E040E37
:1006200014C0DBFF050EDB6A060EDB6A070EDB6A11
:10063000010EDBCFE9FF020EDBCFEAFFEF50E66EE3
:100640001D0EDF02F350190FE66EE66A7AEC26F013
:10065000E552E552E55201EC28F00400010EE76E88
:10066000010EDBCFE9FF020EDBCFEAFFE750E92600
:10067000000EEA22030EEFCFDBFF1D0EDF02F35068
:10068000190F010F146E040E14C0DBFF050EDB6A98
:10069000060EDB6A070EDB6A010EE76E010EDBCF8A
:1006A000E9FF020EDBCFEAFFE750E926000EEA225F
:1006B000EF50E66E1D0EDF02F350190F010FE66ECC
:1006C000E66A7AEC26F0E552E552E55201EC28F0B4
:1006D0000400DF2A58D726EC12F0010806E18A86CA
:1006E0000101015102E18A988A9A090EE15C02E255
:1006F000E16AE552E16EE552E7CFD9FF1200D9CFAA
:10070000E6FFE1CFD9FF040EE126FD0EDBCFE9FFC6
:10071000FE0EDBCFEAFF200EE926000EEA22EF28CC
:10072000DF6E010EDB6A020EDB6A0F0EDF5C01E397
:10073000DF6AFD0EDBCFE9FFFE0EDBCFEAFF200E06
:10074000E926000EEA22EF68030EDB6A0F0EF36E55
:10075000030EDBCFF4FFF350F45C01E3CBD30F0EB9
:10076000146E14C00EF0DFCF09F0DDEC27F0055059
:10077000DF6EDF501D0DF3CFE9FFF4CFEAFF170E58
:10078000E926010EEA221B0EE926000EEA22EF50AE
:1007900010E0DF501D0DF3CFE9FFF4CFEAFF170E95
:1007A000E926010EEA221C0EE926000EEA22EF508D
:1007B00004E1030EDB2ADF2AC9D7FD0EDBCFE9FFF8
:1007C000FE0EDBCFEAFFE9CF14F0EACF15F0010E01
:1007D000DBCFF3FFDB2AF3500F011424E96E000E88
:1007E0001520EA6E530EEF6EFD0EDBCFE9FFFE0E15
:1007F000DBCFEAFFE9CF14F0EACF15F0010EDBCF33
:10080000F3FFDB2AF3501424E96E000E1520EA6E84
:10081000540EEF6EFD0EDBCFE9FFFE0EDBCFEAFFDD
:10082000E9CF14F0EACF15F0010EDBCFF3FFDB2A9E
:10083000F3501424E96E000E1520EA6E4E0EEF6E92
:10084000FD0EDBCFE9FFFE0EDBCFEAFFE9CF14F0B0
:10085000EACF15F0010EDBCFF3FFDB2AF3501424AF
:10086000E96E000E1520EA6E3A0EEF6EDF501D0D98
:10087000F3CFE9FFF4CFEAFF170EE926010EEA22D3
:10088000E9CF16F0EACF17F0020EDBCFF3FFDB2A39
:10089000F3501624E96E000E1720EA6EEF50E66E54
:1008A000FD0EDBCFE9FFFE0EDBCFEAFFE9CF14F050
:1008B000EACF15F0010EDBCFF3FFDB2AF35014244F
:1008C000E96E000E1520EA6EE552E750EF6EDF503C
:1008D0001D0DF3CFE9FFF4CFEAFF170EE926010E55
:1008E000EA22E9CF16F0EACF17F0020EDBCFF3FFD2
:1008F000DB2AF3501624E96E000E1720EA6EEF5043
:10090000E66EFD0EDBCFE9FFFE0EDBCFEAFFE9CF9F
:1009100014F0EACF15F0010EDBCFF3FFDB2AF35022
:100920001424E96E000E1520EA6EE552E750EF6ED2
:10093000FD0EDBCFE9FFFE0EDBCFEAFFE9CF14F0BF
:10094000EACF15F0010EDBCFF3FFDB2AF3501424BE
:10095000E96E000E1520EA6E3B0EEF6EDF501D0DA6
:10096000F3CFE9FFF4CFEAFF170EE926010EEA22E2
:10097000E9CF14F0EACF15F0020EDB501424E96E33
:10098000000E1520EA6EEF50340A01E1AED1070ADD
:1009900001E194D1010A01E1E0D0030A01E040D273
:1009A000FD0EDBCFE9FFFE0EDBCFEAFFE9CF14F04F
:1009B000EACF15F0010EDBCFF3FFDB2AF35014244E
:1009C000E96E000E1520EA6E420EEF6EFD0EDBCFD3
:1009D000E9FFFE0EDBCFEAFFE9CF14F0EACF15F016
:1009E000010EDBCFF3FFDB2AF3501424E96E000E77
:1009F0001520EA6E520EEF6EFD0EDBCFE9FFFE0E04
:100A0000DBCFEAFFE9CF14F0EACF15F0010EDBCF20
:100A1000F3FFDB2AF3501424E96E000E1520EA6E72
:100A2000450EEF6EFD0EDBCFE9FFFE0EDBCFEAFFDA
:100A3000E9CF14F0EACF15F0010EDBCFF3FFDB2A8C
:100A4000F3501424E96E000E1520EA6E410EEF6E8D
:100A5000FD0EDBCFE9FFFE0EDBCFEAFFE9CF14F09E
:100A6000EACF15F0010EDBCFF3FFDB2AF35014249D
:100A7000E96E000E1520EA6E4B0EEF6EFD0EDBCF19
:100A8000E9FFFE0EDBCFEAFFE9CF14F0EACF15F065
:100A9000010EDBCFF3FFDB2AF3501424E96E000EC6
:100AA0001520EA6E440EEF6EFD0EDBCFE9FFFE0E61
:100AB000DBCFEAFFE9CF14F0EACF15F0010EDBCF70
:100AC000F3FFDB2AF3501424E96E000E1520EA6EC2
:100AD0004F0EEF6EFD0EDBCFE9FFFE0EDBCFEAFF20
:100AE000E9CF14F0EACF15F0010EDBCFF3FFDB2ADC
:100AF000F3501424E96E000E1520EA6E570EEF6EC7
:100B0000FD0EDBCFE9FFFE0EDBCFEAFFE9CF14F0ED
:100B1000EACF15F0010EDBCFF3FFDB2AF3501424EC
:100B2000E96E000E1520EA6E4E0EEF6EFD0EDBCF65
:100B3000E9FFFE0EDBCFEAFFE9CF14F0EACF15F0B4
:100B4000010EDBCFF3FFDB2AF3501424E96E000E15
:100B50001520EA6E3B0EEF6E63D1FD0EDBCFE9FF91
:100B6000FE0EDBCFEAFFE9CF14F0EACF15F0010E5D
:100B7000DBCFF3FFDB2AF3501424E96E000E1520BF
:100B8000EA6E510EEF6EFD0EDBCFE9FFFE0EDBCFFE
:100B9000EAFFE9CF14F0EACF15F0010EDBCFF3FF47
:100BA000DB2AF3501424E96E000E1520EA6E550E70
:100BB000EF6EFD0EDBCFE9FFFE0EDBCFEAFFE9CFE4
:100BC00014F0EACF15F0010EDBCFF3FFDB2AF35070
:100BD0001424E96E000E1520EA6E410EEF6EFD0E34
:100BE000DBCFE9FFFE0EDBCFEAFFE9CF14F0EACF5F
:100BF00015F0010EDBCFF3FFDB2AF3501424E96E6E
:100C0000000E1520EA6E4C0EEF6EFD0EDBCFE9FFF5
:100C1000FE0EDBCFEAFFE9CF14F0EACF15F0010EAC
:100C2000DBCFF3FFDB2AF3501424E96E000E15200E
:100C3000EA6E490EEF6EFD0EDBCFE9FFFE0EDBCF55
:100C4000EAFFE9CF14F0EACF15F0010EDBCFF3FF96
:100C5000DB2AF3501424E96E000E1520EA6E540EC0
:100C6000EF6EFD0EDBCFE9FFFE0EDBCFEAFFE9CF33
:100C700014F0EACF15F0010EDBCFF3FFDB2AF350BF
:100C80001424E96E000E1520EA6E590EEF6EFD0E6B
:100C9000DBCFE9FFFE0EDBCFEAFFE9CF14F0EACFAE
:100CA00015F0010EDBCFF3FFDB2AF3501424E96EBD
:100CB000000E1520EA6E3B0EEF6EB2D0FD0EDBCFBC
:100CC000E9FFFE0EDBCFEAFFE9CF14F0EACF15F023
:100CD000010EDBCFF3FFDB2AF3501424E96E000E84
:100CE0001520EA6E230EEF6E9BD0FD0EDBCFE9FFE1
:100CF000FE0EDBCFEAFFE9CF14F0EACF15F0010ECC
:100D0000DBCFF3FFDB2AF3501424E96E000E15202D
:100D1000EA6E4F0EEF6EFD0EDBCFE9FFFE0EDBCF6E
:100D2000EAFFE9CF14F0EACF15F0010EDBCFF3FFB5
:100D3000DB2AF3501424E96E000E1520EA6E540EDF
:100D4000EF6EFD0EDBCFE9FFFE0EDBCFEAFFE9CF52
:100D500014F0EACF15F0010EDBCFF3FFDB2AF350DE
:100D60001424E96E000E1520EA6E480EEF6EFD0E9B
:100D7000DBCFE9FFFE0EDBCFEAFFE9CF14F0EACFCD
:100D800015F0010EDBCFF3FFDB2AF3501424E96EDC
:100D9000000E1520EA6E450EEF6EFD0EDBCFE9FF6B
:100DA000FE0EDBCFEAFFE9CF14F0EACF15F0010E1B
:100DB000DBCFF3FFDB2AF3501424E96E000E15207D
:100DC000EA6E520EEF6EFD0EDBCFE9FFFE0EDBCFBB
:100DD000EAFFE9CF14F0EACF15F0010EDBCFF3FF05
:100DE000DB2AF3501424E96E000E1520EA6E530E30
:100DF000EF6EFD0EDBCFE9FFFE0EDBCFEAFFE9CFA2
:100E000014F0EACF15F0010EDBCFF3FFDB2AF3502D
:100E10001424E96E000E1520EA6E3B0EEF6E00D032
:100E2000020EDB2ADF501D0DF3CFE9FFF4CFEAFFFE
:100E3000170EE926010EEA22E9CF14F0EACF15F0E9
:100E4000020EDB501424E96E000E1520EA6EEF50FE
:100E500030E0DF501D0DF3CFE9FFF4CFEAFF170EAE
:100E6000E926010EEA22E9CF16F0EACF17F0020ECA
:100E7000DB501624E96E000E1720EA6EEF50E66E86
:100E8000FD0EDBCFE9FFFE0EDBCFEAFFE9CF14F06A
:100E9000EACF15F0010EDB501424E96E000E152088
:100EA000EA6EE552E750EF6E010EDB2A020EDB2AF6
:100EB000B9D7FD0EDBCFE9FFFE0EDBCFEAFFE9CFAE
:100EC00014F0EACF15F0010EDB501424E96E000E89
:100ED0001520EA6EEF6ADFCFCBF2FD0EDBCFE9FF24
:100EE000FE0EDBCFEAFF200EE926000EEA22CBC27F
:100EF000EFFF00D0040EE15C02E2E16AE552E16E30
:100F0000E552E7CFD9FF1200D9CFE6FFE1CFD9FFF5
:100F1000040EE126FD0EDBCFE9FFFE0EDBCFEAFF7C
:100F2000200EE926000EEA22EF28DF6E010EDB6AB2
:100F3000020EDB6A0F0EDF5C01E3DF6AFD0EDBCF22
:100F4000E9FFFE0EDBCFEAFF200EE926000EEA22C3
:100F5000EF68030EDB6A0F0EF36E030EDBCFF4FFB8
:100F6000F350F45C01E3CBD30F0E146E14C00EF0FB
:100F7000DFCF09F0DDEC27F00550DF6EDF501D0DEF
:100F8000F3CFE9FFF4CFEAFF170EE926010EEA22BC
:100F90001B0EE926000EEA22EF5010E0DF501D0D77
:100FA000F3CFE9FFF4CFEAFF170EE926010EEA229C
:100FB0001C0EE926000EEA22EF0404E1030EDB2AF0
:100FC000DF2AC9D7FD0EDBCFE9FFFE0EDBCFEAFF3C
:100FD000E9CF14F0EACF15F0010EDBCFF3FFDB2AE7
:100FE000F3500F011424E96E000E1520EA6E530E23
:100FF000EF6EFD0EDBCFE9FFFE0EDBCFEAFFE9CFA0
:1010000014F0EACF15F0010EDBCFF3FFDB2AF3502B
:101010001424E96E000E1520EA6E540EEF6EFD0EDC
:10102000DBCFE9FFFE0EDBCFEAFFE9CF14F0EACF1A
:1010300015F0010EDBCFF3FFDB2AF3501424E96E29
:10104000000E1520EA6E4E0EEF6EFD0EDBCFE9FFAF
:10105000FE0EDBCFEAFFE9CF14F0EACF15F0010E68
:10106000DBCFF3FFDB2AF3501424E96E000E1520CA
:10107000EA6E3A0EEF6EDF501D0DF3CFE9FFF4CFAD
:10108000EAFF170EE926010EEA22E9CF16F0EACFB1
:1010900017F0020EDBCFF3FFDB2AF3501624E96EC4
:1010A000000E1720EA6EEF50E66EFD0EDBCFE9FF73
:1010B000FE0EDBCFEAFFE9CF14F0EACF15F0010E08
:1010C000DBCFF3FFDB2AF3501424E96E000E15206A
:1010D000EA6EE552E750EF6EDF501D0DF3CFE9FFEA
:1010E000F4CFEAFF170EE926010EEA22E9CF16F047
:1010F000EACF17F0020EDBCFF3FFDB2AF350162402
:10110000E96E000E1720EA6EEF50E66EFD0EDBCFA3
:10111000E9FFFE0EDBCFEAFFE9CF14F0EACF15F0CE
:10112000010EDBCFF3FFDB2AF3501424E96E000E2F
:101130001520EA6EE552E750EF6EFD0EDBCFE9FFBA
:10114000FE0EDBCFEAFFE9CF14F0EACF15F0010E77
:10115000DBCFF3FFDB2AF3501424E96E000E1520D9
:10116000EA6E3B0EEF6EDF501D0DF3CFE9FFF4CFBB
:10117000EAFF170EE926010EEA22E9CF14F0EACFC2
:1011800015F0020EDB501424E96E000E1520EA6EF5
:10119000EF50340A01E1AED1070A01E194D1010A0E
:1011A00001E1E0D0030A01E040D2FD0EDBCFE9FF10
:1011B000FE0EDBCFEAFFE9CF14F0EACF15F0010E07
:1011C000DBCFF3FFDB2AF3501424E96E000E152069
:1011D000EA6E420EEF6EFD0EDBCFE9FFFE0EDBCFB7
:1011E000EAFFE9CF14F0EACF15F0010EDBCFF3FFF1
:1011F000DB2AF3501424E96E000E1520EA6E520E1D
:10120000EF6EFD0EDBCFE9FFFE0EDBCFEAFFE9CF8D
:1012100014F0EACF15F0010EDBCFF3FFDB2AF35019
:101220001424E96E000E1520EA6E450EEF6EFD0ED9
:10123000DBCFE9FFFE0EDBCFEAFFE9CF14F0EACF08
:1012400015F0010EDBCFF3FFDB2AF3501424E96E17
:10125000000E1520EA6E410EEF6EFD0EDBCFE9FFAA
:10126000FE0EDBCFEAFFE9CF14F0EACF15F0010E56
:10127000DBCFF3FFDB2AF3501424E96E000E1520B8
:10128000EA6E4B0EEF6EFD0EDBCFE9FFFE0EDBCFFD
:10129000EAFFE9CF14F0EACF15F0010EDBCFF3FF40
:1012A000DB2AF3501424E96E000E1520EA6E440E7A
:1012B000EF6EFD0EDBCFE9FFFE0EDBCFEAFFE9CFDD
:1012C00014F0EACF15F0010EDBCFF3FFDB2AF35069
:1012D0001424E96E000E1520EA6E4F0EEF6EFD0E1F
:1012E000DBCFE9FFFE0EDBCFEAFFE9CF14F0EACF58
:1012F00015F0010EDBCFF3FFDB2AF3501424E96E67
:10130000000E1520EA6E570EEF6EFD0EDBCFE9FFE3
:10131000FE0EDBCFEAFFE9CF14F0EACF15F0010EA5
:10132000DBCFF3FFDB2AF3501424E96E000E152007
:10133000EA6E4E0EEF6EFD0EDBCFE9FFFE0EDBCF49
:10134000EAFFE9CF14F0EACF15F0010EDBCFF3FF8F
:10135000DB2AF3501424E96E000E1520EA6E3B0ED2
:10136000EF6E63D1FD0EDBCFE9FFFE0EDBCFEAFFB0
:10137000E9CF14F0EACF15F0010EDBCFF3FFDB2A43
:10138000F3501424E96E000E1520EA6E510EEF6E34
:10139000FD0EDBCFE9FFFE0EDBCFEAFFE9CF14F055
:1013A000EACF15F0010EDBCFF3FFDB2AF350142454
:1013B000E96E000E1520EA6E550EEF6EFD0EDBCFC6
:1013C000E9FFFE0EDBCFEAFFE9CF14F0EACF15F01C
:1013D000010EDBCFF3FFDB2AF3501424E96E000E7D
:1013E0001520EA6E410EEF6EFD0EDBCFE9FFFE0E1B
:1013F000DBCFEAFFE9CF14F0EACF15F0010EDBCF27
:10140000F3FFDB2AF3501424E96E000E1520EA6E78
:101410004C0EEF6EFD0EDBCFE9FFFE0EDBCFEAFFD9
:10142000E9CF14F0EACF15F0010EDBCFF3FFDB2A92
:10143000F3501424E96E000E1520EA6E490EEF6E8B
:10144000FD0EDBCFE9FFFE0EDBCFEAFFE9CF14F0A4
:10145000EACF15F0010EDBCFF3FFDB2AF3501424A3
:10146000E96E000E1520EA6E540EEF6EFD0EDBCF16
:10147000E9FFFE0EDBCFEAFFE9CF14F0EACF15F06B
:10148000010EDBCFF3FFDB2AF3501424E96E000ECC
:101490001520EA6E590EEF6EFD0EDBCFE9FFFE0E52
:1014A000DBCFEAFFE9CF14F0EACF15F0010EDBCF76
:1014B000F3FFDB2AF3501424E96E000E1520EA6EC8
:1014C0003B0EEF6EB2D0FD0EDBCFE9FFFE0EDBCFA1
:1014D000EAFFE9CF14F0EACF15F0010EDBCFF3FFFE
:1014E000DB2AF3501424E96E000E1520EA6E230E59
:1014F000EF6E9BD0FD0EDBCFE9FFFE0EDBCFEAFFE8
:10150000E9CF14F0EACF15F0010EDBCFF3FFDB2AB1
:10151000F3501424E96E000E1520EA6E4F0EEF6EA4
:10152000FD0EDBCFE9FFFE0EDBCFEAFFE9CF14F0C3
:10153000EACF15F0010EDBCFF3FFDB2AF3501424C2
:10154000E96E000E1520EA6E540EEF6EFD0EDBCF35
:10155000E9FFFE0EDBCFEAFFE9CF14F0EACF15F08A
:10156000010EDBCFF3FFDB2AF3501424E96E000EEB
:101570001520EA6E480EEF6EFD0EDBCFE9FFFE0E82
:10158000DBCFEAFFE9CF14F0EACF15F0010EDBCF95
:10159000F3FFDB2AF3501424E96E000E1520EA6EE7
:1015A000450EEF6EFD0EDBCFE9FFFE0EDBCFEAFF4F
:1015B000E9CF14F0EACF15F0010EDBCFF3FFDB2A01
:1015C000F3501424E96E000E1520EA6E520EEF6EF1
:1015D000FD0EDBCFE9FFFE0EDBCFEAFFE9CF14F013
:1015E000EACF15F0010EDBCFF3FFDB2AF350142412
:1015F000E96E000E1520EA6E530EEF6EFD0EDBCF86
:10160000E9FFFE0EDBCFEAFFE9CF14F0EACF15F0D9
:10161000010EDBCFF3FFDB2AF3501424E96E000E3A
:101620001520EA6E3B0EEF6E00D0020EDB2ADF5073
:101630001D0DF3CFE9FFF4CFEAFF170EE926010EE7
:10164000EA22E9CF14F0EACF15F0020EDB501424A1
:10165000E96E000E1520EA6EEF5030E0DF501D0DF0
:10166000F3CFE9FFF4CFEAFF170EE926010EEA22D5
:10167000E9CF16F0EACF17F0020EDB501624E96E20
:10168000000E1720EA6EEF50E66EFD0EDBCFE9FF8D
:10169000FE0EDBCFEAFFE9CF14F0EACF15F0010E22
:1016A000DB501424E96E000E1520EA6EE552E75077
:1016B000EF6E010EDB2A020EDB2AB9D7FD0EDBCF5F
:1016C000E9FFFE0EDBCFEAFFE9CF14F0EACF15F019
:1016D000010EDB501424E96E000E1520EA6EEF6A4D
:1016E000DFCFCBF2FD0EDBCFE9FFFE0EDBCFEAFF53
:1016F000200EE926000EEA22CBC2EFFF00D0040E36
:10170000E15C02E2E16AE552E16EE552E7CFD9FF22
:101710001200D9CFE6FFE1CFD9FF070EE126FE0E7A
:10172000DB501D0DF3CFE9FFF4CFEAFF170EE926DA
:10173000010EEA221B0EE926000EEA22EF5033E0EA
:10174000FE0EDB501D0DF3CFE9FFF4CFEAFF170EBD
:10175000E926010EEA22E9CF14F0EACF15F014C011
:10176000E6FF15C0E6FF050EDBCFE6FF060EDBCF7A
:10177000E6FFEEEC23F0E552E552E552E5520009B2
:1017800012E1FE0EDB501D0DF3CFE9FFF4CFEAFFAF
:10179000170EE926010EEA221C0EE926000EEA22A7
:1017A000EF0401E17ED1FE0EDB501D0DF3CFE9FF0A
:1017B000F4CFEAFF170EE926010EEA22E9CF14F072
:1017C000EACF15F0050E14C0DBFF060E15C0DBFFD7
:1017D00001010051030A01E190D0020A01E048D161
:1017E000050EDBCFE6FF060EDBCFE6FF74EC11F053
:1017F000E552E552E76E020EE7CFDBFF020EDB504B
:10180000FF0801E179D0050EDBCFE6FF060EDBCF46
:10181000E6FF04EC11F0E552E552190EE66EE66AB9
:10182000E66A020EDB501D0DF3CFE9FFF4CFEAFFAD
:10183000170EE926010EEA22E9CF14F0EACF15F0DF
:1018400014C0E6FF15C0E6FFD4EC23F0166E050EBB
:10185000E15E16500400020EDB501D0DF3CF14F0B4
:10186000F4CF15F0170E1426010E1522030E14C026
:10187000DBFF040E15C0DBFF010EDB6A1D0EF36EED
:10188000010EDBCFF4FFF350F45C25E2010EDB50D8
:10189000E76E030EDBCFE9FF040EDBCFEAFFE75074
:1018A000E926000EEA22EF50E66E010EDBCFE6FFDE
:1018B000020EDB501D0DF350E552E724E66EE66A9A
:1018C0007AEC26F0E552E552E55201EC28F00400EE
:1018D000010EDB2AD3D7010101510DE10101006B9B
:1018E000E66AE66AE66A010EE66E54EC11F0E5522D
:1018F000E552E552E552D5D0BCD0050EDBCFE6FF70
:10190000060EDBCFE6FF74EC11F0E552E552E76E10
:10191000020EE7CFDBFF020EDB50FF0801E1A7D08C
:10192000050EDBCFE6FF060EDBCFE6FF04EC11F081
:10193000E552E552190EE66EE66AE66A020EDB50E3
:101940001D0DF3CFE9FFF4CFEAFF170EE926010ED4
:10195000EA22E9CF14F0EACF15F014C0E6FF15C073
:10196000E6FFD4EC23F0166E050EE15E165004007F
:10197000020EDB501D0DF3CF14F0F4CF15F0170E4F
:101980001426010E1522030E14C0DBFF040E15C031
:10199000DBFF010EDB6A1D0EF36E010EDBCFF4FFE1
:1019A000F350F45C25E2010EDB50E76E030EDBCF53
:1019B000E9FF040EDBCFEAFFE750E926000EEA223A
:1019C000EF50E66E010EDBCFE6FF020EDB501D0D81
:1019D000F350E552E724E66EE66A7AEC26F0E5522B
:1019E000E552E55201EC28F00400010EDB2AD3D7C2
:1019F0000101025120E1010101510EE10101006BE1
:101A0000E66AE66AE66A010EE66E54EC11F0E5520B
:101A1000E552E552E5520ED00101010E006FE66A73
:101A2000E66A010EE66EE66A54EC11F0E552E55204
:101A3000E552E5521BD0010101510CE1E66A010EAD
:101A4000E66EE66AE66A54EC11F0E552E552E552BC
:101A5000E5520CD0E66A010EE66E010EE66EE66A0D
:101A600054EC11F0E552E552E552E5521AD001D09E
:101A700000D0DF6A0F0EDF5C14E2DF501D0DF3CFE4
:101A8000E9FFF4CFEAFF170EE926010EEA221C0E49
:101A9000E926000EEA22EF0402E18C8002D0DF2A60
:101AA000E9D7070EE15C02E2E16AE552E16EE55238
:101AB000E7CFD9FF1200D9CFE6FFE1CFD9FF050E5E
:101AC000E126DF6A0F0EDF5C33E2DF501D0DF3CF3E
:101AD000E9FFF4CFEAFF170EE926010EEA221B0EFA
:101AE000E926000EEA22EF5021E0DF501D0DF3CF72
:101AF000E9FFF4CFEAFF170EE926010EEA22E9CF4B
:101B000014F0EACF15F014C0E6FF15C0E6FFFD0E95
:101B1000DBCFE6FFFE0EDBCFE6FFEEEC23F0E55277
:101B2000E552E552E552000901E1DFD0DF2ACAD7CC
:101B3000DF6A0F0EDF5C01E3D2D0DF501D0DF3CF63
:101B4000E9FFF4CFEAFF170EE926010EEA221B0E89
:101B5000E926000EEA22EF5001E0BFD0DF501D0D54
:101B6000F3CFE9FFF4CFEAFF170EE926010EEA22D0
:101B70001B0EE926000EEA22010EEF6E080EF66E2D
:101B8000500EF76E0900F5CF14F00800F5CF15F0F0
:101B9000DF501D0DF3CFE9FFF4CFEAFF170EE92662
:101BA000010EEA22190EE926000EEA2214C0EEFF09
:101BB00015C0EDFFDF501D0DF3CFE9FFF4CFEAFFB5
:101BC000170EE926010EEA221C0EE926000EEA2273
:101BD000010EEF6EFD0EDBCFE6FFFE0EDBCFE6FF64
:101BE000DF501D0DF3CFE9FFF4CFEAFF170EE92612
:101BF000010EEA22E9CF14F0EACF15F014C0E6FF97
:101C000015C0E6FF0EEC24F0E552E552E552E55230
:101C1000DF501D0DF3CF14F0F4CF15F0170E14267E
:101C2000010E1522030E14C0DBFF040E15C0DBFFEE
:101C3000010EDB6A1D0EF36E010EDBCFF4FFF350D5
:101C4000F45C24E2010EDB50E76E030EDBCFE9FF0C
:101C5000040EDBCFEAFFE750E926000EEA22EF5040
:101C6000E66E010EDBCFE6FF1D0EDF02F350E552FC
:101C7000E724E66EE66A7AEC26F0E552E552E55294
:101C800001EC28F00400010EDB2AD4D70101012B5E
:101C9000010102510CE1010EE66EE66A010EE66EEC
:101CA000E66A02DBE552E552E552E5520CD0010E40
:101CB000E66E010EE66E010EE66EE66AF5DAE552B4
:101CC000E552E552E552FD0EDBCFE6FFFE0EDBCF1F
:101CD000E6FF9ADAE552E55202D0DF2A2AD701015F
:101CE000025103E10101010E006F050EE15C02E209
:101CF000E16AE552E16EE552E7CFD9FF1200D9CF94
:101D0000E6FFE1CFD9FF050EE126020EE76EFD0EDC
:101D1000DBCFE9FFFE0EDBCFEAFFE750E926000E3E
:101D2000EA22EF5030080AE1FD0EDBCFE6FFFE0E9F
:101D3000DBCFE6FF69DAE552E5528AD1DF6A0F0EA2
:101D4000DF5C43E2DF501D0DF3CFE9FFF4CFEAFF84
:101D5000170EE926010EEA221B0EE926000EEA22E2
:101D6000EF5031E0DF501D0DF3CFE9FFF4CFEAFF74
:101D7000170EE926010EEA22E9CF14F0EACF15F09A
:101D800014C0E6FF15C0E6FFFD0EDBCFE6FFFE0E3A
:101D9000DBCFE6FFEEEC23F0E552E552E552E552EB
:101DA000000911E1DF501D0DF3CFE9FFF4CFEAFF89
:101DB000170EE926010EEA221C0EE926000EEA2281
:101DC000EF0401E145D1DF2ABAD701010051030A2E
:101DD00001E18AD0020A01E03AD1DF6A0F0EDF5C2E
:101DE00001E381D0FD0EDBCFE6FFFE0EDBCFE6FF89
:101DF0007BDAE552E552E76E020EE7CFDBFF020E1B
:101E0000DB50FF086EE0190EE66EE66AE66A020E27
:101E1000DB501D0DF3CFE9FFF4CFEAFF170EE926E3
:101E2000010EEA22E9CF14F0EACF15F014C0E6FF64
:101E300015C0E6FFD4EC23F0166E050EE15E1650D9
:101E40000400020EDB501D0DF3CF14F0F4CF15F09B
:101E5000170E1426010E1522030E14C0DBFF040E0C
:101E600015C0DBFF010EDB6A1D0EF36E010EDBCF2A
:101E7000F4FFF350F45C25E2010EDB50E76E030E35
:101E8000DBCFE9FF040EDBCFEAFFE750E926000EC7
:101E9000EA22EF50E66E010EDBCFE6FF020EDB50CA
:101EA0001D0DF350E552E724E66EE66A7AEC26F063
:101EB000E552E552E55201EC28F00400010EDB2A60
:101EC000D3D7010101510CE10101006BE66AE66A1A
:101ED000E66A010EE66EE8D9E552E552E552E552B2
:101EE000B7D0DF2A7BD7B4D0DF6A0F0EDF5C01E307
:101EF000ADD0FD0EDBCFE6FFFE0EDBCFE6FFF4D963
:101F0000E552E552E76E020EE7CFDBFF020EDB5033
:101F1000FF0801E199D0190EE66EE66AE66A020E44
:101F2000DB501D0DF3CFE9FFF4CFEAFF170EE926D2
:101F3000010EEA22E9CF14F0EACF15F014C0E6FF53
:101F400015C0E6FFD4EC23F0166E050EE15E1650C8
:101F50000400020EDB501D0DF3CF14F0F4CF15F08A
:101F6000170E1426010E1522030E14C0DBFF040EFB
:101F700015C0DBFF010EDB6A1D0EF36E010EDBCF19
:101F8000F4FFF350F45C25E2010EDB50E76E030E24
:101F9000DBCFE9FF040EDBCFEAFFE750E926000EB6
:101FA000EA22EF50E66E010EDBCFE6FF020EDB50B9
:101FB0001D0DF350E552E724E66EE66A7AEC26F052
:101FC000E552E552E55201EC28F00400010EDB2A4F
:101FD000D3D7010102511EE1010101510DE10101BF
:101FE000006BE66AE66AE66A010EE66E5DD9E552C6
:101FF000E552E552E5520DD00101010E006FE66A8F
:10200000E66A010EE66EE66A4FD9E552E552E55200
:10201000E55219D0010101510BE1E66A010EE66EAD
:10202000E66AE66A41D9E552E552E552E5520BD03F
:10203000E66A010EE66E010EE66EE66A35D9E552F5
:10204000E552E552E55204D0DF2A4FD701D000D047
:10205000050EE15C02E2E16AE552E16EE552E7CF8E
:10206000D9FF1200D9CFE6FFE1CFD9FF020EE1265A
:102070000201D151D05D0BE1FD0EDBCFE9FFFE0E79
:10208000DBCFEAFFEE6AED6A010EDB6A2FD0D0519A
:10209000190DF3CF14F0F4CF15F0D20E1426020E62
:1020A0001522FD0EDBCFE9FFFE0EDBCFEAFF14C0E9
:1020B000EEFF15C0EDFFD051190DF3CF14F0F4CFA2
:1020C00015F0D20E1426020E152214C0E6FF15C01C
:1020D000E6FF48EC24F0E552E552010EF3CFDBFFBA
:1020E0000201D02B0A0ED05D01E3D06B010EDB5054
:1020F000146E020EE15C03E200D0E16AE552E16E8B
:102100001450E552E7CFD9FF1200D9CFE6FFE1CF57
:10211000D9FF0201CD0502E1000E0AD0010ECD6FFC
:10212000FE0EDBCFCFF2FD0EDBCFCEF2010E00D0E4
:10213000E552E7CFD9FF1200D9CFE6FFE1CFD9FFB3
:10214000E652FE0EDB501D0DF3CFE9FFF4CFEAFFA0
:10215000170EE926010EEA221C0EE926000EEA22DD
:10216000EF6AFE0EDB501D0DF3CFE9FFF4CFEAFF5F
:10217000170EE926010EEA22E9CF14F0EACF15F096
:1021800014C0E6FF15C0E6FF3FD8E552E552FE0E4B
:10219000DB501D0DF3CFE9FFF4CFEAFF170EE92660
:1021A000010EEA221C0EE926000EEA22EF50E66E2E
:1021B000FE0EDB501D0DF3501C0FE66EE66A7AEC46
:1021C00026F0E552E552E55201EC28F00400DF6A02
:1021D0000F0EDF5C13E2DF501D0DF3CFE9FFF4CFEC
:1021E000EAFF170EE926010EEA221C0EE926000E70
:1021F000EA22EF0401E103D0DF2AEAD78C90E5520E
:10220000E552E7CFD9FF1200D9CFE6FFE1CFD9FFE2
:10221000E652DF6AFD0EDBCFE9FFFE0EDBCFEAFF01
:10222000EF5024E0FD0EDBCFE9FFFE0EDBCFEAFF2F
:10223000EF50E66E0201D151190DF3CF14F0F4CF37
:1022400015F0D20E1426020E1522DF500F011424B1
:10225000E96E000E1520EA6EE552E750EF6EDF2AB8
:10226000FD0EDB2AFE0E01E3DB2AD4D70201D15199
:10227000190DF3CF14F0F4CF15F0D20E1426020E80
:102280001522DF500F011424E96E000E1520EA6EAE
:10229000EF6A0201D12B0A0ED15D01E3D16BE55249
:1022A000E552E7CFD9FF1200D9CFE6FFE1CFD9FF42
:1022B000FE0EDB50E8B08A8AE8A08A9AFD0EDB5059
:1022C000E8B08A88E8A08A98FC0EDB50E8B08A86DD
:1022D000E8A08A96FB0EDB50E8B08C80E8A08C90DA
:1022E000E552E7CFD9FF1200D9CFE6FFE1CFD9FF02
:1022F000040EE126DF6A0F0EDF5C01E399D0DF50A8
:102300001D0DF3CFE9FFF4CFEAFF170EE926010E0A
:10231000EA221B0EE926000EEA22EF5001E186D0E8
:10232000DF501D0DF3CFE9FFF4CFEAFF170EE926CA
:10233000010EEA221C0EE926000EEA22EF0476E0E6
:10234000DF501D0DF3CFE9FFF4CFEAFF170EE926AA
:10235000010EEA22E9CF14F0EACF15F014C0E6FF2F
:1023600015C0E6FFFD0EDBCFE6FFFE0EDBCFE6FF7E
:10237000EEEC23F0E552E552E552E552000956E154
:10238000DF501D0DF3CFE9FFF4CFEAFF170EE9266A
:10239000010EEA221B0EE926000EEA22EF0403E1F9
:1023A0000101010713D0DF501D0DF3CFE9FFF4CF7A
:1023B000EAFF170EE926010EEA221B0EE926000E9F
:1023C000EA22EF50030802E101010207DF501D0D70
:1023D000F3CFE9FFF4CFEAFF170EE926010EEA2258
:1023E0001B0EE926000EEA22EF6ADF501D0DF3CF27
:1023F000E9FFF4CFEAFF170EE926010EEA22190ED3
:10240000E926000EEA22EE6AED6ADF501D0DF3CFD9
:10241000E9FFF4CFEAFF170EE926010EEA221C0EAF
:10242000E926000EEA22EF6ADF5004D0DF2A63D7E4
:10243000FF0E00D0146E040EE15C02E2E16AE55288
:10244000E16E1450E552E7CFD9FF1200D9CFE6FF75
:10245000E1CFD9FF020EE126010EDB6ADF6A0F0E23
:10246000DF5C5BE2DF501D0DF3CFE9FFF4CFEAFF45
:10247000170EE926010EEA221B0EE926000EEA22BB
:10248000EF0449E1DF501D0DF3CFE9FFF4CFEAFF80
:10249000170EE926010EEA22190EE926000EEA229D
:1024A000EE50ED1038E10101022B01010107DF5070
:1024B0001D0DF3CFE9FFF4CFEAFF170EE926010E59
:1024C000EA221B0EE926000EEA22030EEF6EDF5011
:1024D0001D0DF3CFE9FFF4CFEAFF170EE926010E39
:1024E000EA221B0EE926000EEA22EF50E66E1D0ED0
:1024F000DF02F3501B0FE66EE66A7AEC26F0E55237
:10250000E552E55201EC28F004000101030E006FD2
:10251000DE52010EDD6EDF2AA2D7010EDB5000D0A5
:10252000146E020EE15C02E2E16AE552E16E1450C3
:10253000E552E7CFD9FF1200D9CFE6FFE1CFD9FFAF
:10254000E652DF6A0F0EDF5C41E2DF501D0DF3CF74
:10255000E9FFF4CFEAFF170EE926010EEA221B0E6F
:10256000E926000EEA22EF502FE0DF501D0DF3CFD9
:10257000E9FFF4CFEAFF170EE926010EEA22E9CFC0
:1025800014F0EACF15F014C0E6FF15C0E6FFFD0E0B
:10259000DBCFE6FFFE0EDBCFE6FFEEEC23F0E552ED
:1025A000E552E552E55200090FE1DF501D0DF3CF72
:1025B000E9FFF4CFEAFF170EE926010EEA221C0E0E
:1025C000E926000EEA22EF6ADF2ABCD7E552E5527F
:1025D000E7CFD9FF1200D9CFE6FFE1CFD9FFFD0E3B
:1025E000DBCFE6FFFE0EDBCFE6FF0D0EE66E010E43
:1025F000E66EEEEC23F0E552E552E552E5520009B5
:1026000002E0000E02D0010E00D0E552E7CFD9FF64
:102610001200D9CFE6FFE1CFD9FF020EE12601017A
:10262000006B0101016B0101026B0101036B046B83
:10263000056B066B0101076B086B096B0A6B0201E6
:10264000CB6B0201D16B0201D06BDE6ADD6ADECF9B
:1026500014F0DDCF15F00F0E145C000E155870E26B
:10266000DECFE9FFDDCFEAFF1D0EEA02F3CFEAFF7E
:102670001D0EE902F3CFE9FFF450EA26170EE92612
:10268000010EEA221B0EE926000EEA22EF6ADECFD7
:10269000E9FFDDCFEAFF1D0EEA02F3CFEAFF1D0ED0
:1026A000E902F3CFE9FFF450EA26170EE926010EFE
:1026B000EA22190EE926000EEA22EE6AED6ADECF62
:1026C000E9FFDDCFEAFF1D0EEA02F3CFEAFF1D0EA0
:1026D000E902F3CFE9FFF450EA26170EE926010ECE
:1026E000EA221C0EE926000EEA22EF6A190EE66EB7
:1026F000E66AE66ADECFE9FFDDCFEAFF1D0EEA02F9
:10270000F3CFEAFF1D0EE902F3CFE9FFF450EA260A
:10271000170EE926010EEA22E9CF14F0EACF15F0F0
:1027200014C0E6FF15C0E6FFD4EC23F0166E050ECC
:10273000E15E16500400DF2A010E01E3DB2A87D791
:10274000DE6ADD6ADECF14F0DDCF15F0B30E145C67
:10275000FF0E155812E2E66ADECFE6FFDDCFE6FF98
:102760007AEC26F0E552E552E55201EC28F004003F
:10277000DF2A010E01E3DB2AE5D70201CA050BE1DE
:10278000E66AE66AE66A010EE66E8EDDE552E5521D
:10279000E552E55209D0E66AE66AE66AE66A84DD51
:1027A000E552E552E552E552020EE15C02E2E16AD1
:1027B000E552E16EE552E7CFD9FF1200D9CFE6FF2F
:1027C000E1CFD9FF030EE126FD0EDBCFE9FFFE0EC0
:1027D000DBCFEAFF010EEFCFDBFF020EDB6A010E5B
:1027E000DB50A00A65E0010A57E0030A23E0220A51
:1027F0000BE0020EDB6AFB0EDBCFE9FFFC0EDBCF4A
:10280000EAFF920EEF6E5FD0F90EDBCFE6FFFA0E15
:10281000DBCFE6FF27DCE552E552E76E020EE7CF9D
:10282000DBFFFB0EDBCFE9FFFC0EDBCFEAFF800E08
:10283000EF6E49D0010EE76EFD0EDBCF14F0FE0EF9
:10284000DBCF15F0E7501426000E152214C0E6FF6A
:1028500015C0E6FF71DEE552E552010EE76EFD0E92
:10286000DBCF14F0FE0EDBCF15F0E7501426000E80
:10287000152214C0E6FF15C0E6FF7FEC0EF0E5520E
:10288000E552FB0EDBCFE9FFFC0EDBCFEAFFA20E29
:10289000EF6E020EDB6A17D0BCDEFB0EDBCFE9FF6A
:1028A000FC0EDBCFEAFFA10EEF6E020EDB6A0BD04F
:1028B000020EDB6AFB0EDBCFE9FFFC0EDBCFEAFF8B
:1028C000A00EEF6E00D0020EDB50146E030EE15C22
:1028D00003E200D0E16AE552E16E1450E552E7CF21
:0428E000D9FF12000A
:0C28E400080EE66E60EC20F0E552E1EC1E
:1028F0001BF0F4EC1BF00401030E006F020EE66EF9
:1029000033EC1CF0E5521200D9CFE6FFE1CFD9FF3E
:102910000E0EE126DF68D950020FE66E000EDA20B7
:10292000E66ED950030FE66E000EDA20E66E13EC69
:1029300023F0E552E552E552E552000902E164EF69
:1029400019F0020EDBCFE6FF030EDBCFE6FF6EECE5
:1029500019F0E552E552DF6EFF0EDF5C02E164EF35
:1029600019F0040100510C0A02E14AEF19F0070ABC
:1029700001E1E6D3010A01E1C8D3070A01E18DD3E1
:10298000050A01E151D30F0A01E173D2010A01E105
:1029900038D2030A01E1D3D1060A01E1E4D0010AE9
:1029A00001E18ED0030A32E0010A02E064EF19F07F
:1029B0000B0EDF5C29E1010EE66E33EC1CF0E552F4
:1029C000E1EC1BF0F4EC1BF000C401F404014751EE
:1029D000472BEA6A260FE96E040EEA22390EEF6EE3
:1029E0004751472BEA6A260FE96E040EEA22390E98
:1029F000EF6E4751472BEA6A260FE96E040EEA2272
:102A0000300EEF6E010E006F64EF19F0080EDF5C00
:102A10001CE1235100080CE2DFCFE6FF72EC20F04E
:102A2000E552040123074751020801E247070CD091
:102A300001510AE1E66A33EC1CF0E552E1EC1BF0CF
:102A4000F4EC1BF001C400F439D00A0EDF5C18E18D
:102A50002351000814E20C0EE66E33EC1CF0E55234
:102A6000E1EC1BF004014751472BEA6A260FE96E9F
:102A7000040EEA22EF6A010E016F0B0E006F1ED0EA
:102A80002351EA6A020FE96E040EEA22DFCFEFFF5C
:102A90002351EA6A020FE96E040EEA22EF50E66E55
:102AA00072EC20F0E55204014751472BEA6A260FE9
:102AB000E96E040EEA22DFCFEFFF232B64EF19F05B
:102AC000080EDF5C1EE1235100080CE2DFCFE6FFB9
:102AD00072EC20F0E552040123074751020801E29D
:102AE00047070ED0030E015D0BE1020EE66E33ECDC
:102AF0001CF0E552E1EC1BF0F4EC1BF001C400F417
:102B000031D00A0EDF5C10E1235100080CE20C0EFC
:102B1000E66E33EC1CF0E552E1EC1BF00401020E12
:102B2000016F0B0E006F1ED02351EA6A020FE96E8F
:102B3000040EEA22DFCFEFFF2351EA6A020FE96EAB
:102B4000040EEA22EF50E66E72EC20F0E55204012A
:102B50004751472BEA6A260FE96E040EEA22DFCFBF
:102B6000EFFF232BB1D3080EDF5C2BE123510008CC
:102B70000CE2DFCFE6FF72EC20F0E5520401230700
:102B80004751000801E247071BD0690EE66E040EAC
:102B9000E66E84EC07F0E552E552FF0E0401895D14
:102BA0000FE0690EE66E040EE66E05EC1CF0E552D1
:102BB000E552E1EC1BF0F4EC1BF004010D0E006F8C
:102BC000BDD0300EDF5C35E12351000816E2235101
:102BD000EA6A020FE96E040EEA22DFCFEFFF23510B
:102BE000EA6A020FE96E040EEA22EF50E66E72EC1A
:102BF00020F0E5520401232B1BD0480EE66E040E94
:102C0000E66E7FEC03F0E552E552FF0E0401685DCD
:102C10000FE0480EE66E040EE66E05EC1CF0E55281
:102C2000E552E1EC1BF0F4EC1BF00401080E006F20
:102C300085D00B0EDF5C2CE1235129E1010EE66EFD
:102C400033EC1CF0E552E1EC1BF0F4EC1BF004015A
:102C50004751472BEA6A260FE96E040EEA22390E25
:102C6000EF6E4751472BEA6A260FE96E040EEA22FF
:102C7000390EEF6E4751472BEA6A260FE96E040EB4
:102C8000EA22300EEF6E00C401F4020E006F56D03F
:102C90000C0EDF5C1CE1480EE66E040EE66E7FEC67
:102CA00003F0E552E552FF0E0401685D0FE0480EA7
:102CB000E66E040EE66E05EC1CF0E552E552E1EC22
:102CC0001BF0F4EC1BF00401080E006F37D00A0E65
:102CD000DF5C1FE1235100081BE268EC1BF00009D8
:102CE0000DE1020EE66E33EC1CF0E552E1EC1BF058
:102CF000F4EC1BF00401030E006F0AD0040EE66E24
:102D000033EC1CF0E552E1EC1BF00401050E006F02
:102D100015D02351EA6A020FE96E040EEA22DFCFD2
:102D2000EFFF2351EA6A020FE96E040EEA22EF5028
:102D3000E66E72EC20F0E5520401232BC5D2080E9A
:102D4000DF5C0CE1020EE66E33EC1CF0E552E1ECC8
:102D50001BF0F4EC1BF00401030E006FDF50340A8B
:102D60003DE0070A29E0010A15E0030A01E048D026
:102D7000050EE66E87EC1CF0E55204014751EA6A45
:102D8000260FE96E040EEA22310EEF6E472B060E77
:102D9000006F36D0060EE66E87EC1CF0E55204019B
:102DA0004751EA6A260FE96E040EEA22320EEF6EF0
:102DB000472B060E006F24D0070EE66E87EC1CF042
:102DC000E55204014751EA6A260FE96E040EEA2231
:102DD000330EEF6E472B060E006F12D00E0EE66E0E
:102DE00087EC1CF0E55204014751EA6A260FE96EB0
:102DF000040EEA22340EEF6E472B060E006F00D051
:102E000063D2080EDF5C0DE1040EE66E33EC1CF0BD
:102E1000E552E1EC1BF00401050E006F020E476F56
:102E200027D00A0EDF5C24E1330E285D0BE1080E8B
:102E3000E66E33EC1CF0E552E1EC1BF00401070EEA
:102E4000006F16D0B2EC1BF0260EE66E040EE66E96
:102E50005BEC0DF0E552E552020EE66E33EC1CF031
:102E6000E552E1EC1BF0F4EC1BF00401030E006FE3
:102E70002BD2080EDF5C18E12351000808E2DFCFF7
:102E8000E6FF72EC20F0E552040123070CD0040E9B
:102E9000E66E33EC1CF0E552E1EC1BF00401050E8C
:102EA000006F020E476FBFD00A0EDF5C1AE123519C
:102EB000000816E2B2EC1BF0260EE66E040EE66E7B
:102EC0005BEC0DF0E552E552020EE66E33EC1CF0C1
:102ED000E552E1EC1BF0F4EC1BF00401030E006F73
:102EE000A2D0030EDB50245D6DE1140EF36E020ED2
:102EF000DBCFF4FFF350F45C36E223072351EA6A98
:102F0000020FE96E040EEA22DFCFEFFF080EE66E35
:102F100072EC20F0E55204012351EA6A020FE96ED7
:102F2000040EEA22EF50E66E72EC20F0E552140E29
:102F3000F36E050EF3CFDBFF060EDB6A050EDBCF6B
:102F400014F0DB06060EDBCF15F001E2DB061450B1
:102F5000151006E0080EE66EAFEC27F0E552EED74E
:102F60000401232B2ED02351EA6A020FE96E040ECE
:102F7000EA22DFCFEFFF2351EA6A020FE96E040E67
:102F8000EA22EF50E66E72EC20F0E552140EF36E7A
:102F9000070EF3CFDBFF080EDB6A070EDBCF14F062
:102FA000DB06080EDBCF15F001E2DB06145015102E
:102FB00006E0080EE66EAFEC27F0E552EED704010E
:102FC000232B2ED02351EA6A020FE96E040EEA2267
:102FD000DFCFEFFF2351EA6A020FE96E040EEA2207
:102FE000EF50E66E72EC20F0E552140EF36E090E0F
:102FF000F3CFDBFF0A0EDB6A090EDBCF14F0DB0632
:103000000A0EDBCF15F001E2DB061450151006E0C6
:10301000080EE66EAFEC27F0E552EED70401232B45
:10302000030EDBCF24F450D1300EDF5C14E1480EE8
:10303000E66E040EE66E7FEC03F0E552E552FF0EFD
:103040000401685D07E0480EE66E040EE66EDDDB07
:10305000E552E55221D0080EDF5C0BE1020EE66E70
:1030600033EC1CF0E552ADDBBFDB0401030E006F57
:1030700013D00A0EDF5C10E168C4E6FF9CEC10F090
:10308000E55204016869020EE66EEDDBE55299DB5C
:10309000ABDB0401030E006F17D1080EDF5C14E1F7
:1030A000690EE66E040EE66E84EC07F0E552E5521A
:1030B000FF0E0401895D07E0690EE66E040EE66E00
:1030C000A4DBE552E55220D0300EDF5C0AE1020EAF
:1030D000E66EC9DBE55275DB87DB0401030E006F8A
:1030E00013D00A0EDF5C10E189C4E6FF89EC0BF017
:1030F000E55204018969020EE66EB5DBE55261DB3B
:1031000073DB0401030E006FDFD0080EDF5C09E102
:10311000020EE66EA8DBE55254DB0401030E006FDD
:103120000ED00A0EDF5C0BE109EC13F04ADB5CDB2E
:10313000020EE66E98DBE5520401030E006FC4D068
:10314000080EDF5C1AE1010508E1E66A8CDBE55256
:1031500038DB4ADB0401006B0FD0020E015D03E097
:10316000030E015D09E1020EE66E7DDBE55229DB0F
:103170003BDB0401030E006F8CD00A0EDF5C01E024
:1031800079D02351EA6A020FE96E040EEA22EF6A4F
:10319000010528E10B0EDB6A260EE66E040EE66ED4
:1031A000020EE66E040EE66EFCEC01F0E552E5520E
:1031B000E552E552E76E0B0EE7CFDBFFDB040AE1D9
:1031C000020EE66E50DBE552FCDA0EDB0401030E64
:1031D000006F07D0E66A47DBE552F3DA05DB04014E
:1031E000006B47D0020E015D28E10C0EDB6A260E53
:1031F000E66E040EE66E020EE66E040EE66E43EC1C
:1032000002F0E552E552E552E552E76E0C0EE7CFCB
:10321000DBFFDB0408E1E66A26DBE552D2DAE4DA1A
:103220000401006B09D0020EE66E1DDBE552C9DA1F
:10323000DBDA0401030E006F1CD0030E015D19E1FF
:103240000D0EDB6A020EE66E040EE66EEBEC12F07B
:10325000E552E552E76E0D0EE7CFDBFFDB0409E137
:103260000D0EE66E00DBE552ACDABEDA04010C0EA0
:10327000006F0FD02351EA6A020FE96E040EEA22B2
:10328000DFCFEFFF2A0EE66E72EC20F0E55204016C
:10329000232B1AD0080EDF5C0AE1020EE66EE3DA99
:1032A000E5528FDAA1DA0401030E006F0CD0300E64
:1032B000DF5C09E10B0EE66ED6DAE55282DA94DACB
:1032C00004010A0E006F00D00E0EE15C02E2E16A1A
:1032D000E552E16EE552E7CFD9FF1200D9CFE6FF04
:1032E000E1CFD9FFE652DF68040100510C0A01E189
:1032F000B8D1060A01E19FD1010A01E18DD1020A8C
:1033000001E166D1040A01E147D1050A01E128D1B2
:103310000F0A01E1F3D0010A01E1DAD0030A01E169
:10332000B2D0010A01E19AD0070A01E17ED0010A78
:103330004AE0030A16E0010A01E0ACD1FE0EDB50C0
:10334000040DF3CFF6FFF4CFF7FFEC0EF6264D0E8B
:10335000F7220800F550DF6E0B0EDF5C01E0DF683E
:1033600099D1FE0EDB50245D10E1140EF36EFD0EBC
:10337000DBCFF4FFF350F45C06E2252B040E255D51
:1033800001E1256B01D0256B01D0256BFE0EDB50D2
:10339000040DF3CF14F0F4CF15F0EC0E14264D0EFF
:1033A000152225510F011424F66E000E1520F76E1C
:1033B0000800F550DF6E0B0EDF5C03E00C0EDF5CE7
:1033C00001E1DF6867D1FE0EDB50245D10E1140ED1
:1033D000F36EFD0EDBCFF4FFF350F45C06E2252B19
:1033E000040E255D01E1256B01D0256B01D0256B15
:1033F000FE0EDB50040DF3CF14F0F4CF15F0EC0EFD
:1034000014264D0E152225510F011424F66E000EC0
:103410001520F76E0800F550DF6E0B0EDF5C03E041
:103420000C0EDF5C01E1DF6835D1FE0EDB50040DD0
:10343000F3CFF6FFF4CFF7FFEC0EF6264D0EF72292
:103440000800F550DF6E020E235D07E3080EDF5C17
:1034500004E00A0EDF5C01E0DF681CD1FE0EDB50E9
:10346000040DF3CFF6FFF4CFF7FFEC0EF6264D0E6A
:10347000F7220800F550DF6E235104E10A0EDF5CED
:1034800001E1DF6807D1FE0EDB50040DF3CFF6FF3C
:10349000F4CFF7FFEC0EF6264D0EF7220800F5509C
:1034A000DF6E300EDF5C13E0310EDF5C10E0320EB9
:1034B000DF5C0DE0330EDF5C0AE0340EDF5C07E01A
:1034C000080EDF5C04E00A0EDF5C01E0DF68E2D09A
:1034D000FE0EDB50040DF3CFF6FFF4CFF7FFEC0E3A
:1034E000F6264D0EF7220800F550DF6E0A0EDF5C5F
:1034F00004E0080EDF5C01E0DF68CCD0FE0EDB509C
:10350000245D10E1140EF36EFD0EDBCFF4FFF350DB
:10351000F45C06E2252B040E255D01E1256B01D04C
:10352000256B01D0256BFE0EDB50040DF3CF14F09C
:10353000F4CF15F0EC0E14264D0E152225510F0177
:103540001424F66E000E1520F76E0800F550DF6E9D
:103550000C0EDF5C03E00B0EDF5C01E1DF689AD04C
:10356000FE0EDB50040DF3CFF6FFF4CFF7FFEC0EA9
:10357000F6264D0EF7220800F550DF6E0A0EDF5CCE
:103580000AE0080EDF5C07E00C0EDF5C04E0300EA2
:10359000DF5C01E0DF687ED0FE0EDB50040DF3CF70
:1035A000F6FFF4CFF7FFEC0EF6264D0EF7220800DB
:1035B000F550DF6E0A0EDF5C0AE0080EDF5C07E004
:1035C0000C0EDF5C04E0300EDF5C01E0DF6862D0EF
:1035D000FE0EDB50040DF3CFF6FFF4CFF7FFEC0E39
:1035E000F6264D0EF7220800F550DF6E020E235D21
:1035F00008E20B0EDF5C03E00C0EDF5C01E1DF682C
:103600000AD0020E235D07E3080EDF5C04E00A0E19
:10361000DF5C01E0DF683ED0FE0EDB50040DF3CF2F
:10362000F6FFF4CFF7FFEC0EF6264D0EF72208005A
:10363000F550DF6E2FD0FE0EDB50040DF3CFF6FFFA
:10364000F4CFF7FFEC0EF6264D0EF7220800F550EA
:10365000DF6E0A0EDF5C04E0080EDF5C01E0DF686D
:1036600019D0FE0EDB50040DF3CFF6FFF4CFF7FFB9
:10367000EC0EF6264D0EF7220800F550DF6E300EE8
:10368000DF5C07E0080EDF5C04E00A0EDF5C01E0AF
:10369000DF6800D0DF5000D0E552E552E7CFD9FF18
:1036A0001200D9CFE6FFE1CFD9FFFE0EDB50030AAF
:1036B00001E00AD0020EE66ED6D8E55282D894D840
:1036C0000401030E006F00D0E552E7CFD9FF1200CE
:1036D000D9CFE6FFE1CFD9FF020EE126010EDB6A6A
:1036E0000401230513E14751EA6A260FE96E040E2F
:1036F000EA22300EEF6E472B4751EA6A260FE96E39
:10370000040EEA2202C4EFFF472B12D04751EA6AA7
:10371000260FE96E040EEA2202C4EFFF472B475141
:10372000EA6A260FE96E040EEA2203C4EFFF472B74
:10373000300E275D146E300E265D0A0DF3501424F2
:10374000E76E010EE7CFDBFFDB50146E020EE15C8B
:1037500003E200D0E16AE552E16E1450E552E7CF92
:10376000D9FF1200D9CFE6FFE1CFD9FFE652DF6AD9
:1037700004012351DF5C14E2DF50EA6A020FE96EB4
:10378000040EEA22EF50E66E4751EA6A260FE96E10
:10379000040EEA22E552E750EF6E472BDF2AE8D706
:1037A0004751EA6A260FE96E040EEA22EF6A472BB8
:1037B000200E475D01E3476BE552E552E7CFD9FFA5
:1037C0001200200EE66EE66AE66A020EE66E040E4F
:1037D000E66ED4EC23F0146E050EE15E1450040185
:1037E000236B256B24691200200EE66EE66AE66AFA
:1037F000260EE66E040EE66ED4EC23F0146E050E73
:10380000E15E14500401476B1200D9CFE6FFE1CF0F
:10381000D9FFE6526BEC20F0DF6ADF50E76EFD0E59
:10382000DBCFE9FFFE0EDBCFEAFFE750E926000E13
:10383000EA22EF5013E0DF50E76EFD0EDBCFE9FF29
:10384000FE0EDBCFEAFFE750E926000EEA22EF503A
:10385000E66E72EC20F0E552DF2ADFD7E552E55242
:10386000E7CFD9FF1200D9CFE6FFE1CFD9FF150E80
:10387000E1266BEC20F0FE0EEA6ADB34FE0BEA3642
:10388000E96EBD0EE926040EEA22EECF14F0EFCF6A
:1038900015F0166A14C0E6FF15C0E6FF16C0E6FF75
:1038A000D950010FE66E000EDA20E66E2FEC24F000
:1038B000176E050EE15E1750DF6AD950010F146EC6
:1038C000DACF15F0DF500F011424E96E000E152039
:1038D000EA6EEF5012E0D950010F146EDACF15F0F6
:1038E000DF501424E96E000E1520EA6EEF50E66EEC
:1038F00072EC20F0E552DF2AE0D7150EE15C02E21F
:10390000E16AE552E16EE552E7CFD9FF1200D9CF67
:10391000E6FFE1CFD9FF030EE126FE0EEA6ADB34B3
:10392000FE0BEA36E96EBD0EE926040EEA22010E10
:10393000EECFDBFF020EEDCFDBFFDF6ADF50E76E7D
:10394000010EDBCFF6FF020EDBCFF7FFE750F626C6
:10395000000EF7220800F55014E0DF50E76E010E6C
:10396000DBCFF6FF020EDBCFF7FFE750F626000EA7
:10397000F7220800F550E66E72EC20F0E552DF2ADF
:10398000DDD7030EE15C02E2E16AE552E16EE55249
:06399000E7CFD9FF120091
:0A399600D9CFE6FFE1CFD9FFFE0E06
:1039A000DBCF01F5FD0EDBCF02F5FC0EDBCF03F51F
:1039B000FB0EDBCF04F5F90EDBCF6DF5FA0EDBCF96
:1039C0006EF504D8E552E7CFD9FF1200240EE66E5B
:1039D000F40EE66EE66AE66AC6EC21F0E552E552C0
:1039E000E552E5520501696B6A6B010E006F6B6B66
:1039F000FA0E6C6F73C56FF574C570F575C571F50A
:103A000076C572F500C577F512000501696B6A6B22
:103A1000010E006F6B6BFA0E6C6F73C56FF574C59A
:103A200070F575C571F576C572F500C577F51200AC
:103A3000D9CFE6FFE1CFD9FF060EE126DF6AB6EC6B
:103A400025F006C073F507C074F508C075F509C008
:103A500076F56F0EE96E050EEA6EEE5005017319EC
:103A600009E1EE50741906E1EE50751903E1EE50CC
:103A7000761900E113E00051775D08E1020E005D68
:103A800005E16C076C5102E1A1DFBED073C56FF593
:103A900074C570F575C571F576C572F50051030AE8
:103AA00001E1ADD0010A16E0030A02E0AEDFAAD0C0
:103AB00087EC22F0000901E1A7D0A4EC22F0DF6E30
:103AC00005010151DF5C05E1696B020E006FFA0E22
:103AD0006C6F98D087EC22F0000901E195D0A4EC3E
:103AE00022F0DF6E05010251DF5C74E1020EDB6A39
:103AF000030EDB68D950030FE66E000EDA20E66E87
:103B00008DD8E552E552E76E020EE7CFDBFFDB50C2
:103B1000020A54E0030A05E0010A01E057D075DF0C
:103B200073D005016D516E1147E0D950040FE66E58
:103B3000000EDA20E66E6B0EE66E050EE66E070EE0
:103B4000E66E050EE66E05D06EC5FAFF05016D51F5
:103B5000F96EFADF146E060EE15E145005016A6F0D
:103B6000FA0E376F6A2B6BC538F56A2BDE52020EE0
:103B7000DD6E6A51F36E010EDBCFF4FFF350F45C9F
:103B80001AE2040EDBCFE9FF050EDBCFEAFFEF50B0
:103B9000E66E010EDB50EA6A370FE96E050EEA2287
:103BA000E552E750EF6E040EDB2A050E01E3DB2A37
:103BB000010EDB2ADED701D028DF08D00501FA0E7E
:103BC000376F6A2B6BC538F56A2B00D00501030EE1
:103BD000006F14D06951692BEA6A050FE96E050E72
:103BE000EA22DFCFEFFF320E695D08E3FA0E376F8E
:103BF0006A2B900E386F6A2B030E006F03D05AD8D1
:103C000004DF00D000C577F5060EE15C02E2E16A50
:103C1000E552E16EE552E7CFD9FF1200D9CFE6FFBA
:103C2000E1CFD9FF020EE12605016905EA6A050F19
:103C3000E96E050EEA22EFCFDFFF010EDB6AFA0E16
:103C4000055D05E0FA0E055D02E0000E27D069056E
:103C5000E66E050EE66E050EE66E9BD8E552E55261
:103C6000E552E76E010EE7CFDBFFDB50DF5C0CE1D6
:103C7000050169076951EA6A050FE96E050EEA2236
:103C8000EF6A010E0BD00AD0FD0EDBCFE9FFFE0E6E
:103C9000DBCFEAFF910EEF6E000E00D0146E020E25
:103CA000E15C02E2E16AE552E16E1450E552E7CFD1
:103CB000D9FF1200D9CFE6FFE1CFD9FF020EE126EE
:103CC000DF6A010EDB6A6AC5E6FF370EE66E050E97
:103CD000E66E5FD8E552E552E552DF6E03C5E6FFBA
:103CE0002AEC22F0E552010EDB6A05016A51F36EFF
:103CF000010EDBCFF4FFF350F45C0FE2010EDB505A
:103D0000EA6A370FE96E050EEA22EF50E66E2AECFA
:103D100022F0E552010EDB2AE8D7DFCFE6FF2AECDE
:103D200022F0E55204C5E6FF2AEC22F0E55246EC0B
:103D300022F00400020EE15C02E2E16AE552E16E6B
:103D4000E552E7CFD9FF1200D9CFE6FFE1CFD9FF87
:103D5000FD0EDBCFF6FFFE0EDBCFF7FF0800F550C0
:103D600012E0FD0EDBCFF6FFFE0EDBCFF7FF080003
:103D7000F550E66E2AEC22F0E552FD0EDB2AFE0E2F
:103D800001E3DB2AE5D746EC22F0E552E7CFD9FF85
:103D90001200D9CFE6FFE1CFD9FF030EE126DF6A9B
:103DA000010EDB6AFC0EDB50F36E010EDBCFF4FF7D
:103DB000F350F45C12E2010EDB50E76EFD0EDBCF38
:103DC000E9FFFE0EDBCFEAFFE750E926000EEA220C
:103DD000EF50DF1A010EDB2AE5D7DF50146E030E19
:103DE000E15C03E200D0E16AE552E16E1450E55275
:063DF000E7CFD9FF12002D
:0A3DF600D9CFE6FFE1CFD9FF030E9D
:103E0000E126300EF36E010EF3CFDBFF750EF36E7D
:103E1000020EF3CFDBFF010EDF6EDF0425E105DAD2
:103E2000000000008392838400000000838600006D
:103E300000008350800B01E0010EDF6E83968386C5
:103E4000000000008396010EDB06020E01E2DB0695
:103E5000D950010FE96EDACFEAFFEE50ED1003E121
:103E6000ECD9FF0E04D0D9D7E8D9000E00D0146EDB
:103E7000030EE15C02E2E16AE552E16E1450E552A4
:103E8000E7CFD9FF1200D9CFE6FFE1CFD9FF839268
:103E900083940000FE0EDB50F00B146E0F0E8C149A
:103EA00014108C6E00008386000000008396E5529B
:103EB000E7CFD9FF1200D9CFE6FFE1CFD9FF9BDFD3
:103EC000839283940000FE0EDB50F00B146E0F0EF5
:103ED0008C1414108C6E0000838600000000839602
:103EE000FE0EDB38F00BF00B146E0F0E8C1414105A
:103EF0008C6E00008386000000008396E552E7CFB9
:103F0000D9FF1200D9CFE6FFE1CFD9FF74DF83825A
:103F100083940000FE0EDB50F00B146E0F0E8C1419
:103F200014108C6E00008386000000008396FE0E45
:103F3000DB38F00BF00B146E0F0E8C1414108C6E1B
:103F400000008386000000008396E552E7CFD9FF8A
:103F50001200D9CFE6FFE1CFD9FF0B0EE1266DD9D4
:103F6000280EF36E010EF3CFDBFF020EDB6A010EAB
:103F7000DBCF14F0DB06020EDBCF15F001E2DB062F
:103F80001450151006E0080EE66EAFEC27F0E5526F
:103F9000EED7300EE66E77DFE5520A0EF36E030EB3
:103FA000F3CFDBFF040EDB6A030EDBCF14F0DB067E
:103FB000040EDBCF15F001E2DB061450151006E00D
:103FC000080EE66EAFEC27F0E552EED7300EE66E47
:103FD0005ADFE5520A0EF36E050EF3CFDBFF060E35
:103FE000DB6A050EDBCF14F0DB06060EDBCF15F027
:103FF00001E2DB061450151006E0080EE66EAFEC89
:1040000027F0E552EED7300EE66E3DDFE5520A0EA0
:10401000F36E070EF3CFDBFF080EDB6A070EDBCF74
:1040200014F0DB06080EDBCF15F001E2DB061450BE
:10403000151006E0080EE66EAFEC27F0E552EED75D
:10404000200EE66E20DFE5520A0EF36E090EF3CF66
:10405000DBFF0A0EDB6A090EDBCF14F0DB060A0E6B
:10406000DBCF15F001E2DB061450151006E0080E58
:10407000E66EAFEC27F0E552EED7280EE66E1BDFBA
:10408000E552B9DEDF6EDF5010E10F0EE66E13DF92
:10409000E552010EE66E0FDFE552040EE66E0BDF11
:1040A000E552060EE66E07DFE5520B0EE15C03E219
:1040B00000D0E16AE552E16EE552E7CFD9FF120088
:1040C000D9CFE6FFE1CFD9FFFE0EDBCF8BF4E5526F
:1040D000E7CFD9FF1200010EE66EEDDEE5520401D6
:1040E0008A6B1200D9CFE6FFE1CFD9FFE652FE0E70
:1040F000DB5004018B5D23E18A5101E137D0100EC2
:104100008A5D0EE1800EE66ED6DEE552DF6A100EA5
:10411000DF5C06E2140EE66ECEDEE552DF2AF7D74C
:10412000100EE66EC8DEE552200EE66EEBDEE552BE
:10413000100EE66EC0DEE55204018A0717D0100E9D
:104140008A5D05E1C00EE66EB6DEE55208D0200EAF
:104150008A5D05E38A6B020EE66EADDEE552FE0E69
:10416000DBCFE6FFCFDEE55204018A2BE552E552B4
:10417000E7CFD9FF1200EDDE010EE66E9CDEE552C0
:1041800004018A6B1200D9CFE6FFE1CFD9FFE652D6
:10419000010EE66E90DEE552DF6A100EDF5C1CE277
:1041A000FD0EDBCFE9FFFE0EDBCFEAFFEF50E66E40
:1041B000DF50EA6A8C0FE96E040EEA22E552E750FE
:1041C000EF6EFD0EDBCFE9FFDB2AFE0EDBCFEAFF51
:1041D00001E3DB2ADF2AE1D7C00EE66E6CDEE55292
:1041E000DF6A100EDF5C1CE2FD0EDBCFE9FFFE0E86
:1041F000DBCFEAFFEF50E66EDF50EA6A8C0FE96E24
:10420000040EEA22E552E750EF6EFD0EDBCFE9FF28
:10421000DB2AFE0EDBCFEAFF01E3DB2ADF2AE1D750
:10422000E552E552E7CFD9FF1200958E958C958A1D
:1042300095889596959495921200959E959C959A41
:0A42400095989596959495921200BA
:06424A00DACFE4FFE2CF31
:10425000DAFFE9CFE4FFEACFE4FFF6CFE4FFF7CFE0
:10426000E4FFF5CFE4FFF3CFE4FFF4CFE4FFFACFB0
:10427000E4FF00EE00F0140EE80403E3EECFE4FFE9
:10428000FBD700EE14F0040EE80403E3EECFE4FFE6
:10429000FBD7E652D9CFE6FFE1CFD9FFE6523AECA1
:1042A00027F0DF6E0501AD51AD2BEA6AB00FE96E64
:1042B000050EEA22DFCFEFFF320EAD5D01E3AD6BFD
:1042C000AF2B9E9AE552E552E7CFD9FFE55200EEBB
:1042D00017F0040EE80403E3E5CFEDFFFBD700EE93
:1042E00013F0140EE80403E3E5CFEDFFFBD7E5CFB1
:1042F000FAFFE5CFF4FFE5CFF3FFE5CFF5FFE5CF1C
:10430000F7FFE5CFF6FFE5CFEAFFE5CFE9FFE5CF21
:10431000DAFF1100DACFE4FFE2CFDAFFE9CFE4FF02
:10432000EACFE4FFE652D9CFE6FFE1CFD9FFE6526C
:1043300005017A5104E1ACA2FED7AC9A1BD07951A9
:10434000EA6A7B0FE96E050EEA22EFCFDFFFDF504E
:10435000AD6E792B320E795D01E3796B000EE76E5D
:104360007A19E8AE02D07A3503D0E750D8807A5572
:1043700001E27A07E552E552E7CFD9FFE552E5CFF2
:10438000EAFFE5CFE9FFE5CFDAFF1100D9CFE6FF7D
:10439000E1CFD9FFE6527C0EDF6ED950FB0FE96EFC
:1043A000FF0EDA20EA6EEE2A000EEE22EE22EE2258
:1043B000D950FB0FE96EFF0EDA20EA6E040EE76EAD
:1043C000D890EF36010EEB36020EEB36030EEB36CD
:1043D000E706F6E1146A480E156EE80E166E010E39
:1043E000176E14C006F015C007F016C008F017C00D
:1043F00009F0FB0EDBCF0BF0FC0EDBCF0CF0FD0E5B
:10440000DBCF0DF0FE0EDBCF0EF0D2EC26F0FB0E74
:1044100006C0DBFFFC0E07C0DBFFFD0E08C0DBFFA4
:10442000FE0E09C0DBFFFB0EDBCFE6FFFC0EDBCF91
:10443000E6FFDFCFE6FF35EC26F0E552E552E55228
:10444000D08EAC8AAC9EF28C9F8AE552E552E7CFC3
:10445000D9FF1200D9CFE6FFE1CFD9FFACA2FED73A
:1044600005017851782BEA6A7B0FE96E050EEA2286
:10447000FE0EDBCFEFFF7A2B320E785D01E3786B17
:10448000010E00D0E552E7CFD9FF1200D9CFE6FFE9
:10449000E1CFD9FF020EE126000E0501E76E7A1981
:1044A000E8AE02D07A3503D0E750D8807A5523E2BF
:1044B0007951EA6A7B0FE96E050EEA22010EEFCF11
:1044C000DBFFACA2FED7010EDB50AD6EACA2FED777
:1044D0000501792B320E795D01E3796B000EE76EF1
:1044E0007A19E8AE02D07A3503D0E750D8807A55F1
:1044F00001E27A07D1D7146E020EE15C02E2E16AB2
:10450000E552E16E1450E552E7CFD9FF1200D9CF42
:10451000E6FFE1CFD9FFE652DF6A9D9A000E050162
:10452000E76EAF19E8AE02D0AF3503D0E750D880C0
:10453000AF5502E2010EDF6E9D8ADF5000D0E552DA
:10454000E552E7CFD9FF1200D9CFE6FFE1CFD9FF7F
:10455000E6529D9A0501AE51AE2BEA6AB00FE96EA4
:10456000050EEA22EFCFDFFF320EAE5D01E3AE6B48
:10457000000EE76EAF19E8AE02D0AF3503D0E750BA
:10458000D880AF5501E2AF079D8ADF5000D0E552D9
:08459000E552E7CFD9FF12004C
:084598000401BA6BBB6B1200B9
:1045A000D9CFE6FFE1CFD9FF020EE1260401BC2BF3
:1045B000D9CFE6FFDACFE6FF81D8E552E552000910
:1045C00001E127D00401BA51BB5D02E1BB6BBA6BBC
:1045D000BB51E96EEA6AD890E936EA36AC0EE926B4
:1045E000040EEA22DFCFEFFFBB51E96EEA6AD890F2
:1045F000E936EA36AC0EE926040EEA22010EE92677
:10460000000EEA22BCC4EFFF060EBB5D01E2BB2B2D
:10461000BC6B020EE15C02E2E16AE552E16EE5523A
:10462000E7CFD9FF1200D9CFE6FFE1CFD9FF0401D0
:10463000BB51BA5D31E2BA51E96EEA6AD890E93607
:10464000EA36AC0EE926040EEA22EF50E66EFD0EC5
:10465000DBCFE9FFFE0EDBCFEAFFE552E750EF6E5E
:10466000BA51E96EEA6AD890E936EA36AC0EE92624
:10467000040EEA22010EE926000EEA22EF50E66E51
:10468000FB0EDBCFE9FFFC0EDBCFEAFFE552E75084
:10469000EF6EBA2B010E02D0000E00D0E552E7CF2C
:1046A000D9FF12000401EF5100D012000401F051B3
:1046B00000D012000401BB6BBA6B1200D9CFE6FF29
:1046C000E1CFD9FFE652DF68809881B402D0010EB5
:1046D000DF6E80B202D0040EDF6E80B402D0070E0F
:1046E000DF6E80B602D00A0EDF6E8088FF0EDF5CC0
:1046F00012E1809A81B402D0020EDF6E80B202D045
:10470000050EDF6E80B402D0080EDF6E80B602D0D8
:104710000B0EDF6E808AFF0EDF5C12E1849081B4A5
:1047200002D0030EDF6E80B202D0060EDF6E80B4C0
:1047300002D0090EDF6E80B602D00C0EDF6E8480D0
:10474000FF0EDF5C0BE1829484B203D00D0EDF6EAE
:1047500004D082B202D00E0EDF6E8284FF0EDF5CC8
:1047600006E10401F4690401EE69000E18D00401A9
:10477000F451DF5C10E10401EE51DF5C0CE0FD0E52
:10478000DBCFE9FFFE0EDBCFEAFFDFCFEFFFDFCFAE
:10479000EEF4010E04D0DFCFF4F4000E00D0E552A9
:0847A000E552E7CFD9FF12003A
:0847A800FE0EE3CFE9FFFF0E56
:1047B000E3CFEAFFE9CFF3FFEACFF4FFFB0EE350CC
:1047C00003E1FC0EE35009E0FB0EE30602E2FC0EFF
:1047D000E306FD0EE350EE6EF1D71200D9CFE6FFEF
:1047E000DACFE6FFFA0EE3CFD9FFFB0EE3CFDAFF15
:1047F000FC0EE3CFE9FFFD0EE3CFEAFFDE50EF5CF6
:1048000002E1EE66FBD7F36EFF0EE3CFDAFFE5526F
:10481000FF0EE3CFD9FFE552F3501200D9CFE6FFE8
:10482000DACFE6FFFA0EE3CFD9FFFB0EE3CFDAFFD4
:10483000FC0EE3CFE9FFFD0EE3CFEAFFE9CFF3FF84
:10484000EACFF4FFDECFEFFFEE66FCD7FF0EE3CF3B
:10485000DAFFE552FF0EE3CFD9FFE5521200FB0E5F
:10486000E3CFF6FFFC0EE3CFF7FFFD0EE3CFF8FF3B
:10487000FE0EE3CFE9FFFF0EE3CFEAFFE9CFF3FF40
:10488000EACFF4FF0900F5CFEFFFEE66FBD7120089
:10489000FE0EE3CFE9FFFF0EE3CFEAFFF36AF46A0F
:0C48A000EE5203E0F34AF42AFBD71200AA
:0448AC00DACFE4FF7C
:1048B000E2CFDAFFE9CFE4FFEACFE4FFF6CFE4FF8F
:1048C000F7CFE4FFF5CFE4FFF3CFE4FFF4CFE4FF4D
:1048D000FACFE4FF00EE00F0140EE80403E3EECF9D
:1048E000E4FFFBD700EE14F0040EE80403E3EECF80
:1048F000E4FFFBD7E652F2940501F02B000EF12302
:10490000F22BF323F42BF523F62BF723F82BF923C3
:10491000FA07FB5BFB3504E2FA510008000EFB5579
:1049200008E3FC2B000EFD23FE23FF23C80EFA6FC5
:10493000FB6BE451E51107E005D0E5C5FAFF050181
:10494000E451F96EFADFE2C5E6FFE3C5E6FF77EC76
:1049500027F0E552E552E55200EE17F0040EE804A8
:1049600003E3E5CFEDFFFBD700EE13F0140EE804F0
:1049700003E3E5CFEDFFFBD7E5CFFAFFE5CFF4FF8B
:10498000E5CFF3FFE5CFF5FFE5CFF7FFE5CFF6FF86
:0E499000E5CFEAFFE5CFE9FFE5CFDAFF110042
:02499E00D9CF6F
:1049A000E6FFE1CFD9FF030EE126ADEC26F0BBEC2C
:1049B00020F0CCEC22F0000EE66EE66ADF0EE66E2A
:1049C000B10EE66E92EC25F0E552E552E552E55265
:1049D000DF6A1A0EDF5C21E2410EDF24E66E72EC24
:1049E00020F0E552C80EF36E010EF3CFDBFF020E8E
:1049F000DB6A010EDBCF14F0DB06020EDBCF15F015
:104A000001E2DB061450151006E0080EE66EAFEC6E
:104A100027F0E552EED7DF2ADCD76BEC20F072EC02
:104A200014F05EEC00F00DEC00F00501C80EF05D36
:104A3000000EF15905E3EEEC27F00501F06BF16B88
:104A40000501080EF25D000EF35905E3D0EC22F0EB
:104A50000501F26BF36B18EC1DF08FEC02F084ECA7
:104A600014F00400E2D7030EE15C02E2E16AE552D1
:0A4A7000E16EE552E7CFD9FF120016
:064A7A004F544845525361
:104A80000041444D494E2041435449564954593AF6
:104A90000050415353574F52443A00434C45415202
:104AA0002049535355455300434C4153533A004119
:104AB000434B4E4F574C45444745005041525420BC
:104AC0004E4F3A00504152542053484F52544147A0
:104AD00045005155414C49545900425245414B44BF
:104AE0004F574E0049535355453A005052444E20BB
:104AF0005154593A0053544154494F4E3A00494495
:104B00003A00202020204944454F4E49435320205D
:104B1000202020414E444F4E205445524D494E4195
:034B20004C200026
:0C4B2400D9CFE6FFE1CFD9FF9F0EE66E6F
:104B300093EC27F0E552FD0EDBCFE2F5FE0EDBCF66
:104B4000E3F5FB0EDBCFE4F5FC0EDBCFE5F5F194EE
:104B5000FD0EDBCFE6FFFE0EDBCFE6FF77EC27F0A6
:104B6000E552E552E552E7CFD9FF1200D9CFE6FF73
:104B7000E1CFD9FF040EE126F29AFCC5DFFF010E5A
:104B8000FDC5DBFF020EFEC5DBFF030EFFC5DBFF2D
:104B9000F28ADECF06F0DECF07F0DECF08F0DDCF01
:104BA00009F0DD52DD52040EE15C03E200D0E16A5F
:104BB000E552E16EE552E7CFD9FF1200F29E050102
:0C4BC000FC6BFD6BFE6BFF6BF28E1200B5
:044BCC002A0EF66E49
:104BD000000EF76E000EF86E04010900F550E06F4C
:104BE0000900F550E16F03E1E06701D03DD0090015
:104BF000F550DB6F0900F550DC6F0900F550DD6FF3
:104C000009000900F550E96E0900F550EA6E090047
:104C100009000900F550DE6F0900F550DF6F09004B
:104C20000900F6CFE2F4F7CFE3F4F8CFE4F4DBC405
:104C3000F6FFDCC4F7FFDDC4F8FF0401DE5302E138
:104C4000DF5307E00900F550EE6EDE07F8E2DF07FC
:104C5000F9D7E2C4F6FFE3C4F7FFE4C4F8FF0401A8
:0A4C6000E007000EE15BBFD7120071
:064C6A00D9CFE6FFDACF0E
:104C7000E6FFE1CFD9FFE2CFDAFFAC6AAB6AFD0E07
:104C8000DBB0AC88DBA202D0AC8CAB8CDBB4AC8EDE
:104C9000DBA602D0AB8801D0AB8ADBB8AC849E988F
:104CA000DBBAAB86DBAC02D09D8A01D09D9A9E9A7E
:104CB000DBAE02D09D8801D09D98FB0EDB50AF6E1D
:104CC000FB0EFC0EDBCF15F015C014F0156A145066
:104CD000B06EAC8AAB8E949C948EAC50100B04E0FA
:104CE000AC50800B01E1948CE552E5CFDAFFE7CFC1
:044CF000D9FF1200D6
:0C4CF400D9CFE6FFDACFE6FFE1CFD9FF11
:104D0000E2CFDAFFE652DF6AFF0EE76EFC0EDBCF82
:104D100014F0E75014161450A96EFB0EDB50A86E69
:104D2000A69EA69CA684F250800B01E0010EDF6EC9
:104D3000F29E550EA76EAA0EA76EA682A6B2FED749
:104D4000DF50E8B0F28EE8A0F29EA694E552E5525C
:0A4D5000E5CFDAFFE7CFD9FF12002C
:064D5A000F0EC16E700E89
:104D6000D3129B8C9694959E959C959A9598959622
:104D70009594959293849282928492869298929A34
:104D80009690968294829494829494908290949C2B
:104D9000948E95908C90939A8A9A93968A969398EB
:044DA0008A981200DB
:0C4DA400056A046A036A026A200EE76ECA
:104DB000D8900636073608360936023603360436EA
:104DC00005360B50025C0C5003580D5004580E5021
:104DD000055809E30B50025E0C50035A0D50045A5B
:0C4DE0000E50055A062AE72EE4D71200F8
:044DEC00FFFFFFFFC7
:104DF00031313131324142433344454634474849E9
:104E0000354A4B4C364D4E4F375052533854555609
:104E1000395758590808080830515A2D0A0A0A0A01
:104E20000000000000000000000000000000000082
:104E3000D9CFE6FFDACFE6FFE1CFD9FFE2CFDAFF45
:104E4000FF0EE76EFC0EDBCF14F0FD0EDBCF15F08E
:104E5000E7501416156A1450A96EA69CA69EA6804B
:104E600000000000A85000D0E552E5CFDAFFE7CF00
:044E7000D9FF120054
:0C4E7400D9CFE6FFDACFE6FFE1CFD9FF8F
:104E8000E2CFDAFFE652F20E0401F317ABAC03D027
:104E9000F391ABB0F381ABB4F385ABB2F387AE5013
:104EA000DF6EDF50E552E552E5CFDAFFE7CFD9FFFD
:024EB0001200EE
:0E4EB20008C012F008500D02F4CF07F0F3CF45
:104EC00006F009500E02F4CF09F0F3CF08F00D02FE
:104ED000F3500726F4500822E86A092212500E0205
:0E4EE000F3500726F4500822E86A0922000C5D
:024EEE00D9CF1A
:104EF000E6FFDACFE6FFE1CFD9FFE2CFDAFFE652F5
:104F0000E652FC0EDBCFDEFFDBCFDDFF010EDB5018
:104F1000D76EDF50D66EE552E552E552E5CFDAFFA7
:064F2000E7CFD9FF1200EB
:0A4F2600D9CFE6FFDACFE6FFE1CFB6
:104F3000D9FFE2CFDAFFFD0EDB507F0BD56ED76ACB
:104F4000D66AF294FD0EDBAE02D0F28A01D0F29A5C
:0E4F5000D58EE552E5CFDAFFE7CFD9FF12008C
:024F5E00FF0E44
:104F6000E350186E480E01D04C0EE76EE72EFED7C8
:0E4F7000E76AE72EFED7182EF7D700001200D2
:024F7E00000E23
:104F8000F36E00EE00F0060E01D81200EA6002D0C7
:0E4F9000EE6AFCD7F350E9601200EE6AFCD71F
:024F9E0010EE13
:104FA00080F020EE80F0F86A019CE6EC25F005EC3C
:0A4FB00028F0CFEC24F0FBD712002C
:064FBA00056A080EE76E17
:104FC000D890093605360E50055C02E3056E092AB5
:064FD000E72EF7D71200E6
:0A4FD6000401F66B12000401F60559
:104FE00003E1F66B8D9403D0010EF66F8D841200F1
:104FF00020202020202020202020202020202020B1
:0150000000AF
:0150010000AE
:06500200A6B2FED7120069
:0250080084031F
:02500A00120092
:04500C0000000000A0
:105010000000000000000000000000000000000090
:105020000000000000000000000000000000000080
:10503000FF00000000000000000000000000000071
:105040000000000000000000000000000000000060
:105050000000000000000000000000000000000050
:105060000000000000000000000000000000000040
:1050700000000000FF000000000000000000000031
:105080000000000000000000000000000000000020
:065090000000000000FF1B
:0A5096000000000000000000000010
:1050A0000000000000000000000000000000000000
:1050B00000000000000000000000000000000000F0
:1050C00000000000000000000000000000000000E0
:1050D00000000000000000000000000000000000D0
:1050E00000000000000000000000000000000000C0
:1050F00000000000000000000000000000000000B0
:10510000000000000000000000000000000000009F
:10511000000000000000000000000000000000008F
:10512000000000000000000000000000000000007F
:10513000000000000000000000000000000000006F
:10514000000000000000000000000000000000005F
:10515000000000000000000000000000000000004F
:10516000000000000000000000000000000000003F
:10517000000000000000000000000000000000002F
:10518000000000000000000000000000000000001F
:10519000000000000000000000000000000000000F
:1051A00000000000000000000000000000000000FF
:1051B00000000000000000000000000000000000EF
:1051C00000000000000000000000000000000000DF
:1051D00000000000000000000000000000000000CF
:1051E00000000000000000000000000000000000BF
:0F51F000000000000000000000000000000000B0
:0151FF0000AF
:10520000000000000000000000000000000000009E
:10521000000000000000000000000000000000008E
:10522000000000000000000000000000000000007E
:10523000000000000000000000000000000000006E
:10524000000000000000000000000000000000005E
:10525000000000000000000000000000000000004E
:10526000000000000000000000000000000000003E
:10527000000000000000000000000000000000002E
:10528000000000000000000000000000000000001E
:10529000000000000000000000000000000000000E
:1052A00000000000000000000000000000000000FE
:1052B00000000000000000000000000000000000EE
:1052C00000000000000000000000000000000000DE
:1052D00000000000000000000000000000000000CE
:1052E00000000000000000000000000000000000BE
:1052F00000000000000000000000000000000000AE
:10530000000000000000000000000000000000009D
:10531000000000000000000000000000000000008D
:10532000000000000000000000000000000000007D
:10533000000000000000000000000000000000006D
:10534000000000000000000000000000000000005D
:10535000000000000000000000000000000000004D
:10536000000000000000000000000000000000003D
:10537000000000000000000000000000000000002D
:10538000000000000000000000000000000000001D
:10539000000000000000000000000000000000000D
:1053A00000000000000000000000000000000000FD
:1053B00000000000000000000000000000000000ED
:0C53C000000000000000000000000000E1
:0453CC0000000000DD
:1053D00000000000000000000000000000000000CD
:0A53E00000000000C80000000000FB
:0653EA00000000000000BD
:1053F00000000000000000000000000000000000AD
:0C540000000000000000000000000000A0
:04540C00000000009C
:10541000000000000000000000000000000000008C
:10542000000000000000000000000000000000007C
:10543000000000000000000000000000000000006C
:10544000000000000000000000000000000000005C
:10545000000000000000000000000000000000004C
:10546000000000000000000000000000000000003C
:10547000000000000000000000000000000000002C
:045480000000000028
:095484004944454F4E49435300D1
:03548D00FF00001D
:02549000FFFF1C
:0E549200024BFE4AF54AEB4AE44ADA4AD24A95
:1054A000C44ABB4AAF4AA84A9B4A914A814A7A4AAF
:020000040030CA
:0100010008F6
:010002001BE2
:0100030012EA
:010005008179
:010006008178
:010008000FE8
:01000900C036
:01000A000FE6
:01000B00E014
:01000C000FE4
:01000D0040B2
:00000001FF
