:020000040000FA
:0600000007EF28F01200DA
:08000800F2A402D0ABEF24F0DA
:100010009EAA02D082EF22F01200D08EF28E120041
:06002A000C00045500006B
:10003000BD0400001E00000002550000F304000093
:1000400002000000F14A0000F80400000100000076
:10005000FD540000EE04000005000000F454000010
:10006000E5040000090000007C54000000050000C9
:10007000780000005A5400008A04000022000000AA
:100080003C540000E20500001E0000006F5200001A
:1000900000010000CD01000070510000CD02000001
:1000A000FF00000006510000780500006A00000013
:0C00B0007C500000000400008A000000EA
:0400BC00D9CFE6FFB3
:1000C000E1CFD9FF0A0EE126050EDB6A060EDB6AD8
:1000D000070EDB6A080EDB6A090EDB6A0101036B9F
:1000E000046B056B066B0101076B086B096B0A6BF0
:1000F0000201D16BDE6ADD6ADECF14F0DDCF15F0D0
:100100000F0E145C000E155801E3AED0DECF14F0D4
:10011000DDCF15F01D0E1502F3CF15F01D0E1402E4
:10012000F3CF14F0F4501526170E1426010E1522E5
:10013000030E14C0DBFF040E15C0DBFF020EDB6AEA
:100140001D0EF36E020EDBCFF4FFF350F45C35E2CC
:1001500039EC28F00400020EDB50166E176A1D0EF3
:10016000086E096ADECF0DF0DDCF0EF081EC27F0CE
:1001700006501624146E07501720156E14C0E6FFA3
:1001800015C0E6FF40EC27F0E552E552E66E020EA0
:10019000DB50E76E030EDBCFE9FF040EDBCFEAFF97
:1001A000E750E926000EEA22E552E750EF6E39ECFF
:1001B00028F00400020EDB2AC3D7DECFE9FFDDCF33
:1001C000EAFF1D0EEA02F3CFEAFF1D0EE902F3CFAC
:1001D000E9FFF450EA26170EE926010EEA221B0E6B
:1001E000E926000EEA22EF0402E10101012BDECF35
:1001F000E9FFDDCFEAFF1D0EEA02F3CFEAFF1D0E95
:10020000E902F3CFE9FFF450EA26170EE926010EC2
:10021000EA221B0EE926000EEA22EF50030802E153
:100220000101022BDECFE9FFDDCFEAFF1D0EEA025E
:10023000F3CFEAFF1D0EE902F3CFE9FFF450EA26FF
:10024000170EE926010EEA221C0EE926000EEA220C
:10025000EF0405E1010EF36E050EF3CFDBFFDF2A9D
:10026000010E01E3DB2A48D701010251000806E232
:10027000010EF36E080EF3CFDBFF0FD00101015129
:10028000000806E2010EF36E070EF3CFDBFF05D088
:10029000010EF36E060EF3CFDBFF050EDB0405E166
:1002A000010EF36E090EF3CFDBFF0201060ECC6FD9
:1002B00039EC28F00400E66AE66AE66AE66A2CECA5
:1002C00011F0E552E552E552E55231D80201010E36
:1002D000CA6F090EDBCFE6FF080EDBCFE6FF070E85
:1002E000DBCFE6FF060EDBCFE6FF2CEC11F0E5528C
:1002F000E552E552E5526C0EE66E270EE66EDD0E17
:10030000E66ECC0EE66EBB0EE66EAA0EE66E6EECE8
:100310001CF0146E060EE15E14500A0EE15C02E25F
:10032000E16AE552E16EE552E7CFD9FF1200D9CF7D
:10033000E6FFE1CFD9FF050EE126DF6A010EDB6A99
:10034000020EDB6A030EDB6A01010251000808E2BB
:10035000030E006F010EF36E020EF3CFDBFF0DD024
:100360000151000805E2010E006FDE52DD6E05D07E
:10037000006B010EDF6E030EDB6A040EDB6A0F0EEC
:10038000F36E040EDBCFF4FFF350F45C1AE2040EBC
:10039000DB501D0DF3CFE9FFF4CFEAFF170EE9267E
:1003A000010EEA221C0EE926000EEA22EF0406E105
:1003B000010EF36E030EF3CFDBFF03D0040EDB2A36
:1003C000DED7030EDBCFE6FF020EDBCFE6FF010E2A
:1003D000DBCFE6FFDFCFE6FF2CEC11F0E552E55274
:1003E000E552E552050EE15C02E2E16AE552E16E9A
:1003F000E552E7CFD9FF1200D9CFE6FFE1CFD9FF11
:10040000050EE126DF6A010EDB6A020EDB6A030ECF
:10041000DB6A01010251000808E2030E006F010EC1
:10042000F36E020EF3CFDBFF0DD00151000805E2A1
:10043000010E006FDE52DD6E05D0006B010EDF6E27
:10044000030EDB6A030EDBCFE6FF020EDBCFE6FF17
:10045000010EDBCFE6FFDFCFE6FF2CEC11F0E5521B
:10046000E552E552E5520201010ECA6F146E050E07
:10047000E15C03E200D0E16AE552E16E1450E5521E
:10048000E7CFD9FF1200D9CFE6FFE1CFD9FF050EA4
:10049000E126DF6A010EDB6A020EDB6A030EDB6A0D
:1004A000FD0EDBCFE6FFFE0EDBCFE6FF120EE66EA3
:1004B000010EE66E43EC24F0E552E552E552E552BA
:1004C000000902E0000E1FD0030EDBCFE6FF020E94
:1004D000DBCFE6FF010EDBCFE6FFDFCFE6FF2CEC44
:1004E00011F0E552E552E552E552FB0EDBCFE6FF97
:1004F000FC0EDBCFE6FFDCEC10F0E552E55202012A
:10050000CA6B010E00D0146E050EE15C02E2E16AD6
:10051000E552E16E1450E552E7CFD9FF1200D9CF72
:10052000E6FFE1CFD9FF090EE126010EF36E080EBA
:10053000F3CFDBFF9DEC25F006C007F107C008F103
:1005400008C009F109C00AF1030EE96E010EEA6E56
:10055000EE50010107190CE1EE500101081908E104
:10056000EE500101091904E1EE5001010A1900E100
:1005700001E1BBD007C103F108C104F109C105F1D4
:100580000AC106F1DF6A0F0EDF5C01E3A4D0DF5081
:100590001D0DF3CFE9FFF4CFEAFF170EE926010E98
:1005A000EA221B0EE926000EEA22EF0401E091D0B8
:1005B000DF501D0DF3CFE9FFF4CFEAFF170EE92658
:1005C000010EEA22190EE926000EEA22EE06000EBE
:1005D000ED5ADF501D0DF3CFE9FFF4CFEAFF170E00
:1005E000E926010EEA22190EE926000EEA22E9CFD9
:1005F00014F0EACF15F0010E14C0DBFF020E15C097
:10060000DBFF010EDBCFE9FF020EDBCFEAFF030EBB
:10061000EFCFDBFF1D0EDF02F350190F146E040E37
:1006200014C0DBFF050EDB6A060EDB6A070EDB6A11
:10063000010EDBCFE9FF020EDBCFEAFFEF50E66EE3
:100640001D0EDF02F350190FE66EE66AA2EC26F0EB
:10065000E552E552E55239EC28F00400010EE76E50
:10066000010EDBCFE9FF020EDBCFEAFFE750E92600
:10067000000EEA22030EEFCFDBFF1D0EDF02F35068
:10068000190F010F146E040E14C0DBFF050EDB6A98
:10069000060EDB6A070EDB6A010EE76E010EDBCF8A
:1006A000E9FF020EDBCFEAFFE750E926000EEA225F
:1006B000EF50E66E1D0EDF02F350190F010FE66ECC
:1006C000E66AA2EC26F0E552E552E55239EC28F054
:1006D0000400DF2A58D7FEEC11F0010806E18A86F3
:1006E0000101015102E18A988A9A090EE15C02E255
:1006F000E16AE552E16EE552E7CFD9FF1200D9CFAA
:10070000E6FFE1CFD9FF040EE126FD0EDBCFE9FFC6
:10071000FE0EDBCFEAFF200EE926000EEA22EF28CC
:10072000DF6E010EDB6A020EDB6A0F0EDF5C01E397
:10073000DF6AFD0EDBCFE9FFFE0EDBCFEAFF200E06
:10074000E926000EEA22EF68030EDB6A0F0EF36E55
:10075000030EDBCFF4FFF350F45C01E3CBD30F0EB9
:10076000146E14C00EF0DFCF09F015EC28F0055020
:10077000DF6EDF501D0DF3CFE9FFF4CFEAFF170E58
:10078000E926010EEA221B0EE926000EEA22EF50AE
:1007900010E0DF501D0DF3CFE9FFF4CFEAFF170E95
:1007A000E926010EEA221C0EE926000EEA22EF508D
:1007B00004E1030EDB2ADF2AC9D7FD0EDBCFE9FFF8
:1007C000FE0EDBCFEAFFE9CF14F0EACF15F0010E01
:1007D000DBCFF3FFDB2AF3500F011424E96E000E88
:1007E0001520EA6E530EEF6EFD0EDBCFE9FFFE0E15
:1007F000DBCFEAFFE9CF14F0EACF15F0010EDBCF33
:10080000F3FFDB2AF3501424E96E000E1520EA6E84
:10081000540EEF6EFD0EDBCFE9FFFE0EDBCFEAFFDD
:10082000E9CF14F0EACF15F0010EDBCFF3FFDB2A9E
:10083000F3501424E96E000E1520EA6E4E0EEF6E92
:10084000FD0EDBCFE9FFFE0EDBCFEAFFE9CF14F0B0
:10085000EACF15F0010EDBCFF3FFDB2AF3501424AF
:10086000E96E000E1520EA6E3A0EEF6EDF501D0D98
:10087000F3CFE9FFF4CFEAFF170EE926010EEA22D3
:10088000E9CF16F0EACF17F0020EDBCFF3FFDB2A39
:10089000F3501624E96E000E1720EA6EEF50E66E54
:1008A000FD0EDBCFE9FFFE0EDBCFEAFFE9CF14F050
:1008B000EACF15F0010EDBCFF3FFDB2AF35014244F
:1008C000E96E000E1520EA6EE552E750EF6EDF503C
:1008D0001D0DF3CFE9FFF4CFEAFF170EE926010E55
:1008E000EA22E9CF16F0EACF17F0020EDBCFF3FFD2
:1008F000DB2AF3501624E96E000E1720EA6EEF5043
:10090000E66EFD0EDBCFE9FFFE0EDBCFEAFFE9CF9F
:1009100014F0EACF15F0010EDBCFF3FFDB2AF35022
:100920001424E96E000E1520EA6EE552E750EF6ED2
:10093000FD0EDBCFE9FFFE0EDBCFEAFFE9CF14F0BF
:10094000EACF15F0010EDBCFF3FFDB2AF3501424BE
:10095000E96E000E1520EA6E3B0EEF6EDF501D0DA6
:10096000F3CFE9FFF4CFEAFF170EE926010EEA22E2
:10097000E9CF14F0EACF15F0020EDB501424E96E33
:10098000000E1520EA6EEF50340A01E1AED1070ADD
:1009900001E194D1010A01E1E0D0030A01E040D273
:1009A000FD0EDBCFE9FFFE0EDBCFEAFFE9CF14F04F
:1009B000EACF15F0010EDBCFF3FFDB2AF35014244E
:1009C000E96E000E1520EA6E420EEF6EFD0EDBCFD3
:1009D000E9FFFE0EDBCFEAFFE9CF14F0EACF15F016
:1009E000010EDBCFF3FFDB2AF3501424E96E000E77
:1009F0001520EA6E520EEF6EFD0EDBCFE9FFFE0E04
:100A0000DBCFEAFFE9CF14F0EACF15F0010EDBCF20
:100A1000F3FFDB2AF3501424E96E000E1520EA6E72
:100A2000450EEF6EFD0EDBCFE9FFFE0EDBCFEAFFDA
:100A3000E9CF14F0EACF15F0010EDBCFF3FFDB2A8C
:100A4000F3501424E96E000E1520EA6E410EEF6E8D
:100A5000FD0EDBCFE9FFFE0EDBCFEAFFE9CF14F09E
:100A6000EACF15F0010EDBCFF3FFDB2AF35014249D
:100A7000E96E000E1520EA6E4B0EEF6EFD0EDBCF19
:100A8000E9FFFE0EDBCFEAFFE9CF14F0EACF15F065
:100A9000010EDBCFF3FFDB2AF3501424E96E000EC6
:100AA0001520EA6E440EEF6EFD0EDBCFE9FFFE0E61
:100AB000DBCFEAFFE9CF14F0EACF15F0010EDBCF70
:100AC000F3FFDB2AF3501424E96E000E1520EA6EC2
:100AD0004F0EEF6EFD0EDBCFE9FFFE0EDBCFEAFF20
:100AE000E9CF14F0EACF15F0010EDBCFF3FFDB2ADC
:100AF000F3501424E96E000E1520EA6E570EEF6EC7
:100B0000FD0EDBCFE9FFFE0EDBCFEAFFE9CF14F0ED
:100B1000EACF15F0010EDBCFF3FFDB2AF3501424EC
:100B2000E96E000E1520EA6E4E0EEF6EFD0EDBCF65
:100B3000E9FFFE0EDBCFEAFFE9CF14F0EACF15F0B4
:100B4000010EDBCFF3FFDB2AF3501424E96E000E15
:100B50001520EA6E3B0EEF6E63D1FD0EDBCFE9FF91
:100B6000FE0EDBCFEAFFE9CF14F0EACF15F0010E5D
:100B7000DBCFF3FFDB2AF3501424E96E000E1520BF
:100B8000EA6E510EEF6EFD0EDBCFE9FFFE0EDBCFFE
:100B9000EAFFE9CF14F0EACF15F0010EDBCFF3FF47
:100BA000DB2AF3501424E96E000E1520EA6E550E70
:100BB000EF6EFD0EDBCFE9FFFE0EDBCFEAFFE9CFE4
:100BC00014F0EACF15F0010EDBCFF3FFDB2AF35070
:100BD0001424E96E000E1520EA6E410EEF6EFD0E34
:100BE000DBCFE9FFFE0EDBCFEAFFE9CF14F0EACF5F
:100BF00015F0010EDBCFF3FFDB2AF3501424E96E6E
:100C0000000E1520EA6E4C0EEF6EFD0EDBCFE9FFF5
:100C1000FE0EDBCFEAFFE9CF14F0EACF15F0010EAC
:100C2000DBCFF3FFDB2AF3501424E96E000E15200E
:100C3000EA6E490EEF6EFD0EDBCFE9FFFE0EDBCF55
:100C4000EAFFE9CF14F0EACF15F0010EDBCFF3FF96
:100C5000DB2AF3501424E96E000E1520EA6E540EC0
:100C6000EF6EFD0EDBCFE9FFFE0EDBCFEAFFE9CF33
:100C700014F0EACF15F0010EDBCFF3FFDB2AF350BF
:100C80001424E96E000E1520EA6E590EEF6EFD0E6B
:100C9000DBCFE9FFFE0EDBCFEAFFE9CF14F0EACFAE
:100CA00015F0010EDBCFF3FFDB2AF3501424E96EBD
:100CB000000E1520EA6E3B0EEF6EB2D0FD0EDBCFBC
:100CC000E9FFFE0EDBCFEAFFE9CF14F0EACF15F023
:100CD000010EDBCFF3FFDB2AF3501424E96E000E84
:100CE0001520EA6E230EEF6E9BD0FD0EDBCFE9FFE1
:100CF000FE0EDBCFEAFFE9CF14F0EACF15F0010ECC
:100D0000DBCFF3FFDB2AF3501424E96E000E15202D
:100D1000EA6E4F0EEF6EFD0EDBCFE9FFFE0EDBCF6E
:100D2000EAFFE9CF14F0EACF15F0010EDBCFF3FFB5
:100D3000DB2AF3501424E96E000E1520EA6E540EDF
:100D4000EF6EFD0EDBCFE9FFFE0EDBCFEAFFE9CF52
:100D500014F0EACF15F0010EDBCFF3FFDB2AF350DE
:100D60001424E96E000E1520EA6E480EEF6EFD0E9B
:100D7000DBCFE9FFFE0EDBCFEAFFE9CF14F0EACFCD
:100D800015F0010EDBCFF3FFDB2AF3501424E96EDC
:100D9000000E1520EA6E450EEF6EFD0EDBCFE9FF6B
:100DA000FE0EDBCFEAFFE9CF14F0EACF15F0010E1B
:100DB000DBCFF3FFDB2AF3501424E96E000E15207D
:100DC000EA6E520EEF6EFD0EDBCFE9FFFE0EDBCFBB
:100DD000EAFFE9CF14F0EACF15F0010EDBCFF3FF05
:100DE000DB2AF3501424E96E000E1520EA6E530E30
:100DF000EF6EFD0EDBCFE9FFFE0EDBCFEAFFE9CFA2
:100E000014F0EACF15F0010EDBCFF3FFDB2AF3502D
:100E10001424E96E000E1520EA6E3B0EEF6E00D032
:100E2000020EDB2ADF501D0DF3CFE9FFF4CFEAFFFE
:100E3000170EE926010EEA22E9CF14F0EACF15F0E9
:100E4000020EDB501424E96E000E1520EA6EEF50FE
:100E500030E0DF501D0DF3CFE9FFF4CFEAFF170EAE
:100E6000E926010EEA22E9CF16F0EACF17F0020ECA
:100E7000DB501624E96E000E1720EA6EEF50E66E86
:100E8000FD0EDBCFE9FFFE0EDBCFEAFFE9CF14F06A
:100E9000EACF15F0010EDB501424E96E000E152088
:100EA000EA6EE552E750EF6E010EDB2A020EDB2AF6
:100EB000B9D7FD0EDBCFE9FFFE0EDBCFEAFFE9CFAE
:100EC00014F0EACF15F0010EDB501424E96E000E89
:100ED0001520EA6EEF6ADFCFCBF2FD0EDBCFE9FF24
:100EE000FE0EDBCFEAFF200EE926000EEA22CBC27F
:100EF000EFFF00D0040EE15C02E2E16AE552E16E30
:100F0000E552E7CFD9FF1200D9CFE6FFE1CFD9FFF5
:100F1000040EE126FD0EDBCFE9FFFE0EDBCFEAFF7C
:100F2000200EE926000EEA22EF28DF6E010EDB6AB2
:100F3000020EDB6A0F0EDF5C01E3DF6AFD0EDBCF22
:100F4000E9FFFE0EDBCFEAFF200EE926000EEA22C3
:100F5000EF68030EDB6A0F0EF36E030EDBCFF4FFB8
:100F6000F350F45C01E3CBD30F0E146E14C00EF0FB
:100F7000DFCF09F015EC28F00550DF6EDF501D0DB6
:100F8000F3CFE9FFF4CFEAFF170EE926010EEA22BC
:100F90001B0EE926000EEA22EF5010E0DF501D0D77
:100FA000F3CFE9FFF4CFEAFF170EE926010EEA229C
:100FB0001C0EE926000EEA22EF0404E1030EDB2AF0
:100FC000DF2AC9D7FD0EDBCFE9FFFE0EDBCFEAFF3C
:100FD000E9CF14F0EACF15F0010EDBCFF3FFDB2AE7
:100FE000F3500F011424E96E000E1520EA6E530E23
:100FF000EF6EFD0EDBCFE9FFFE0EDBCFEAFFE9CFA0
:1010000014F0EACF15F0010EDBCFF3FFDB2AF3502B
:101010001424E96E000E1520EA6E540EEF6EFD0EDC
:10102000DBCFE9FFFE0EDBCFEAFFE9CF14F0EACF1A
:1010300015F0010EDBCFF3FFDB2AF3501424E96E29
:10104000000E1520EA6E4E0EEF6EFD0EDBCFE9FFAF
:10105000FE0EDBCFEAFFE9CF14F0EACF15F0010E68
:10106000DBCFF3FFDB2AF3501424E96E000E1520CA
:10107000EA6E3A0EEF6EDF501D0DF3CFE9FFF4CFAD
:10108000EAFF170EE926010EEA22E9CF16F0EACFB1
:1010900017F0020EDBCFF3FFDB2AF3501624E96EC4
:1010A000000E1720EA6EEF50E66EFD0EDBCFE9FF73
:1010B000FE0EDBCFEAFFE9CF14F0EACF15F0010E08
:1010C000DBCFF3FFDB2AF3501424E96E000E15206A
:1010D000EA6EE552E750EF6EDF501D0DF3CFE9FFEA
:1010E000F4CFEAFF170EE926010EEA22E9CF16F047
:1010F000EACF17F0020EDBCFF3FFDB2AF350162402
:10110000E96E000E1720EA6EEF50E66EFD0EDBCFA3
:10111000E9FFFE0EDBCFEAFFE9CF14F0EACF15F0CE
:10112000010EDBCFF3FFDB2AF3501424E96E000E2F
:101130001520EA6EE552E750EF6EFD0EDBCFE9FFBA
:10114000FE0EDBCFEAFFE9CF14F0EACF15F0010E77
:10115000DBCFF3FFDB2AF3501424E96E000E1520D9
:10116000EA6E3B0EEF6EDF501D0DF3CFE9FFF4CFBB
:10117000EAFF170EE926010EEA22E9CF14F0EACFC2
:1011800015F0020EDB501424E96E000E1520EA6EF5
:10119000EF50340A01E1AED1070A01E194D1010A0E
:1011A00001E1E0D0030A01E040D2FD0EDBCFE9FF10
:1011B000FE0EDBCFEAFFE9CF14F0EACF15F0010E07
:1011C000DBCFF3FFDB2AF3501424E96E000E152069
:1011D000EA6E420EEF6EFD0EDBCFE9FFFE0EDBCFB7
:1011E000EAFFE9CF14F0EACF15F0010EDBCFF3FFF1
:1011F000DB2AF3501424E96E000E1520EA6E520E1D
:10120000EF6EFD0EDBCFE9FFFE0EDBCFEAFFE9CF8D
:1012100014F0EACF15F0010EDBCFF3FFDB2AF35019
:101220001424E96E000E1520EA6E450EEF6EFD0ED9
:10123000DBCFE9FFFE0EDBCFEAFFE9CF14F0EACF08
:1012400015F0010EDBCFF3FFDB2AF3501424E96E17
:10125000000E1520EA6E410EEF6EFD0EDBCFE9FFAA
:10126000FE0EDBCFEAFFE9CF14F0EACF15F0010E56
:10127000DBCFF3FFDB2AF3501424E96E000E1520B8
:10128000EA6E4B0EEF6EFD0EDBCFE9FFFE0EDBCFFD
:10129000EAFFE9CF14F0EACF15F0010EDBCFF3FF40
:1012A000DB2AF3501424E96E000E1520EA6E440E7A
:1012B000EF6EFD0EDBCFE9FFFE0EDBCFEAFFE9CFDD
:1012C00014F0EACF15F0010EDBCFF3FFDB2AF35069
:1012D0001424E96E000E1520EA6E4F0EEF6EFD0E1F
:1012E000DBCFE9FFFE0EDBCFEAFFE9CF14F0EACF58
:1012F00015F0010EDBCFF3FFDB2AF3501424E96E67
:10130000000E1520EA6E570EEF6EFD0EDBCFE9FFE3
:10131000FE0EDBCFEAFFE9CF14F0EACF15F0010EA5
:10132000DBCFF3FFDB2AF3501424E96E000E152007
:10133000EA6E4E0EEF6EFD0EDBCFE9FFFE0EDBCF49
:10134000EAFFE9CF14F0EACF15F0010EDBCFF3FF8F
:10135000DB2AF3501424E96E000E1520EA6E3B0ED2
:10136000EF6E63D1FD0EDBCFE9FFFE0EDBCFEAFFB0
:10137000E9CF14F0EACF15F0010EDBCFF3FFDB2A43
:10138000F3501424E96E000E1520EA6E510EEF6E34
:10139000FD0EDBCFE9FFFE0EDBCFEAFFE9CF14F055
:1013A000EACF15F0010EDBCFF3FFDB2AF350142454
:1013B000E96E000E1520EA6E550EEF6EFD0EDBCFC6
:1013C000E9FFFE0EDBCFEAFFE9CF14F0EACF15F01C
:1013D000010EDBCFF3FFDB2AF3501424E96E000E7D
:1013E0001520EA6E410EEF6EFD0EDBCFE9FFFE0E1B
:1013F000DBCFEAFFE9CF14F0EACF15F0010EDBCF27
:10140000F3FFDB2AF3501424E96E000E1520EA6E78
:101410004C0EEF6EFD0EDBCFE9FFFE0EDBCFEAFFD9
:10142000E9CF14F0EACF15F0010EDBCFF3FFDB2A92
:10143000F3501424E96E000E1520EA6E490EEF6E8B
:10144000FD0EDBCFE9FFFE0EDBCFEAFFE9CF14F0A4
:10145000EACF15F0010EDBCFF3FFDB2AF3501424A3
:10146000E96E000E1520EA6E540EEF6EFD0EDBCF16
:10147000E9FFFE0EDBCFEAFFE9CF14F0EACF15F06B
:10148000010EDBCFF3FFDB2AF3501424E96E000ECC
:101490001520EA6E590EEF6EFD0EDBCFE9FFFE0E52
:1014A000DBCFEAFFE9CF14F0EACF15F0010EDBCF76
:1014B000F3FFDB2AF3501424E96E000E1520EA6EC8
:1014C0003B0EEF6EB2D0FD0EDBCFE9FFFE0EDBCFA1
:1014D000EAFFE9CF14F0EACF15F0010EDBCFF3FFFE
:1014E000DB2AF3501424E96E000E1520EA6E230E59
:1014F000EF6E9BD0FD0EDBCFE9FFFE0EDBCFEAFFE8
:10150000E9CF14F0EACF15F0010EDBCFF3FFDB2AB1
:10151000F3501424E96E000E1520EA6E4F0EEF6EA4
:10152000FD0EDBCFE9FFFE0EDBCFEAFFE9CF14F0C3
:10153000EACF15F0010EDBCFF3FFDB2AF3501424C2
:10154000E96E000E1520EA6E540EEF6EFD0EDBCF35
:10155000E9FFFE0EDBCFEAFFE9CF14F0EACF15F08A
:10156000010EDBCFF3FFDB2AF3501424E96E000EEB
:101570001520EA6E480EEF6EFD0EDBCFE9FFFE0E82
:10158000DBCFEAFFE9CF14F0EACF15F0010EDBCF95
:10159000F3FFDB2AF3501424E96E000E1520EA6EE7
:1015A000450EEF6EFD0EDBCFE9FFFE0EDBCFEAFF4F
:1015B000E9CF14F0EACF15F0010EDBCFF3FFDB2A01
:1015C000F3501424E96E000E1520EA6E520EEF6EF1
:1015D000FD0EDBCFE9FFFE0EDBCFEAFFE9CF14F013
:1015E000EACF15F0010EDBCFF3FFDB2AF350142412
:1015F000E96E000E1520EA6E530EEF6EFD0EDBCF86
:10160000E9FFFE0EDBCFEAFFE9CF14F0EACF15F0D9
:10161000010EDBCFF3FFDB2AF3501424E96E000E3A
:101620001520EA6E3B0EEF6E00D0020EDB2ADF5073
:101630001D0DF3CFE9FFF4CFEAFF170EE926010EE7
:10164000EA22E9CF14F0EACF15F0020EDB501424A1
:10165000E96E000E1520EA6EEF5030E0DF501D0DF0
:10166000F3CFE9FFF4CFEAFF170EE926010EEA22D5
:10167000E9CF16F0EACF17F0020EDB501624E96E20
:10168000000E1720EA6EEF50E66EFD0EDBCFE9FF8D
:10169000FE0EDBCFEAFFE9CF14F0EACF15F0010E22
:1016A000DB501424E96E000E1520EA6EE552E75077
:1016B000EF6E010EDB2A020EDB2AB9D7FD0EDBCF5F
:1016C000E9FFFE0EDBCFEAFFE9CF14F0EACF15F019
:1016D000010EDB501424E96E000E1520EA6EEF6A4D
:1016E000DFCFCBF2FD0EDBCFE9FFFE0EDBCFEAFF53
:1016F000200EE926000EEA22CBC2EFFF00D0040E36
:10170000E15C02E2E16AE552E16EE552E7CFD9FF22
:101710001200D9CFE6FFE1CFD9FF070EE126FE0E7A
:10172000DB501D0DF3CFE9FFF4CFEAFF170EE926DA
:10173000010EEA221B0EE926000EEA22EF5033E0EA
:10174000FE0EDB501D0DF3CFE9FFF4CFEAFF170EBD
:10175000E926010EEA22E9CF14F0EACF15F014C011
:10176000E6FF15C0E6FF050EDBCFE6FF060EDBCF7A
:10177000E6FF43EC24F0E552E552E552E55200095C
:1017800012E1FE0EDB501D0DF3CFE9FFF4CFEAFFAF
:10179000170EE926010EEA221C0EE926000EEA22A7
:1017A000EF0401E17ED1FE0EDB501D0DF3CFE9FF0A
:1017B000F4CFEAFF170EE926010EEA22E9CF14F072
:1017C000EACF15F0050E14C0DBFF060E15C0DBFFD7
:1017D00001010051030A01E190D0020A01E048D161
:1017E000050EDBCFE6FF060EDBCFE6FF4CEC11F07B
:1017F000E552E552E76E020EE7CFDBFF020EDB504B
:10180000FF0801E179D0050EDBCFE6FF060EDBCF46
:10181000E6FFDCEC10F0E552E552190EE66EE66AE2
:10182000E66A020EDB501D0DF3CFE9FFF4CFEAFFAD
:10183000170EE926010EEA22E9CF14F0EACF15F0DF
:1018400014C0E6FF15C0E6FF29EC24F0166E050E65
:10185000E15E16500400020EDB501D0DF3CF14F0B4
:10186000F4CF15F0170E1426010E1522030E14C026
:10187000DBFF040E15C0DBFF010EDB6A1D0EF36EED
:10188000010EDBCFF4FFF350F45C25E2010EDB50D8
:10189000E76E030EDBCFE9FF040EDBCFEAFFE75074
:1018A000E926000EEA22EF50E66E010EDBCFE6FFDE
:1018B000020EDB501D0DF350E552E724E66EE66A9A
:1018C000A2EC26F0E552E552E55239EC28F004008E
:1018D000010EDB2AD3D7010101510DE10101006B9B
:1018E000E66AE66AE66A010EE66E2CEC11F0E55255
:1018F000E552E552E552D5D0BCD0050EDBCFE6FF70
:10190000060EDBCFE6FF4CEC11F0E552E552E76E38
:10191000020EE7CFDBFF020EDB50FF0801E1A7D08C
:10192000050EDBCFE6FF060EDBCFE6FFDCEC10F0AA
:10193000E552E552190EE66EE66AE66A020EDB50E3
:101940001D0DF3CFE9FFF4CFEAFF170EE926010ED4
:10195000EA22E9CF14F0EACF15F014C0E6FF15C073
:10196000E6FF29EC24F0166E050EE15E1650040029
:10197000020EDB501D0DF3CF14F0F4CF15F0170E4F
:101980001426010E1522030E14C0DBFF040E15C031
:10199000DBFF010EDB6A1D0EF36E010EDBCFF4FFE1
:1019A000F350F45C25E2010EDB50E76E030EDBCF53
:1019B000E9FF040EDBCFEAFFE750E926000EEA223A
:1019C000EF50E66E010EDBCFE6FF020EDB501D0D81
:1019D000F350E552E724E66EE66AA2EC26F0E55203
:1019E000E552E55239EC28F00400010EDB2AD3D78A
:1019F0000101025120E1010101510EE10101006BE1
:101A0000E66AE66AE66A010EE66E2CEC11F0E55233
:101A1000E552E552E5520ED00101010E006FE66A73
:101A2000E66A010EE66EE66A2CEC11F0E552E5522C
:101A3000E552E5521BD0010101510CE1E66A010EAD
:101A4000E66EE66AE66A2CEC11F0E552E552E552E4
:101A5000E5520CD0E66A010EE66E010EE66EE66A0D
:101A60002CEC11F0E552E552E552E5521AD001D0C6
:101A700000D0DF6A0F0EDF5C14E2DF501D0DF3CFE4
:101A8000E9FFF4CFEAFF170EE926010EEA221C0E49
:101A9000E926000EEA22EF0402E18C8002D0DF2A60
:101AA000E9D7070EE15C02E2E16AE552E16EE55238
:101AB000E7CFD9FF1200D9CFE6FFE1CFD9FF050E5E
:101AC000E126DF6A0F0EDF5C33E2DF501D0DF3CF3E
:101AD000E9FFF4CFEAFF170EE926010EEA221B0EFA
:101AE000E926000EEA22EF5021E0DF501D0DF3CF72
:101AF000E9FFF4CFEAFF170EE926010EEA22E9CF4B
:101B000014F0EACF15F014C0E6FF15C0E6FFFD0E95
:101B1000DBCFE6FFFE0EDBCFE6FF43EC24F0E55221
:101B2000E552E552E552000901E1DFD0DF2ACAD7CC
:101B3000DF6A0F0EDF5C01E3D2D0DF501D0DF3CF63
:101B4000E9FFF4CFEAFF170EE926010EEA221B0E89
:101B5000E926000EEA22EF5001E0BFD0DF501D0D54
:101B6000F3CFE9FFF4CFEAFF170EE926010EEA22D0
:101B70001B0EE926000EEA22010EEF6E780EF66EBD
:101B8000500EF76E0900F5CF14F00800F5CF15F0F0
:101B9000DF501D0DF3CFE9FFF4CFEAFF170EE92662
:101BA000010EEA22190EE926000EEA2214C0EEFF09
:101BB00015C0EDFFDF501D0DF3CFE9FFF4CFEAFFB5
:101BC000170EE926010EEA221C0EE926000EEA2273
:101BD000010EEF6EFD0EDBCFE6FFFE0EDBCFE6FF64
:101BE000DF501D0DF3CFE9FFF4CFEAFF170EE92612
:101BF000010EEA22E9CF14F0EACF15F014C0E6FF97
:101C000015C0E6FF63EC24F0E552E552E552E552DB
:101C1000DF501D0DF3CF14F0F4CF15F0170E14267E
:101C2000010E1522030E14C0DBFF040E15C0DBFFEE
:101C3000010EDB6A1D0EF36E010EDBCFF4FFF350D5
:101C4000F45C24E2010EDB50E76E030EDBCFE9FF0C
:101C5000040EDBCFEAFFE750E926000EEA22EF5040
:101C6000E66E010EDBCFE6FF1D0EDF02F350E552FC
:101C7000E724E66EE66AA2EC26F0E552E552E5526C
:101C800039EC28F00400010EDB2AD4D70101012B26
:101C9000010102510CE1010EE66EE66A010EE66EEC
:101CA000E66ADADAE552E552E552E5520CD0010E69
:101CB000E66E010EE66E010EE66EE66ACDDAE552DC
:101CC000E552E552E552FD0EDBCFE6FFFE0EDBCF1F
:101CD000E6FF72DAE552E55202D0DF2A2AD7010187
:101CE000025103E10101010E006F050EE15C02E209
:101CF000E16AE552E16EE552E7CFD9FF1200D9CF94
:101D0000E6FFE1CFD9FF050EE126020EE76EFD0EDC
:101D1000DBCFE9FFFE0EDBCFEAFFE750E926000E3E
:101D2000EA22EF5030080AE1FD0EDBCFE6FFFE0E9F
:101D3000DBCFE6FF41DAE552E5528AD1DF6A0F0ECA
:101D4000DF5C43E2DF501D0DF3CFE9FFF4CFEAFF84
:101D5000170EE926010EEA221B0EE926000EEA22E2
:101D6000EF5031E0DF501D0DF3CFE9FFF4CFEAFF74
:101D7000170EE926010EEA22E9CF14F0EACF15F09A
:101D800014C0E6FF15C0E6FFFD0EDBCFE6FFFE0E3A
:101D9000DBCFE6FF43EC24F0E552E552E552E55295
:101DA000000911E1DF501D0DF3CFE9FFF4CFEAFF89
:101DB000170EE926010EEA221C0EE926000EEA2281
:101DC000EF0401E145D1DF2ABAD701010051030A2E
:101DD00001E18AD0020A01E03AD1DF6A0F0EDF5C2E
:101DE00001E381D0FD0EDBCFE6FFFE0EDBCFE6FF89
:101DF00053DAE552E552E76E020EE7CFDBFF020E43
:101E0000DB50FF086EE0190EE66EE66AE66A020E27
:101E1000DB501D0DF3CFE9FFF4CFEAFF170EE926E3
:101E2000010EEA22E9CF14F0EACF15F014C0E6FF64
:101E300015C0E6FF29EC24F0166E050EE15E165083
:101E40000400020EDB501D0DF3CF14F0F4CF15F09B
:101E5000170E1426010E1522030E14C0DBFF040E0C
:101E600015C0DBFF010EDB6A1D0EF36E010EDBCF2A
:101E7000F4FFF350F45C25E2010EDB50E76E030E35
:101E8000DBCFE9FF040EDBCFEAFFE750E926000EC7
:101E9000EA22EF50E66E010EDBCFE6FF020EDB50CA
:101EA0001D0DF350E552E724E66EE66AA2EC26F03B
:101EB000E552E552E55239EC28F00400010EDB2A28
:101EC000D3D7010101510CE10101006BE66AE66A1A
:101ED000E66A010EE66EC0D9E552E552E552E552DA
:101EE000B7D0DF2A7BD7B4D0DF6A0F0EDF5C01E307
:101EF000ADD0FD0EDBCFE6FFFE0EDBCFE6FFCCD98B
:101F0000E552E552E76E020EE7CFDBFF020EDB5033
:101F1000FF0801E199D0190EE66EE66AE66A020E44
:101F2000DB501D0DF3CFE9FFF4CFEAFF170EE926D2
:101F3000010EEA22E9CF14F0EACF15F014C0E6FF53
:101F400015C0E6FF29EC24F0166E050EE15E165072
:101F50000400020EDB501D0DF3CF14F0F4CF15F08A
:101F6000170E1426010E1522030E14C0DBFF040EFB
:101F700015C0DBFF010EDB6A1D0EF36E010EDBCF19
:101F8000F4FFF350F45C25E2010EDB50E76E030E24
:101F9000DBCFE9FF040EDBCFEAFFE750E926000EB6
:101FA000EA22EF50E66E010EDBCFE6FF020EDB50B9
:101FB0001D0DF350E552E724E66EE66AA2EC26F02A
:101FC000E552E552E55239EC28F00400010EDB2A17
:101FD000D3D7010102511EE1010101510DE10101BF
:101FE000006BE66AE66AE66A010EE66E35D9E552EE
:101FF000E552E552E5520DD00101010E006FE66A8F
:10200000E66A010EE66EE66A27D9E552E552E55228
:10201000E55219D0010101510BE1E66A010EE66EAD
:10202000E66AE66A19D9E552E552E552E5520BD067
:10203000E66A010EE66E010EE66EE66A0DD9E5521D
:10204000E552E552E55204D0DF2A4FD701D000D047
:10205000050EE15C02E2E16AE552E16EE552E7CF8E
:10206000D9FF1200D9CFE6FFE1CFD9FF020EE1265A
:102070000201D151D05D0BE1FD0EDBCFE9FFFE0E79
:10208000DBCFEAFFEE6AED6A010EDB6A2FD0D0519A
:10209000190DF3CF14F0F4CF15F0D20E1426020E62
:1020A0001522FD0EDBCFE9FFFE0EDBCFEAFF14C0E9
:1020B000EEFF15C0EDFFD051190DF3CF14F0F4CFA2
:1020C00015F0D20E1426020E152214C0E6FF15C01C
:1020D000E6FF9DEC24F0E552E552010EF3CFDBFF65
:1020E0000201D02B0A0ED05D01E3D06B010EDB5054
:1020F000146E020EE15C03E200D0E16AE552E16E8B
:102100001450E552E7CFD9FF1200D9CFE6FFE1CF57
:10211000D9FF0201CD0502E1000E0AD0010ECD6FFC
:10212000FE0EDBCFCFF2FD0EDBCFCEF2010E00D0E4
:10213000E552E7CFD9FF1200D9CFE6FFE1CFD9FFB3
:10214000E652FE0EDB501D0DF3CFE9FFF4CFEAFFA0
:10215000170EE926010EEA221C0EE926000EEA22DD
:10216000EF6ADF6A0F0EDF5C21E2DF501D0DF3CF57
:10217000E9FFF4CFEAFF170EE926010EEA221C0E52
:10218000E926000EEA22EF040FE1DF501D0DF3CF28
:10219000E9FFF4CFEAFF170EE926010EEA221C0E32
:1021A000E926000EEA22EF6ADF2ADCD78C90E5529E
:1021B000E552E7CFD9FF1200D9CFE6FFE1CFD9FF33
:1021C000E652DF6AFD0EDBCFE9FFFE0EDBCFEAFF52
:1021D000EF5024E0FD0EDBCFE9FFFE0EDBCFEAFF80
:1021E000EF50E66E0201D151190DF3CF14F0F4CF88
:1021F00015F0D20E1426020E1522DF500F01142402
:10220000E96E000E1520EA6EE552E750EF6EDF2A08
:10221000FD0EDB2AFE0E01E3DB2AD4D70201D151E9
:10222000190DF3CF14F0F4CF15F0D20E1426020ED0
:102230001522DF500F011424E96E000E1520EA6EFE
:10224000EF6A0201D12B0A0ED15D01E3D16BE55299
:10225000E552E7CFD9FF1200D9CFE6FFE1CFD9FF92
:10226000FE0EDB50E8B08A8AE8A08A9AFD0EDB50A9
:10227000E8B08A88E8A08A98FC0EDB50E8B08A862D
:10228000E8A08A96FB0EDB50E8B08C80E8A08C902A
:10229000E552E7CFD9FF1200D9CFE6FFE1CFD9FF52
:1022A000040EE126DF6A0F0EDF5C01E399D0DF50F8
:1022B0001D0DF3CFE9FFF4CFEAFF170EE926010E5B
:1022C000EA221B0EE926000EEA22EF5001E186D039
:1022D000DF501D0DF3CFE9FFF4CFEAFF170EE9261B
:1022E000010EEA221C0EE926000EEA22EF0476E037
:1022F000DF501D0DF3CFE9FFF4CFEAFF170EE926FB
:10230000010EEA22E9CF14F0EACF15F014C0E6FF7F
:1023100015C0E6FFFD0EDBCFE6FFFE0EDBCFE6FFCE
:1023200043EC24F0E552E552E552E552000956E14E
:10233000DF501D0DF3CFE9FFF4CFEAFF170EE926BA
:10234000010EEA221B0EE926000EEA22EF0403E149
:102350000101010713D0DF501D0DF3CFE9FFF4CFCA
:10236000EAFF170EE926010EEA221B0EE926000EEF
:10237000EA22EF50030802E101010207DF501D0DC0
:10238000F3CFE9FFF4CFEAFF170EE926010EEA22A8
:102390001B0EE926000EEA22EF6ADF501D0DF3CF77
:1023A000E9FFF4CFEAFF170EE926010EEA22190E23
:1023B000E926000EEA22EE6AED6ADF501D0DF3CF2A
:1023C000E9FFF4CFEAFF170EE926010EEA221C0E00
:1023D000E926000EEA22EF6ADF5004D0DF2A63D735
:1023E000FF0E00D0146E040EE15C02E2E16AE552D9
:1023F000E16E1450E552E7CFD9FF1200D9CFE6FFC6
:10240000E1CFD9FF020EE126010EDB6ADF6A0F0E73
:10241000DF5C5BE2DF501D0DF3CFE9FFF4CFEAFF95
:10242000170EE926010EEA221B0EE926000EEA220B
:10243000EF0449E1DF501D0DF3CFE9FFF4CFEAFFD0
:10244000170EE926010EEA22190EE926000EEA22ED
:10245000EE50ED1038E10101022B01010107DF50C0
:102460001D0DF3CFE9FFF4CFEAFF170EE926010EA9
:10247000EA221B0EE926000EEA22030EEF6EDF5061
:102480001D0DF3CFE9FFF4CFEAFF170EE926010E89
:10249000EA221B0EE926000EEA22EF50E66E1D0E20
:1024A000DF02F3501B0FE66EE66AA2EC26F0E5525F
:1024B000E552E55239EC28F004000101030E006FEB
:1024C000DE52010EDD6EDF2AA2D7010EDB5000D0F6
:1024D000146E020EE15C02E2E16AE552E16E145014
:1024E000E552E7CFD9FF1200D9CFE6FFE1CFD9FF00
:1024F000E652DF6A0F0EDF5C41E2DF501D0DF3CFC5
:10250000E9FFF4CFEAFF170EE926010EEA221B0EBF
:10251000E926000EEA22EF502FE0DF501D0DF3CF29
:10252000E9FFF4CFEAFF170EE926010EEA22E9CF10
:1025300014F0EACF15F014C0E6FF15C0E6FFFD0E5B
:10254000DBCFE6FFFE0EDBCFE6FF43EC24F0E552E7
:10255000E552E552E55200090FE1DF501D0DF3CFC2
:10256000E9FFF4CFEAFF170EE926010EEA221C0E5E
:10257000E926000EEA22EF6ADF2ABCD7E552E552CF
:10258000E7CFD9FF1200D9CFE6FFE1CFD9FFFD0E8B
:10259000DBCFE6FFFE0EDBCFE6FF0D0EE66E010E93
:1025A000E66E43EC24F0E552E552E552E5520009AF
:1025B00002E0000E02D0010E00D0E552E7CFD9FFB5
:1025C0001200D9CFE6FFE1CFD9FF020EE1260101CB
:1025D000006B0101016B0101026B0101036B046BD4
:1025E000056B066B0101076B086B096B0A6B020137
:1025F000CB6B0201D16B0201D06BDE6ADD6ADECFEC
:1026000014F0DDCF15F00F0E145C000E155870E2BB
:10261000DECFE9FFDDCFEAFF1D0EEA02F3CFEAFFCE
:102620001D0EE902F3CFE9FFF450EA26170EE92662
:10263000010EEA221B0EE926000EEA22EF6ADECF27
:10264000E9FFDDCFEAFF1D0EEA02F3CFEAFF1D0E20
:10265000E902F3CFE9FFF450EA26170EE926010E4E
:10266000EA22190EE926000EEA22EE6AED6ADECFB2
:10267000E9FFDDCFEAFF1D0EEA02F3CFEAFF1D0EF0
:10268000E902F3CFE9FFF450EA26170EE926010E1E
:10269000EA221C0EE926000EEA22EF6A190EE66E07
:1026A000E66AE66ADECFE9FFDDCFEAFF1D0EEA0249
:1026B000F3CFEAFF1D0EE902F3CFE9FFF450EA265B
:1026C000170EE926010EEA22E9CF14F0EACF15F041
:1026D00014C0E6FF15C0E6FF29EC24F0166E050EC7
:1026E000E15E16500400DF2A010E01E3DB2A87D7E2
:1026F000DE6ADD6ADECF14F0DDCF15F0B30E145CB8
:10270000FF0E155812E2E66ADECFE6FFDDCFE6FFE8
:10271000A2EC26F0E552E552E55239EC28F004002F
:10272000DF2A010E01E3DB2AE5D70201CA050BE12E
:10273000E66AE66AE66A010EE66E8EDDE552E5526D
:10274000E552E55209D0E66AE66AE66AE66A84DDA1
:10275000E552E552E552E552020EE15C02E2E16A21
:10276000E552E16EE552E7CFD9FF1200D9CFE6FF7F
:10277000E1CFD9FF030EE126FD0EDBCFE9FFFE0E10
:10278000DBCFEAFF010EEFCFDBFF020EDB6A010EAB
:10279000DB50A00A65E0010A57E0030A23E0220AA1
:1027A0000BE0020EDB6AFB0EDBCFE9FFFC0EDBCF9A
:1027B000EAFF920EEF6E5FD0F90EDBCFE6FFFA0E66
:1027C000DBCFE6FF4FDCE552E552E76E020EE7CFC6
:1027D000DBFFFB0EDBCFE9FFFC0EDBCFEAFF800E59
:1027E000EF6E49D0010EE76EFD0EDBCF14F0FE0E4A
:1027F000DBCF15F0E7501426000E152214C0E6FFBB
:1028000015C0E6FF71DEE552E552010EE76EFD0EE2
:10281000DBCF14F0FE0EDBCF15F0E7501426000ED0
:10282000152214C0E6FF15C0E6FF7FEC0EF0E5525E
:10283000E552FB0EDBCFE9FFFC0EDBCFEAFFA20E79
:10284000EF6E020EDB6A17D0BCDEFB0EDBCFE9FFBA
:10285000FC0EDBCFEAFFA10EEF6E020EDB6A0BD09F
:10286000020EDB6AFB0EDBCFE9FFFC0EDBCFEAFFDB
:10287000A00EEF6E00D0020EDB50146E030EE15C72
:1028800003E200D0E16AE552E16E1450E552E7CF71
:04289000D9FF12005A
:0C289400080EE66E03EC20F0E55284EC28
:1028A0001BF097EC1BF00401050E006F040EE66EA2
:1028B000D6EC1BF0E5521200D9CFE6FFE1CFD9FFED
:1028C0000E0EE126DF68D950020FE66E000EDA2008
:1028D000E66ED950030FE66E000EDA20E66E0FECBE
:1028E00021F0E552E552E552E552000902E10AEF16
:1028F00019F0020EDBCFE6FF030EDBCFE6FF14EC90
:1029000019F0E552E552DF6EFF0EDF5C02E10AEFDF
:1029100019F0040100510C0A02E1F0EF18F0070A67
:1029200001E1B4D3010A01E196D3070A01E15BD3C7
:10293000050A01E13FD30F0A01E161D2010A01E179
:1029400034D2030A01E1D2D1060A01E1E3D0010A3F
:1029500001E18DD0030A32E0010A02E00AEF19F02A
:102960000B0EDF5C29E1010EE66ED6EC1BF0E552A2
:1029700084EC1BF097EC1BF000C401F404014751F8
:10298000472BEA6A260FE96E040EEA22390EEF6E33
:102990004751472BEA6A260FE96E040EEA22390EE8
:1029A000EF6E4751472BEA6A260FE96E040EEA22C2
:1029B000300EEF6E010E006F0AEF19F0080EDF5CAB
:1029C0001CE1235100080CE2DFCFE6FF15EC20F0FC
:1029D000E552040123074751020801E247070CD0E2
:1029E00001510AE1E66AD6EC1BF0E55284EC1BF0DB
:1029F00097EC1BF001C400F439D00A0EDF5C18E13B
:102A00002351000814E20C0EE66ED6EC1BF0E552E2
:102A100084EC1BF004014751472BEA6A260FE96E4C
:102A2000040EEA22EF6A010E016F0B0E006F1ED03A
:102A30002351EA6A020FE96E040EEA22DFCFEFFFAC
:102A40002351EA6A020FE96E040EEA22EF50E66EA5
:102A500015EC20F0E55204014751472BEA6A260F96
:102A6000E96E040EEA22DFCFEFFF232BD3D3080E4B
:102A7000DF5C1EE1235100080CE2DFCFE6FF15EC1E
:102A800020F0E552040123074751020801E24707FD
:102A90000ED0030E015D0BE1020EE66ED6EC1BF0CC
:102AA000E55284EC1BF097EC1BF001C400F431D02C
:102AB0000A0EDF5C10E1235100080CE20C0EE66EFA
:102AC000D6EC1BF0E55284EC1BF00401020E016F02
:102AD0000B0E006F1ED02351EA6A020FE96E040E3E
:102AE000EA22DFCFEFFF2351EA6A020FE96E040EFC
:102AF000EA22EF50E66E15EC20F0E5520401475152
:102B0000472BEA6A260FE96E040EEA22DFCFEFFFB9
:102B1000232B80D3080EDF5C2BE1235100080CE24D
:102B2000DFCFE6FF15EC20F0E55204012307475103
:102B3000000801E247071BD0690EE66E040EE66E40
:102B400084EC07F0E552E552FF0E0401895D0FE0C9
:102B5000690EE66E040EE66EA8EC1BF0E552E55237
:102B600084EC1BF097EC1BF004010D0E006FBDD040
:102B7000300EDF5C35E12351000816E22351EA6A8A
:102B8000020FE96E040EEA22DFCFEFFF2351EA6A5B
:102B9000020FE96E040EEA22EF50E66E15EC20F00B
:102BA000E5520401232B1BD0480EE66E040EE66EA0
:102BB0007FEC03F0E552E552FF0E0401685D0FE083
:102BC000480EE66E040EE66EA8EC1BF0E552E552E8
:102BD00084EC1BF097EC1BF00401080E006F85D00D
:102BE0000B0EDF5C2CE1235129E1010EE66ED6ECE1
:102BF0001BF0E55284EC1BF097EC1BF004014751ED
:102C0000472BEA6A260FE96E040EEA22390EEF6EB0
:102C10004751472BEA6A260FE96E040EEA22390E65
:102C2000EF6E4751472BEA6A260FE96E040EEA223F
:102C3000300EEF6E00C401F4020E006F56D00C0E81
:102C4000DF5C1CE1480EE66E040EE66E7FEC03F0DE
:102C5000E552E552FF0E0401685D0FE0480EE66E96
:102C6000040EE66EA8EC1BF0E552E55284EC1BF076
:102C700097EC1BF00401080E006F37D00A0EDF5CE2
:102C80001FE1235100081BE20BEC1BF000090DE1D2
:102C9000020EE66ED6EC1BF0E55284EC1BF097ECCE
:102CA0001BF00401030E006F0AD0040EE66ED6EC92
:102CB0001BF0E55284EC1BF00401050E006F15D0EB
:102CC0002351EA6A020FE96E040EEA22DFCFEFFF1A
:102CD0002351EA6A020FE96E040EEA22EF50E66E13
:102CE00015EC20F0E5520401232B94D2300EDF5C6A
:102CF00014E1235111E168C4E6FF9CEC10F0E552A9
:102D0000040EE66ED6EC1BF0E55284EC1BF097EC5B
:102D10001BF00401050E006F47D04751EA6A260FE9
:102D2000E96E040EEA22300EEF6E472BDF50330AB5
:102D300029E0010A15E0030A01E036D0050EE66E2F
:102D40002AEC1CF0E55204014751EA6A260FE96EAD
:102D5000040EEA22310EEF6E472B060E006F24D0D0
:102D6000060EE66E2AEC1CF0E55204014751EA6AB1
:102D7000260FE96E040EEA22320EEF6E472B060E86
:102D8000006F12D0070EE66E2AEC1CF0E55204012B
:102D90004751EA6A260FE96E040EEA22330EEF6EFF
:102DA000472B060E006F00D035D2080EDF5C0DE118
:102DB000040EE66ED6EC1BF0E55284EC1BF0040129
:102DC000050E006F4705476F19D00A0EDF5C16E14C
:102DD00055EC1BF0260EE66E040EE66E5BEC0DF075
:102DE000E552E552040EE66ED6EC1BF0E55284EC9B
:102DF0001BF097EC1BF00401050E006F0BD2080EC0
:102E0000DF5C18E12351000808E2DFCFE6FF15EC94
:102E100020F0E552040123070CD0040EE66ED6EC38
:102E20001BF0E55284EC1BF00401050E006F010E4F
:102E3000476FBFD00A0EDF5C1AE12351000816E28B
:102E400055EC1BF0260EE66E040EE66E5BEC0DF004
:102E5000E552E552040EE66ED6EC1BF0E55284EC2A
:102E60001BF097EC1BF00401050E006FA2D0030EBF
:102E7000DB50245D6DE1140EF36E020EDBCFF4FF28
:102E8000F350F45C36E223072351EA6A020FE96E3D
:102E9000040EEA22DFCFEFFF080EE66E15EC20F0FD
:102EA000E55204012351EA6A020FE96E040EEA2298
:102EB000EF50E66E15EC20F0E552140EF36E050EA1
:102EC000F3CFDBFF060EDB6A050EDBCF14F0DB066B
:102ED000060EDBCF15F001E2DB061450151006E0FC
:102EE000080EE66ED7EC27F0E552EED70401232B4F
:102EF0002ED02351EA6A020FE96E040EEA22DFCFD8
:102F0000EFFF2351EA6A020FE96E040EEA22EF5046
:102F1000E66E15EC20F0E552140EF36E070EF3CFBB
:102F2000DBFF080EDB6A070EDBCF14F0DB06080EB2
:102F3000DBCF15F001E2DB061450151006E0080E99
:102F4000E66ED7EC27F0E552EED70401232B2ED006
:102F50002351EA6A020FE96E040EEA22DFCFEFFF87
:102F60002351EA6A020FE96E040EEA22EF50E66E80
:102F700015EC20F0E552140EF36E090EF3CFDBFFD3
:102F80000A0EDB6A090EDBCF14F0DB060A0EDBCF7C
:102F900015F001E2DB061450151006E0080EE66E8F
:102FA000D7EC27F0E552EED70401232B030EDBCF3D
:102FB00024F430D1480EE66E040EE66E7FEC03F08A
:102FC000E552E55268C4E6FF9CEC10F0E5520401BE
:102FD0006869040EE66EEADBE55296DBA8DB0401C5
:102FE000050E006F17D1080EDF5C14E1690EE66E66
:102FF000040EE66E84EC07F0E552E552FF0E040184
:10300000895D07E0690EE66E040EE66EA1DBE5520F
:10301000E55220D0300EDF5C0AE1020EE66EC6DB20
:10302000E55272DB84DB0401030E006F13D00A0E3D
:10303000DF5C10E189C4E6FF89EC0BF0E552040186
:103040008969020EE66EB2DBE5525EDB70DB0401DD
:10305000030E006FDFD0080EDF5C09E1020EE66EA2
:10306000A5DBE55251DB0401030E006F0ED00A0E02
:10307000DF5C0BE1E1EC12F047DB59DB020EE66EA0
:1030800095DBE5520401030E006FC4D0080EDF5C2F
:103090001AE1010508E1E66A89DBE55235DB47DB29
:1030A0000401006B0FD0020E015D03E0030E015D11
:1030B00009E1020EE66E7ADBE55226DB38DB04011D
:1030C000030E006F8CD00A0EDF5C01E079D0235133
:1030D000EA6A020FE96E040EEA22EF6A010528E1AE
:1030E0000B0EDB6A260EE66E040EE66E020EE66E30
:1030F000040EE66EFCEC01F0E552E552E552E552B5
:10310000E76E0B0EE7CFDBFFDB040AE1020EE66E93
:103110004DDBE552F9DA0BDB0401030E006F07D03B
:10312000E66A44DBE552F0DA02DB0401006B47D0CB
:10313000020E015D28E10C0EDB6A260EE66E040E1F
:10314000E66E020EE66E040EE66E43EC02F0E55209
:10315000E552E552E552E76E0C0EE7CFDBFFDB04EC
:1031600008E1E66A23DBE552CFDAE1DA0401006B1D
:1031700009D0020EE66E1ADBE552C6DAD8DA04018F
:10318000030E006F1CD0030E015D19E10D0EDB6A0A
:10319000020EE66E040EE66EC3EC12F0E552E55246
:1031A000E76E0D0EE7CFDBFFDB0409E10D0EE66EE7
:1031B000FDDAE552A9DABBDA04010C0E006F0FD07C
:1031C0002351EA6A020FE96E040EEA22DFCFEFFF15
:1031D0002A0EE66E15EC20F0E5520401232B1AD0DE
:1031E000080EDF5C0AE1020EE66EE0DAE5528CDAE8
:1031F0009EDA0401030E006F0CD0300EDF5C09E193
:103200000B0EE66ED3DAE5527FDA91DA04010A0E8C
:10321000006F00D00E0EE15C02E2E16AE552E16E61
:10322000E552E7CFD9FF1200D9CFE6FFE1CFD9FFB2
:10323000E652DF68040100510C0A01E1B5D1060A2B
:1032400001E19CD1010A01E18AD1020A01E163D1C5
:10325000040A01E144D1050A01E125D10F0A01E187
:10326000F0D0010A01E1D7D0030A01E1B2D0010A8E
:1032700001E19AD0070A01E17ED0010A4AE0030A7F
:1032800016E0010A01E0A9D1FE0EDB50040DF3CFD8
:10329000F6FFF4CFF7FF3C0EF6264E0EF72208009D
:1032A000F550DF6E0B0EDF5C01E0DF6896D1FE0E9D
:1032B000DB50245D10E1140EF36EFD0EDBCFF4FF46
:1032C000F350F45C06E2252B040E255D01E1256B2D
:1032D00001D0256B01D0256BFE0EDB50040DF3CF22
:1032E00014F0F4CF15F03C0E14264E0E1522255185
:1032F0000F011424F66E000E1520F76E0800F5502D
:10330000DF6E0B0EDF5C03E00C0EDF5C01E1DF68BB
:1033100064D1FE0EDB50245D10E1140EF36EFD0E41
:10332000DBCFF4FFF350F45C06E2252B040E255DA1
:1033300001E1256B01D0256B01D0256BFE0EDB5022
:10334000040DF3CF14F0F4CF15F03C0E14264E0EFE
:10335000152225510F011424F66E000E1520F76E6C
:103360000800F550DF6E0B0EDF5C03E00C0EDF5C37
:1033700001E1DF6832D1FE0EDB50040DF3CFF6FF22
:10338000F4CFF7FF3C0EF6264E0EF7220800F5505C
:10339000DF6E020E235D07E3080EDF5C04E00A0E19
:1033A000DF5C01E0DF6819D1FE0EDB50040DF3CFC6
:1033B000F6FFF4CFF7FF3C0EF6264E0EF72208007C
:1033C000F550DF6E235104E10A0EDF5C01E1DF6896
:1033D00004D1FE0EDB50040DF3CFF6FFF4CFF7FF60
:1033E0003C0EF6264E0EF7220800F550DF6E300E2A
:1033F000DF5C10E0310EDF5C0DE0320EDF5C0AE0D6
:10340000330EDF5C07E0080EDF5C04E00A0EDF5CD1
:1034100001E0DF68E2D0FE0EDB50040DF3CFF6FFD3
:10342000F4CFF7FF3C0EF6264E0EF7220800F550BB
:10343000DF6E0A0EDF5C04E0080EDF5C01E0DF688F
:10344000CCD0FE0EDB50245D10E1140EF36EFD0EA9
:10345000DBCFF4FFF350F45C06E2252B040E255D70
:1034600001E1256B01D0256B01D0256BFE0EDB50F1
:10347000040DF3CF14F0F4CF15F03C0E14264E0ECD
:10348000152225510F011424F66E000E1520F76E3B
:103490000800F550DF6E0C0EDF5C03E00B0EDF5C06
:1034A00001E1DF689AD0FE0EDB50040DF3CFF6FF8A
:1034B000F4CFF7FF3C0EF6264E0EF7220800F5502B
:1034C000DF6E0A0EDF5C0AE0080EDF5C07E00C0E20
:1034D000DF5C04E0300EDF5C01E0DF687ED0FE0ED2
:1034E000DB50040DF3CFF6FFF4CFF7FF3C0EF626CA
:1034F0004E0EF7220800F550DF6E0A0EDF5C0AE080
:10350000080EDF5C07E00C0EDF5C04E0300EDF5CD1
:1035100001E0DF6862D0FE0EDB50040DF3CFF6FF52
:10352000F4CFF7FF3C0EF6264E0EF7220800F550BA
:10353000DF6E020E235D08E20B0EDF5C03E00C0E73
:10354000DF5C01E1DF680AD0020E235D07E3080EAD
:10355000DF5C04E00A0EDF5C01E0DF683ED0FE0EB7
:10356000DB50040DF3CFF6FFF4CFF7FF3C0EF62649
:103570004E0EF7220800F550DF6E2FD0FE0EDB5006
:10358000040DF3CFF6FFF4CFF7FF3C0EF6264E0EF8
:10359000F7220800F550DF6E0A0EDF5C04E0080E2B
:1035A000DF5C01E0DF6819D0FE0EDB50040DF3CFC5
:1035B000F6FFF4CFF7FF3C0EF6264E0EF72208007A
:1035C000F550DF6E300EDF5C07E0080EDF5C04E0D4
:1035D0000A0EDF5C01E0DF6800D0DF5000D0E5526A
:1035E000E552E7CFD9FF1200D9CFE6FFE1CFD9FFEF
:1035F000FE0EDB50030A01E00AD0020EE66ED6D8BA
:10360000E55282D894D80401030E006F00D0E55231
:10361000E7CFD9FF1200D9CFE6FFE1CFD9FF020EE5
:10362000E126010EDB6A0401230513E14751EA6A32
:10363000260FE96E040EEA22300EEF6E472B47513B
:10364000EA6A260FE96E040EEA2202C4EFFF472B56
:1036500012D04751EA6A260FE96E040EEA2202C42C
:10366000EFFF472B4751EA6A260FE96E040EEA2264
:1036700003C4EFFF472B300E275D146E300E265D1E
:103680000A0DF3501424E76E010EE7CFDBFFDB5089
:10369000146E020EE15C03E200D0E16AE552E16ED5
:1036A0001450E552E7CFD9FF1200D9CFE6FFE1CFA2
:1036B000D9FFE652DF6A04012351DF5C14E2DF50D8
:1036C000EA6A020FE96E040EEA22EF50E66E4751F5
:1036D000EA6A260FE96E040EEA22E552E750EF6E21
:1036E000472BDF2AE8D74751EA6A260FE96E040E16
:1036F000EA22EF6A472B200E475D01E3476BE55254
:10370000E552E7CFD9FF1200200EE66EE66AE66AC0
:10371000020EE66E040EE66E29EC24F0146E050E21
:10372000E15E14500401236B256B24691200200E06
:10373000E66EE66AE66A260EE66E040EE66E29EC92
:1037400024F0146E050EE15E14500401476B120064
:10375000D9CFE6FFE1CFD9FFE6520EEC20F0DF6AC9
:10376000DF50E76EFD0EDBCFE9FFFE0EDBCFEAFF99
:10377000E750E926000EEA22EF5013E0DF50E76E33
:10378000FD0EDBCFE9FFFE0EDBCFEAFFE750E926B7
:10379000000EEA22EF50E66E15EC20F0E552DF2A2B
:1037A000DFD7E552E552E7CFD9FF1200D9CFE6FFC8
:1037B000E1CFD9FF150EE1260EEC20F0FE0EEA6AED
:1037C000DB34FE0BEA36E96EBD0EE926040EEA2272
:1037D000EECF14F0EFCF15F0166A14C0E6FF15C057
:1037E000E6FF16C0E6FFD950010FE66E000EDA20A4
:1037F000E66E84EC24F0176E050EE15E1750DF6A6A
:10380000D950010F146EDACF15F0DF500F011424D8
:10381000E96E000E1520EA6EEF5012E0D950010F4C
:10382000146EDACF15F0DF501424E96E000E152067
:10383000EA6EEF50E66E15EC20F0E552DF2AE0D795
:10384000150EE15C02E2E16AE552E16EE552E7CF76
:10385000D9FF1200D9CFE6FFE1CFD9FF030EE12651
:10386000FE0EEA6ADB34FE0BEA36E96EBD0EE9268F
:10387000040EEA22010EEECFDBFF020EEDCFDBFFDE
:10388000DF6ADF50E76E010EDBCFF6FF020EDBCF03
:10389000F7FFE750F626000EF7220800F55014E077
:1038A000DF50E76E010EDBCFF6FF020EDBCFF7FF36
:1038B000E750F626000EF7220800F550E66E15ECEC
:1038C00020F0E552DF2ADDD7030EE15C02E2E16A77
:0C38D000E552E16EE552E7CFD9FF12008F
:0438DC00D9CFE6FF5B
:1038E000E1CFD9FFFE0EDBCF01F5FD0EDBCF02F5F8
:1038F000FC0EDBCF03F5FB0EDBCF04F5F90EDBCFBF
:103900006DF5FA0EDBCF6EF504D8E552E7CFD9FF9F
:103910001200240EE66EF40EE66EE66AE66A23EC0A
:1039200023F0E552E552E552E5520501696B6A6BF9
:10393000010E006F6B6BFA0E6C6F73C56FF574C57B
:1039400070F575C571F576C572F500C577F512008D
:103950000501696B6A6B010E006F6B6BFA0E6C6F81
:1039600073C56FF574C570F575C571F576C572F5DB
:1039700000C577F51200D9CFE6FFE1CFD9FF060EDB
:10398000E126DF6A9DEC25F006C073F507C074F5EB
:1039900008C075F509C076F56F0EE96E050EEA6E82
:1039A000EE500501731909E1EE50741906E1EE506D
:1039B000751903E1EE50761900E113E00051775DCF
:1039C00008E1020E005D05E16C076C5102E1A1DF28
:1039D000BED073C56FF574C570F575C571F576C544
:1039E00072F50051030A01E1ADD0010A16E0030AA5
:1039F00002E0AEDFAAD0E4EC23F0000901E1A7D099
:103A000001EC24F0DF6E05010151DF5C05E1696B1B
:103A1000020E006FFA0E6C6F98D0E4EC23F00009F0
:103A200001E195D001EC24F0DF6E05010251DF5C6D
:103A300074E1020EDB6A030EDB68D950030FE66EF9
:103A4000000EDA20E66E8DD8E552E552E76E020EE2
:103A5000E7CFDBFFDB50020A54E0030A05E0010A6E
:103A600001E057D075DF73D005016D516E1147E04D
:103A7000D950040FE66E000EDA20E66E6B0EE66E8D
:103A8000050EE66E070EE66E050EE66E05D06EC5F7
:103A9000FAFF05016D51F96EFADF146E060EE15E54
:103AA000145005016A6FFA0E376F6A2B6BC538F533
:103AB0006A2BDE52020EDD6E6A51F36E010EDBCF11
:103AC000F4FFF350F45C1AE2040EDBCFE9FF050EBD
:103AD000DBCFEAFFEF50E66E010EDB50EA6A370FEC
:103AE000E96E050EEA22E552E750EF6E040EDB2A7E
:103AF000050E01E3DB2A010EDB2ADED701D028DF29
:103B000008D00501FA0E376F6A2B6BC538F56A2BA2
:103B100000D00501030E006F14D06951692BEA6AC9
:103B2000050FE96E050EEA22DFCFEFFF320E695D69
:103B300008E3FA0E376F6A2B900E386F6A2B030E6C
:103B4000006F03D05AD804DF00D000C577F5060E09
:103B5000E15C02E2E16AE552E16EE552E7CFD9FFAE
:103B60001200D9CFE6FFE1CFD9FF020EE126050111
:103B70006905EA6A050FE96E050EEA22EFCFDFFF5D
:103B8000010EDB6AFA0E055D05E0FA0E055D02E046
:103B9000000E27D06905E66E050EE66E050EE66E90
:103BA0009BD8E552E552E552E76E010EE7CFDBFF09
:103BB000DB50DF5C0CE1050169076951EA6A050F1A
:103BC000E96E050EEA22EF6A010E0BD00AD0FD0E57
:103BD000DBCFE9FFFE0EDBCFEAFF910EEF6E000EAA
:103BE00000D0146E020EE15C02E2E16AE552E16E81
:103BF0001450E552E7CFD9FF1200D9CFE6FFE1CF4D
:103C0000D9FF020EE126DF6A010EDB6A6AC5E6FF14
:103C1000370EE66E050EE66E5FD8E552E552E552C8
:103C2000DF6E03C5E6FF87EC23F0E552010EDB6A89
:103C300005016A51F36E010EDBCFF4FFF350F45C23
:103C40000FE2010EDB50EA6A370FE96E050EEA2239
:103C5000EF50E66E87EC23F0E552010EDB2AE8D741
:103C6000DFCFE6FF87EC23F0E55204C5E6FF87ECE3
:103C700023F0E552A3EC23F00400020EE15C02E223
:103C8000E16AE552E16EE552E7CFD9FF1200D9CFE4
:103C9000E6FFE1CFD9FFFD0EDBCFF6FFFE0EDBCF57
:103CA000F7FF0800F55012E0FD0EDBCFF6FFFE0E29
:103CB000DBCFF7FF0800F550E66E87EC23F0E55206
:103CC000FD0EDB2AFE0E01E3DB2AE5D7A3EC23F091
:103CD000E552E7CFD9FF1200D9CFE6FFE1CFD9FFF8
:103CE000030EE126DF6A010EDB6AFC0EDB50F36E89
:103CF000010EDBCFF4FFF350F45C12E2010EDB5057
:103D0000E76EFD0EDBCFE9FFFE0EDBCFEAFFE750EB
:103D1000E926000EEA22EF50DF1A010EDB2AE5D772
:103D2000DF50146E030EE15C03E200D0E16AE5525D
:0C3D3000E16E1450E552E7CFD9FF1200FD
:043D3C00D9CFE6FFF6
:103D4000E1CFD9FF030EE126300EF36E010EF3CF63
:103D5000DBFF750EF36E020EF3CFDBFF010EDF6E9D
:103D6000DF0425E105DA000000008396838400006B
:103D700000008382000000008350800B01E0010EF0
:103D8000DF6E83928382000000008392010EDB06C7
:103D9000020E01E2DB06D950010FE96EDACFEAFF2D
:103DA000EE50ED1003E1ECD9FF0E04D0D9D7E8D9DD
:103DB000000E00D0146E030EE15C02E2E16AE552EF
:103DC000E16E1450E552E7CFD9FF1200D9CFE6FFDC
:103DD000E1CFD9FF839683940000FE0EDB50F00BF9
:103DE000146E0F0E8C1414108C6E00008382000071
:103DF00000008392E552E7CFD9FF1200D9CFE6FF4A
:103E0000E1CFD9FF9BDF839683940000FE0EDB5049
:103E1000F00B146E0F0E8C1414108C6E0000838245
:103E2000000000008392FE0EDB38F00BF00B146EE6
:103E30000F0E8C1414108C6E0000838200000000A2
:103E40008392E552E7CFD9FF1200D9CFE6FFE1CF49
:103E5000D9FF74DF838683940000FE0EDB50F00BE5
:103E6000146E0F0E8C1414108C6E000083820000F0
:103E700000008392FE0EDB38F00BF00B146E0F0E79
:103E80008C1414108C6E000083820000000083925A
:103E9000E552E7CFD9FF1200D9CFE6FFE1CFD9FF36
:103EA0000B0EE1266DD9280EF36E010EF3CFDBFF6A
:103EB000020EDB6A010EDBCF14F0DB06020EDBCF55
:103EC00015F001E2DB061450151006E0080EE66E50
:103ED000D7EC27F0E552EED7300EE66E77DFE552ED
:103EE0000A0EF36E030EF3CFDBFF040EDB6A030E44
:103EF000DBCF14F0DB06040EDBCF15F001E2DB06AE
:103F00001450151006E0080EE66ED7EC27F0E552C7
:103F1000EED7300EE66E5ADFE5520A0EF36E050E4E
:103F2000F3CFDBFF060EDB6A050EDBCF14F0DB06FA
:103F3000060EDBCF15F001E2DB061450151006E08B
:103F4000080EE66ED7EC27F0E552EED7300EE66E9F
:103F50003DDFE5520A0EF36E070EF3CFDBFF080ECE
:103F6000DB6A070EDBCF14F0DB06080EDBCF15F0A3
:103F700001E2DB061450151006E0080EE66ED7ECE1
:103F800027F0E552EED7200EE66E20DFE5520A0E4E
:103F9000F36E090EF3CFDBFF0A0EDB6A090EDBCFEF
:103FA00014F0DB060A0EDBCF15F001E2DB0614503D
:103FB000151006E0080EE66ED7EC27F0E552EED7B6
:103FC000280EE66E1BDFE552B9DEDF6EDF5010E132
:103FD0000F0EE66E13DFE552010EE66E0FDFE552BF
:103FE000040EE66E0BDFE552060EE66E07DFE552C5
:103FF0000B0EE15C03E200D0E16AE552E16EE552AE
:10400000E7CFD9FF1200D9CFE6FFE1CFD9FFFE0EEF
:10401000DBCF8BF4E552E7CFD9FF1200010EE66E3D
:10402000EDDEE55204018A6B1200D9CFE6FFE1CF45
:10403000D9FFE652FE0EDB5004018B5D23E18A516D
:1040400001E137D0100E8A5D0EE1800EE66ED6DEFD
:10405000E552DF6A100EDF5C06E2140EE66ECEDE7D
:10406000E552DF2AF7D7100EE66EC8DEE552200EC5
:10407000E66EEBDEE552100EE66EC0DEE5520401A0
:104080008A0717D0100E8A5D05E1C00EE66EB6DE17
:10409000E55208D0200E8A5D05E38A6B020EE66EBB
:1040A000ADDEE552FE0EDBCFE6FFCFDEE5520401CA
:1040B0008A2BE552E552E7CFD9FF1200EDDE010E63
:1040C000E66E9CDEE55204018A6B1200D9CFE6FF52
:1040D000E1CFD9FFE652010EE66E90DEE552DF6ACF
:1040E000100EDF5C1CE2FD0EDBCFE9FFFE0EDBCF26
:1040F000EAFFEF50E66EDF50EA6A8C0FE96E040EBD
:10410000EA22E552E750EF6EFD0EDBCFE9FFDB2A36
:10411000FE0EDBCFEAFF01E3DB2ADF2AE1D7C00E88
:10412000E66E6CDEE552DF6A100EDF5C1CE2FD0E0F
:10413000DBCFE9FFFE0EDBCFEAFFEF50E66EDF508C
:10414000EA6A8C0FE96E040EEA22E552E750EF6E40
:10415000FD0EDBCFE9FFDB2AFE0EDBCFEAFF01E33A
:10416000DB2ADF2AE1D7E552E552E7CFD9FF12007B
:10417000958E958C958A9588959295949596120032
:10418000959E959C959A95989592959495961200E2
:104190000401BA6BBB6B1200D9CFE6FFE1CFD9FFA8
:1041A000020EE1260401BC2BD9CFE6FFDACFE6FFF1
:1041B00033D9E552E552000901E127D00401BA5193
:1041C000BB5D02E1BB6BBA6BBB51E96EEA6AD8908A
:1041D000E936EA36AC0EE926040EEA22DFCFEFFF1D
:1041E000BB51E96EEA6AD890E936EA36AC0EE926A8
:1041F000040EEA22010EE926000EEA22BCC4EFFFFB
:10420000060EBB5D01E2BB2BBC6B020EE15C02E261
:10421000E16AE552E16EE552E7CFD9FF1200D9CF4E
:10422000E6FFE1CFD9FF040EE126080E0401F15D9F
:1042300003E3F16B000ED8D0F151040DF3CFF6FF7C
:10424000F4CFF7FFCE0EF6264F0EF7220900F5CF7A
:1042500014F00800F5CF15F0FF0E141801E1155009
:1042600049E0F151040DF3CFF6FFF4CFF7FFCE0E86
:10427000F6264F0EF7220900F5CF16F00800F5CF0D
:1042800017F0180E161801E1175034E0F151040D23
:10429000F3CFF6FFF4CFF7FFCE0EF6264F0EF72240
:1042A0000800F550E66EFD0EDBCFE9FFFE0EDBCF1A
:1042B000EAFFE552E750EF6EF151040DF3CFF6FF40
:1042C000F4CFF7FFCE0EF6264F0EF722020EF6269B
:1042D000000EF7220800F550E66EFB0EDBCFE9FF7B
:1042E000FC0EDBCFEAFFE552E750EF6EF12B010E3B
:1042F0007BD05DD0F151040DF3CFF6FFF4CFF7FF83
:10430000CE0EF6264F0EF7220900F5CF14F0080066
:10431000F5CF15F0180E141801E1155048E1640EA0
:10432000DE6EDD6ADFCF14F0DF06010EDBCF15F0A5
:1043300001E2DB061450151006E0080EE66ED7EC1D
:1043400027F0E552EFD70401F151040DF3CFF6FF4A
:10435000F4CFF7FFCE0EF6264F0EF7220800F550E9
:10436000E66EFD0EDBCFE9FFFE0EDBCFEAFFE55286
:10437000E750EF6EF151040DF3CFF6FFF4CFF7FFE6
:10438000CE0EF6264F0EF722020EF626000EF7226C
:104390000800F550E66EFB0EDBCFE9FFFC0EDBCF2D
:1043A000EAFFE552E750EF6EF12B010E1DD0320E01
:1043B000F36E020EF3CFDBFF030EDB6A020EDBCFE0
:1043C00014F0DB06030EDBCF15F001E2DB06145020
:1043D000151006E0080EE66ED7EC27F0E552EED792
:1043E0000401F12B000E00D0146E040EE15C02E219
:1043F000E16AE552E16E1450E552E7CFD9FF1200B1
:104400000401EF5100D012000401F05100D012005D
:104410000401BB6BBA6B1200D9CFE6FFE1CFD9FF25
:10442000E652DF68809881B402D0010EDF6E80B260
:1044300002D0040EDF6E80B402D0070EDF6E80B6AD
:1044400002D00A0EDF6E8088FF0EDF5C12E1809AD8
:1044500081B402D0020EDF6E80B202D0050EDF6E94
:1044600080B402D0080EDF6E80B602D00B0EDF6E75
:10447000808AFF0EDF5C12E1849081B402D0030ECB
:10448000DF6E80B202D0060EDF6E80B402D0090E5D
:10449000DF6E80B602D00C0EDF6E8480FF0EDF5C14
:1044A0000BE1829484B203D00D0EDF6E04D082B291
:1044B00002D00E0EDF6E8284FF0EDF5C06E1040187
:1044C000F6690401EE69000E18D00401F651DF5CB4
:1044D00010E10401EE51DF5C0CE0FD0EDBCFE9FFE3
:1044E000FE0EDBCFEAFFDFCFEFFFDFCFEEF4010EF2
:1044F00004D0DFCFF6F4000E00D0E552E552E7CF4E
:04450000D9FF1200CD
:0C450400DACFE4FFE2CFDAFFE9CFE4FFFA
:10451000EACFE4FFF6CFE4FFF7CFE4FFF5CFE4FF07
:10452000F3CFE4FFF4CFE4FFFACFE4FF00EE00F0B6
:10453000140EE80403E3EECFE4FFFBD700EE14F023
:10454000040EE80403E3EECFE4FFFBD7E652D9CF35
:10455000E6FFE1CFD9FFE65262EC27F0DF6E0501FE
:10456000AD51AD2BEA6AB00FE96E050EEA22DFCF3E
:10457000EFFF320EAD5D01E3AD6BAF2B9E9AE552BE
:10458000E552E7CFD9FFE55200EE17F0040EE8043C
:1045900003E3E5CFEDFFFBD700EE13F0140EE804C4
:1045A00003E3E5CFEDFFFBD7E5CFFAFFE5CFF4FF5F
:1045B000E5CFF3FFE5CFF5FFE5CFF7FFE5CFF6FF5A
:1045C000E5CFEAFFE5CFE9FFE5CFDAFF1100DACF6B
:1045D000E4FFE2CFDAFFE9CFE4FFEACFE4FFE652FF
:1045E000D9CFE6FFE1CFD9FFE65205017A5104E1C8
:1045F000ACA2FED7AC9A1BD07951EA6A7B0FE96E68
:10460000050EEA22EFCFDFFFDF50AD6E792B320EC1
:10461000795D01E3796B000EE76E7A19E8AE02D09E
:104620007A3503D0E750D8807A5501E27A07E5520F
:10463000E552E7CFD9FFE552E5CFEAFFE5CFE9FF45
:10464000E5CFDAFF1100D9CFE6FFE1CFD9FFE6527F
:104650007C0EDF6ED950FB0FE96EFF0EDA20EA6E9A
:10466000EE2A000EEE22EE22EE22D950FB0FE96E6A
:10467000FF0EDA20EA6E040EE76ED890EF36010ED8
:10468000EB36020EEB36030EEB36E706F6E1146A64
:10469000480E156EE80E166E010E176E14C006F069
:1046A00015C007F016C008F017C009F0FB0EDBCFED
:1046B0000BF0FC0EDBCF0CF0FD0EDBCF0DF0FE0E91
:1046C000DBCF0EF0FAEC26F0FB0E06C0DBFFFC0E93
:1046D00007C0DBFFFD0E08C0DBFFFE0E09C0DBFFDD
:1046E000FB0EDBCFE6FFFC0EDBCFE6FFDFCFE6FF06
:1046F0001CEC26F0E552E552E552D08EAC8AAC9E19
:10470000F28C9F8AE552E552E7CFD9FF1200D9CF4C
:10471000E6FFE1CFD9FFACA2FED705017851782B97
:10472000EA6A7B0FE96E050EEA22FE0EDBCFEFFF91
:104730007A2B320E785D01E3786B010E00D0E552E2
:10474000E7CFD9FF1200D9CFE6FFE1CFD9FF020EA4
:10475000E126000E0501E76E7A19E8AE02D07A353F
:1047600003D0E750D8807A5523E27951EA6A7B0F6B
:10477000E96E050EEA22010EEFCFDBFFACA2FED7F9
:10478000010EDB50AD6EACA2FED70501792B320EC7
:10479000795D01E3796B000EE76E7A19E8AE02D01D
:1047A0007A3503D0E750D8807A5501E27A07D1D71D
:1047B000146E020EE15C02E2E16AE552E16E145011
:1047C000E552E7CFD9FF1200D9CFE6FFE1CFD9FFFD
:1047D000E652DF6A9D9A000E0501E76EAF19E8AE5A
:1047E00002D0AF3503D0E750D880AF5502E2010EBA
:1047F000DF6E9D8ADF5000D0E552E552E7CFD9FF4A
:104800001200D9CFE6FFE1CFD9FFE6529D9A05010C
:10481000AE51AE2BEA6AB00FE96E050EEA22EFCF79
:10482000DFFF320EAE5D01E3AE6B000EE76EAF1937
:10483000E8AE02D0AF3503D0E750D880AF5501E2E3
:10484000AF079D8ADF5000D0E552E552E7CFD9FF90
:02485000120054
:0E485200FE0EE3CFE9FFFF0EE3CFEAFFE9CF52
:10486000F3FFEACFF4FFFB0EE35003E1FC0EE3504D
:1048700009E0FB0EE30602E2FC0EE306FD0EE35048
:10488000EE6EF1D71200D9CFE6FFDACFE6FFFA0ECF
:10489000E3CFD9FFFB0EE3CFDAFFFC0EE3CFE9FF56
:1048A000FD0EE3CFEAFFDE50EF5C02E1EE66FBD7E0
:1048B000F36EFF0EE3CFDAFFE552FF0EE3CFD9FF31
:1048C000E552F3501200D9CFE6FFDACFE6FFFA0E39
:1048D000E3CFD9FFFB0EE3CFDAFFFC0EE3CFE9FF16
:1048E000FD0EE3CFEAFFE9CFF3FFEACFF4FFDECF1F
:1048F000EFFFEE66FCD7FF0EE3CFDAFFE552FF0EC7
:10490000E3CFD9FFE5521200FB0EE3CFF6FFFC0E1A
:10491000E3CFF7FFFD0EE3CFF8FFFE0EE3CFE9FF95
:10492000FF0EE3CFEAFFE9CFF3FFEACFF4FF090080
:10493000F5CFEFFFEE66FBD71200FE0EE3CFE9FFE7
:10494000FF0EE3CFEAFFF36AF46AEE5203E0F34AA4
:06495000F42AFBD712005F
:0A495600DACFE4FFE2CFDAFFE9CF89
:10496000E4FFEACFE4FFF6CFE4FFF7CFE4FFF5CFB3
:10497000E4FFF3CFE4FFF4CFE4FFFACFE4FF00EE6F
:1049800000F0140EE80403E3EECFE4FFFBD700EEE3
:1049900014F0040EE80403E3EECFE4FFFBD7E65285
:1049A000F2940501F02B000EF123F22BF323F42BEC
:1049B000F523F62BF723F82BF923FA07FB5BFB35DE
:1049C00004E2FA510008000EFB5508E3FC2B000E30
:1049D000FD23FE23FF23C80EFA6FFB6BE451E511A4
:1049E00007E005D0E5C5FAFF0501E451F96EFADFED
:1049F000E2C5E6FFE3C5E6FF9FEC27F0E552E5528E
:104A0000E55200EE17F0040EE80403E3E5CFEDFFF6
:104A1000FBD700EE13F0140EE80403E3E5CFEDFF3F
:104A2000FBD7E5CFFAFFE5CFF4FFE5CFF3FFE5CF06
:104A3000F5FFE5CFF7FFE5CFF6FFE5CFEAFFE5CFDE
:084A4000E9FFE5CFDAFF1100E8
:084A48004F5448455253004150
:104A5000444D494E2041435449564954593A005017
:104A6000415353574F52443A00434C454152204919
:104A7000535355455300434C4153533A0041434B24
:104A80004E4F574C454447450050415254204E4FDD
:104A90003A00504152542053484F52544147450028
:104AA0005155414C49545900425245414B444F578E
:104AB0004E0049535355453A005052444E205154EC
:104AC000593A0053544154494F4E3A0049443A0030
:104AD000202020204944454F4E4943532020202088
:104AE00020414E444F4E205445524D494E414C209A
:014AF00000C5
:014AF10000C4
:0E4AF200D9CFE6FFE1CFD9FF9F0EE66EBBECF9
:104B000027F0E552FD0EDBCFE2F5FE0EDBCFE3F53D
:104B1000FB0EDBCFE4F5FC0EDBCFE5F5F194FD0EEB
:104B2000DBCFE6FFFE0EDBCFE6FF9FEC27F0E55282
:104B3000E552E552E7CFD9FF1200D9CFE6FFE1CF2A
:104B4000D9FF040EE126F29AFCC5DFFF010EFDC578
:104B5000DBFF020EFEC5DBFF030EFFC5DBFFF28AA3
:104B6000DECF06F0DECF07F0DECF08F0DDCF09F0B4
:104B7000DD52DD52040EE15C03E200D0E16AE55251
:104B8000E16EE552E7CFD9FF1200F29E0501FC6B02
:0A4B9000FD6BFE6BFF6BF28E12004E
:064B9A002A0EF66E000E6B
:104BA000F76E000EF86E04010900F550E06F090081
:104BB000F550E16F03E1E06701D03DD00900F55009
:104BC000DB6F0900F550DC6F0900F550DD6F09005F
:104BD0000900F550E96E0900F550EA6E0900090078
:104BE0000900F550DE6F0900F550DF6F090009007C
:104BF000F6CFE2F4F7CFE3F4F8CFE4F4DBC4F6FF4A
:104C0000DCC4F7FFDDC4F8FF0401DE5302E1DF532B
:104C100007E00900F550EE6EDE07F8E2DF07F9D78E
:104C2000E2C4F6FFE3C4F7FFE4C4F8FF0401E007C1
:084C3000000EE15BBFD712008A
:084C3800D9CFE6FFDACFE6FF59
:104C4000E1CFD9FFE2CFDAFFAC6AAB6AFD0EDBB091
:104C5000AC88DBA202D0AC8CAB8CDBB4AC8EDBA618
:104C600002D0AB8801D0AB8ADBB8AC849E98DBBAAB
:104C7000AB86DBAC02D09D8A01D09D9A9E9ADBAEBA
:104C800002D09D8801D09D98FB0EDB50AF6EFB0ECD
:104C9000FC0EDBCF15F015C014F0156A1450B06E81
:104CA000AC8AAB8E949C948EAC50100B04E0AC504C
:104CB000800B01E1948CE552E5CFDAFFE7CFD9FF15
:024CC0001200E0
:0E4CC200D9CFE6FFE1CFD9FFE652D5EC26F0C0
:104CD0005EEC20F0C8EC20F0000EE66EE66ADF0E17
:104CE000E66EB10EE66E79EC25F0E552E552E5523E
:104CF000E5524AEC14F05EEC00F00DEC00F005011A
:104D00000A0EF05D000EF15905E326EC28F00501CE
:104D1000F06BF16B0501080EF25D000EF35905E32F
:104D2000CCEC20F00501F26BF36BBBEC1CF08FECCC
:104D300002F05CEC14F00400E2D7E552E552E7CF54
:044D4000D9FF120085
:0C4D4400D9CFE6FFDACFE6FFE1CFD9FFC0
:104D5000E2CFDAFFE652DF6AFF0EE76EFC0EDBCF32
:104D600014F0E75014161450A96EFB0EDB50A86E19
:104D7000A69EA69CA684F250800B01E0010EDF6E79
:104D8000F29E550EA76EAA0EA76EA682A6B2FED7F9
:104D9000DF50E8B0F28EE8A0F29EA694E552E5520C
:0A4DA000E5CFDAFFE7CFD9FF1200DC
:064DAA000F0EC16E700E39
:104DB000D3129B8C9694959E959C959A95989592D6
:104DC0009594959693849282928492869298929AE0
:104DD0009690968294829494829494908290949CDB
:104DE000948E95908C90939A8A9A93968A9693989B
:044DF0008A9812008B
:0C4DF400056A046A036A026A200EE76E7A
:104E0000D890063607360836093602360336043699
:104E100005360B50025C0C5003580D5004580E50D0
:104E2000055809E30B50025E0C50035A0D50045A0A
:0C4E30000E50055A062AE72EE4D71200A7
:044E3C00FFFFFFFF76
:104E40003131313132414243334445463447484998
:104E5000354A4B4C364D4E4F3750525338545556B9
:104E6000395758590808080830515A2D0A0A0A0AB1
:104E70000000000000000000000000000000000032
:104E8000D9CFE6FFDACFE6FFE1CFD9FFE2CFDAFFF5
:104E9000FF0EE76EFC0EDBCF14F0FD0EDBCF15F03E
:104EA000E7501416156A1450A96EA69CA69EA680FB
:104EB00000000000A85000D0E552E5CFDAFFE7CFB0
:044EC000D9FF120004
:0C4EC400D9CFE6FFDACFE6FFE1CFD9FF3F
:104ED000E2CFDAFFE652F20E0401F517ABAC03D0D5
:104EE000F591ABB0F581ABB4F585ABB2F587AE50BB
:104EF000DF6EDF50E552E552E5CFDAFFE7CFD9FFAD
:024F000012009D
:0E4F020008C012F008500D02F4CF07F0F3CFF4
:104F100006F009500E02F4CF09F0F3CF08F00D02AD
:104F2000F3500726F4500822E86A092212500E02B4
:0E4F3000F3500726F4500822E86A0922000C0C
:024F3E00D9CFC9
:104F4000E6FFDACFE6FFE1CFD9FFE2CFDAFFE652A4
:104F5000E652FC0EDBCFDEFFDBCFDDFF010EDB50C8
:104F6000D76EDF50D66EE552E552E552E5CFDAFF57
:064F7000E7CFD9FF12009B
:0A4F7600D9CFE6FFDACFE6FFE1CF66
:104F8000D9FFE2CFDAFFFD0EDB507F0BD56ED76A7B
:104F9000D66AF294FD0EDBAE02D0F28A01D0F29A0C
:0E4FA000D58EE552E5CFDAFFE7CFD9FF12003C
:024FAE00FF0EF4
:104FB000E350186E480E01D04C0EE76EE72EFED778
:0E4FC000E76AE72EFED7182EF7D70000120082
:024FCE000100E0
:104FD00032000C003200020032000C0032000300EC
:0E4FE00032000C0032000B0032000C003200D8
:024FEE00000EB3
:104FF000F36E00EE00F0060E01D81200EA6002D057
:0E500000EE6AFCD7F350E9601200EE6AFCD7AE
:02500E0010EEA2
:1050100080F020EE80F0F86A019CCDEC25F03DECAC
:0A50200028F061EC26F0FBD7120027
:06502A00056A080EE76EA6
:10503000D890093605360E50055C02E3056E092A44
:06504000E72EF7D7120075
:0A5046000401F86B12000401F805E4
:1050500003E1F86B8D9403D0010EF86F8D8412007C
:105060002020202020202020202020202020202040
:01507000003F
:06507200A6B2FED71200F9
:025078008403AF
:02507A00120022
:04507C000000000030
:105080000000000000000000000000000000000020
:105090000000000000000000000000000000000010
:1050A000FF00000000000000000000000000000001
:1050B00000000000000000000000000000000000F0
:1050C00000000000000000000000000000000000E0
:1050D00000000000000000000000000000000000D0
:1050E00000000000FF0000000000000000000000C1
:1050F00000000000000000000000000000000000B0
:065100000000000000FFAA
:0A510600000000000000000000009F
:10511000000000000000000000000000000000008F
:10512000000000000000000000000000000000007F
:10513000000000000000000000000000000000006F
:10514000000000000000000000000000000000005F
:10515000000000000000000000000000000000004F
:10516000000000000000000000000000000000003F
:10517000000000000000000000000000000000002F
:10518000000000000000000000000000000000001F
:10519000000000000000000000000000000000000F
:1051A00000000000000000000000000000000000FF
:1051B00000000000000000000000000000000000EF
:1051C00000000000000000000000000000000000DF
:1051D00000000000000000000000000000000000CF
:1051E00000000000000000000000000000000000BF
:1051F00000000000000000000000000000000000AF
:10520000000000000000000000000000000000009E
:10521000000000000000000000000000000000008E
:10522000000000000000000000000000000000007E
:10523000000000000000000000000000000000006E
:10524000000000000000000000000000000000005E
:10525000000000000000000000000000000000004E
:0F5260000000000000000000000000000000003F
:01526F00003E
:10527000000000000000000000000000000000002E
:10528000000000000000000000000000000000001E
:10529000000000000000000000000000000000000E
:1052A00000000000000000000000000000000000FE
:1052B00000000000000000000000000000000000EE
:1052C00000000000000000000000000000000000DE
:1052D00000000000000000000000000000000000CE
:1052E00000000000000000000000000000000000BE
:1052F00000000000000000000000000000000000AE
:10530000000000000000000000000000000000009D
:10531000000000000000000000000000000000008D
:10532000000000000000000000000000000000007D
:10533000000000000000000000000000000000006D
:10534000000000000000000000000000000000005D
:10535000000000000000000000000000000000004D
:10536000000000000000000000000000000000003D
:10537000000000000000000000000000000000002D
:10538000000000000000000000000000000000001D
:10539000000000000000000000000000000000000D
:1053A00000000000000000000000000000000000FD
:1053B00000000000000000000000000000000000ED
:1053C00000000000000000000000000000000000DD
:1053D00000000000000000000000000000000000CD
:1053E00000000000000000000000000000000000BD
:1053F00000000000000000000000000000000000AD
:10540000000000000000000000000000000000009C
:10541000000000000000000000000000000000008C
:10542000000000000000000000000000000000007C
:0C54300000000000000000000000000070
:04543C00000000006C
:10544000000000000000000000000000000000005C
:0A54500000000000C800000000008A
:06545A000000000000004C
:10546000000000000000000000000000000000003C
:0C54700000000000000000000000000030
:04547C00000000002C
:10548000000000000000000000000000000000001C
:10549000000000000000000000000000000000000C
:1054A00000000000000000000000000000000000FC
:1054B00000000000000000000000000000000000EC
:1054C00000000000000000000000000000000000DC
:1054D00000000000000000000000000000000000CC
:1054E00000000000000000000000000000000000BC
:0454F00000000000B8
:0954F4004944454F4E4943530061
:0354FD00FF0000AD
:025500000005A4
:02550200FFFFA9
:0C550400D04ACC4AC34AB94AB24AA84A6D
:10551000A04A924A894A7D4A764A694A5F4A4F4A76
:02552000484AF7
:020000040030CA
:0100010008F6
:010002001BE2
:0100030012EA
:010005008179
:010006008178
:010008000FE8
:01000900C036
:01000A000FE6
:01000B00E014
:01000C000FE4
:01000D0040B2
:00000001FF
