:020000040000FA
:06000000E3EF26F0120000
:08000800F2A402D055EF21F033
:080010001200F28EF28C1200C6
:06002A000C001051000063
:10003000BD0400001E0000000E5100009E050000DF
:100040000200000001490000A205000001000000BC
:100050000B5100009B05000003000000025100004E
:100060009205000009000000E8500000DB040000D9
:100070001A000000C65000008A04000022000000A0
:1000800076500000420500005000000005500000BE
:100090000001000071000000064F00007101000027
:1000A000FF000000C44E00000005000042000000F8
:0C00B0003A4E0000000400008A0000002E
:0400BC00D9CFE6FFB3
:1000C000E1CFD9FF0A0EE126050EDB6A060EDB6AD8
:1000D000070EDB6A080EDB6A090EDB6A0101036B9F
:1000E000046B056B066B0101076B086B096B0A6BF0
:1000F0000101756BDE6ADD6ADECF14F0DDCF15F02D
:10010000030E145C000E155801E3AED0DECF14F0E0
:10011000DDCF15F01D0E1502F3CF15F01D0E1402E4
:10012000F3CF14F0F4501526170E1426010E1522E5
:10013000030E14C0DBFF040E15C0DBFF020EDB6AEA
:100140001D0EF36E020EDBCFF4FFF350F45C35E2CC
:1001500015EC27F00400020EDB50166E176A1D0E18
:10016000086E096ADECF0DF0DDCF0EF051EC26F0FF
:1001700006501624146E07501720156E14C0E6FFA3
:1001800015C0E6FFCEEC25F0E552E552E66E020E14
:10019000DB50E76E030EDBCFE9FF040EDBCFEAFF97
:1001A000E750E926000EEA22E552E750EF6E15EC23
:1001B00027F00400020EDB2AC3D7DECFE9FFDDCF34
:1001C000EAFF1D0EEA02F3CFEAFF1D0EE902F3CFAC
:1001D000E9FFF450EA26170EE926010EEA221B0E6B
:1001E000E926000EEA22EF0402E10101012BDECF35
:1001F000E9FFDDCFEAFF1D0EEA02F3CFEAFF1D0E95
:10020000E902F3CFE9FFF450EA26170EE926010EC2
:10021000EA221B0EE926000EEA22EF50030802E153
:100220000101022BDECFE9FFDDCFEAFF1D0EEA025E
:10023000F3CFEAFF1D0EE902F3CFE9FFF450EA26FF
:10024000170EE926010EEA221C0EE926000EEA220C
:10025000EF0405E1010EF36E050EF3CFDBFFDF2A9D
:10026000010E01E3DB2A48D701010251000806E232
:10027000010EF36E080EF3CFDBFF0FD00101015129
:10028000000806E2010EF36E070EF3CFDBFF05D088
:10029000010EF36E060EF3CFDBFF050EDB0405E166
:1002A000010EF36E090EF3CFDBFF0101060E706F36
:1002B00015EC27F00400E66AE66AE66AE66A3BECBB
:1002C00010F0E552E552E552E55231D80101010E38
:1002D0006E6F090EDBCFE6FF080EDBCFE6FF070EE1
:1002E000DBCFE6FF060EDBCFE6FF3BEC10F0E5527E
:1002F000E552E552E5524A0EE66E250EE66EDD0E3B
:10030000E66ECC0EE66EBB0EE66EAA0EE66E87ECCF
:100310001DF0146E060EE15E14500A0EE15C02E25E
:10032000E16AE552E16EE552E7CFD9FF1200D9CF7D
:10033000E6FFE1CFD9FF050EE126DF6A010EDB6A99
:10034000020EDB6A030EDB6A01010251000808E2BB
:10035000030E006F010EF36E020EF3CFDBFF0DD024
:100360000151000805E2010E006FDE52DD6E05D07E
:10037000006B010EDF6E030EDB6A040EDB6A030EF8
:10038000F36E040EDBCFF4FFF350F45C1AE2040EBC
:10039000DB501D0DF3CFE9FFF4CFEAFF170EE9267E
:1003A000010EEA221C0EE926000EEA22EF0406E105
:1003B000010EF36E030EF3CFDBFF03D0040EDB2A36
:1003C000DED7030EDBCFE6FF020EDBCFE6FF010E2A
:1003D000DBCFE6FFDFCFE6FF3BEC10F0E552E55266
:1003E000E552E552050EE15C02E2E16AE552E16E9A
:1003F000E552E7CFD9FF1200D9CFE6FFE1CFD9FF11
:10040000050EE126DF6A010EDB6A020EDB6A030ECF
:10041000DB6A01010251000808E2030E006F010EC1
:10042000F36E020EF3CFDBFF0DD00151000805E2A1
:10043000010E006FDE52DD6E05D0006B010EDF6E27
:10044000030EDB6A030EDBCFE6FF020EDBCFE6FF17
:10045000010EDBCFE6FFDFCFE6FF3BEC10F0E5520D
:10046000E552E552E5520101010E6E6F146E050E64
:10047000E15C03E200D0E16AE552E16E1450E5521E
:10048000E7CFD9FF1200D9CFE6FFE1CFD9FF050EA4
:10049000E126DF6A010EDB6A020EDB6A030EDB6A0D
:1004A000FD0EDBCFE6FFFE0EDBCFE6FF120EE66EA3
:1004B000010EE66EC4EC23F0E552E552E552E5523A
:1004C000000902E0000E1FD0030EDBCFE6FF020E94
:1004D000DBCFE6FF010EDBCFE6FFDFCFE6FF3BEC35
:1004E00010F0E552E552E552E552FB0EDBCFE6FF98
:1004F000FC0EDBCFE6FFEBEC0FF0E552E55201011D
:100500006E6B010E00D0146E050EE15C02E2E16A32
:10051000E552E16E1450E552E7CFD9FF1200D9CF72
:10052000E6FFE1CFD9FF090EE126010EF36E080EBA
:10053000F3CFDBFF72EC22F0F3CF07F1F4CF08F139
:100540000101096B0A6B08AF02D009690A69030E41
:10055000E96E010EEA6EEE50010107190CE1EE5052
:100560000101081908E1EE500101091904E1EE50FA
:1005700001010A1900E101E1BBD007C103F108C183
:1005800004F109C105F10AC106F1DF6A030EDF5C5F
:1005900001E3A4D0DF501D0DF3CFE9FFF4CFEAFF54
:1005A000170EE926010EEA221B0EE926000EEA22AA
:1005B000EF0401E091D0DF501D0DF3CFE9FFF4CF40
:1005C000EAFF170EE926010EEA22190EE926000EAF
:1005D000EA22EE06000EED5ADF501D0DF3CFE9FFC3
:1005E000F4CFEAFF170EE926010EEA22190EE926DA
:1005F000000EEA22E9CF14F0EACF15F0010E14C084
:10060000DBFF020E15C0DBFF010EDBCFE9FF020EA0
:10061000DBCFEAFF030EEFCFDBFF1D0EDF02F3504F
:10062000190F146E040E14C0DBFF050EDB6A060EF4
:10063000DB6A070EDB6A010EDBCFE9FF020EDBCFC0
:10064000EAFFEF50E66E1D0EDF02F350190FE66E63
:10065000E66A55EC25F0E552E552E55215EC27F037
:100660000400010EE76E010EDBCFE9FF020EDBCFC7
:10067000EAFFE750E926000EEA22030EEFCFDBFF88
:100680001D0EDF02F350190F010F146E040E14C07B
:10069000DBFF050EDB6A060EDB6A070EDB6A010E66
:1006A000E76E010EDBCFE9FF020EDBCFEAFFE7507A
:1006B000E926000EEA22EF50E66E1D0EDF02F3502F
:1006C000190F010FE66EE66A55EC25F0E552E5528A
:1006D000E55215EC27F00400DF2A58D7EDEC10F0B6
:1006E000010806E18A860101015102E18A988A9A8D
:1006F000090EE15C02E2E16AE552E16EE552E7CF04
:10070000D9FF1200D9CFE6FFE1CFD9FF040EE126D1
:10071000FD0EDBCFE9FFFE0EDBCFEAFF200EE92660
:10072000000EEA22EF28DF6E010EDB6A020EDB6AA2
:10073000030EDF5C01E3DF6AFD0EDBCFE9FFFE0E97
:10074000DBCFEAFF200EE926000EEA22EF68030E57
:10075000DB6AF36EDBCFF4FFF350F45C01E3CBD341
:10076000030E146E14C00EF0DFCF09F0F1EC26F08A
:100770000550DF6EDF501D0DF3CFE9FFF4CFEAFF28
:10078000170EE926010EEA221B0EE926000EEA22C8
:10079000EF5010E0DF501D0DF3CFE9FFF4CFEAFF7B
:1007A000170EE926010EEA221C0EE926000EEA22A7
:1007B000EF5004E1030EDB2ADF2ACBD7FD0EDBCF9F
:1007C000E9FFFE0EDBCFEAFFE9CF14F0EACF15F028
:1007D000010EDBCFF3FFDB2AF3500F011424E96E87
:1007E000000E1520EA6E530EEF6EFD0EDBCFE9FF13
:1007F000FE0EDBCFEAFFE9CF14F0EACF15F0010ED1
:10080000DBCFF3FFDB2AF3501424E96E000E152032
:10081000EA6E540EEF6EFD0EDBCFE9FFFE0EDBCF6E
:10082000EAFFE9CF14F0EACF15F0010EDBCFF3FFBA
:10083000DB2AF3501424E96E000E1520EA6E4E0EEA
:10084000EF6EFD0EDBCFE9FFFE0EDBCFEAFFE9CF57
:1008500014F0EACF15F0010EDBCFF3FFDB2AF350E3
:100860001424E96E000E1520EA6E3A0EEF6EDF508A
:100870001D0DF3CFE9FFF4CFEAFF170EE926010EB5
:10088000EA22E9CF16F0EACF17F0020EDBCFF3FF32
:10089000DB2AF3501624E96E000E1720EA6EEF50A3
:1008A000E66EFD0EDBCFE9FFFE0EDBCFEAFFE9CF00
:1008B00014F0EACF15F0010EDBCFF3FFDB2AF35083
:1008C0001424E96E000E1520EA6EE552E750EF6E33
:1008D000DF501D0DF3CFE9FFF4CFEAFF170EE92635
:1008E000010EEA22E9CF16F0EACF17F0020EDBCFB5
:1008F000F3FFDB2AF3501624E96E000E1720EA6E90
:10090000EF50E66EFD0EDBCFE9FFFE0EDBCFEAFF18
:10091000E9CF14F0EACF15F0010EDBCFF3FFDB2AAD
:10092000F3501424E96E000E1520EA6EE552E750EC
:10093000EF6EFD0EDBCFE9FFFE0EDBCFEAFFE9CF66
:1009400014F0EACF15F0010EDBCFF3FFDB2AF350F2
:100950001424E96E000E1520EA6E3B0EEF6EDF5098
:100960001D0DF3CFE9FFF4CFEAFF170EE926010EC4
:10097000EA22E9CF14F0EACF15F0020EDB5014247E
:10098000E96E000E1520EA6EEF50340A01E1AED197
:10099000070A01E194D1010A01E1E0D0030A01E074
:1009A00040D2FD0EDBCFE9FFFE0EDBCFEAFFE9CF41
:1009B00014F0EACF15F0010EDBCFF3FFDB2AF35082
:1009C0001424E96E000E1520EA6E420EEF6EFD0E45
:1009D000DBCFE9FFFE0EDBCFEAFFE9CF14F0EACF71
:1009E00015F0010EDBCFF3FFDB2AF3501424E96E80
:1009F000000E1520EA6E520EEF6EFD0EDBCFE9FF02
:100A0000FE0EDBCFEAFFE9CF14F0EACF15F0010EBE
:100A1000DBCFF3FFDB2AF3501424E96E000E152020
:100A2000EA6E450EEF6EFD0EDBCFE9FFFE0EDBCF6B
:100A3000EAFFE9CF14F0EACF15F0010EDBCFF3FFA8
:100A4000DB2AF3501424E96E000E1520EA6E410EE5
:100A5000EF6EFD0EDBCFE9FFFE0EDBCFEAFFE9CF45
:100A600014F0EACF15F0010EDBCFF3FFDB2AF350D1
:100A70001424E96E000E1520EA6E4B0EEF6EFD0E8B
:100A8000DBCFE9FFFE0EDBCFEAFFE9CF14F0EACFC0
:100A900015F0010EDBCFF3FFDB2AF3501424E96ECF
:100AA000000E1520EA6E440EEF6EFD0EDBCFE9FF5F
:100AB000FE0EDBCFEAFFE9CF14F0EACF15F0010E0E
:100AC000DBCFF3FFDB2AF3501424E96E000E152070
:100AD000EA6E4F0EEF6EFD0EDBCFE9FFFE0EDBCFB1
:100AE000EAFFE9CF14F0EACF15F0010EDBCFF3FFF8
:100AF000DB2AF3501424E96E000E1520EA6E570E1F
:100B0000EF6EFD0EDBCFE9FFFE0EDBCFEAFFE9CF94
:100B100014F0EACF15F0010EDBCFF3FFDB2AF35020
:100B20001424E96E000E1520EA6E4E0EEF6EFD0ED7
:100B3000DBCFE9FFFE0EDBCFEAFFE9CF14F0EACF0F
:100B400015F0010EDBCFF3FFDB2AF3501424E96E1E
:100B5000000E1520EA6E3B0EEF6E63D1FD0EDBCF6B
:100B6000E9FFFE0EDBCFEAFFE9CF14F0EACF15F084
:100B7000010EDBCFF3FFDB2AF3501424E96E000EE5
:100B80001520EA6E510EEF6EFD0EDBCFE9FFFE0E73
:100B9000DBCFEAFFE9CF14F0EACF15F0010EDBCF8F
:100BA000F3FFDB2AF3501424E96E000E1520EA6EE1
:100BB000550EEF6EFD0EDBCFE9FFFE0EDBCFEAFF39
:100BC000E9CF14F0EACF15F0010EDBCFF3FFDB2AFB
:100BD000F3501424E96E000E1520EA6E410EEF6EFC
:100BE000FD0EDBCFE9FFFE0EDBCFEAFFE9CF14F00D
:100BF000EACF15F0010EDBCFF3FFDB2AF35014240C
:100C0000E96E000E1520EA6E4C0EEF6EFD0EDBCF86
:100C1000E9FFFE0EDBCFEAFFE9CF14F0EACF15F0D3
:100C2000010EDBCFF3FFDB2AF3501424E96E000E34
:100C30001520EA6E490EEF6EFD0EDBCFE9FFFE0ECA
:100C4000DBCFEAFFE9CF14F0EACF15F0010EDBCFDE
:100C5000F3FFDB2AF3501424E96E000E1520EA6E30
:100C6000540EEF6EFD0EDBCFE9FFFE0EDBCFEAFF89
:100C7000E9CF14F0EACF15F0010EDBCFF3FFDB2A4A
:100C8000F3501424E96E000E1520EA6E590EEF6E33
:100C9000FD0EDBCFE9FFFE0EDBCFEAFFE9CF14F05C
:100CA000EACF15F0010EDBCFF3FFDB2AF35014245B
:100CB000E96E000E1520EA6E3B0EEF6EB2D0FD0E0F
:100CC000DBCFE9FFFE0EDBCFEAFFE9CF14F0EACF7E
:100CD00015F0010EDBCFF3FFDB2AF3501424E96E8D
:100CE000000E1520EA6E230EEF6E9BD0FD0EDBCFBB
:100CF000E9FFFE0EDBCFEAFFE9CF14F0EACF15F0F3
:100D0000010EDBCFF3FFDB2AF3501424E96E000E53
:100D10001520EA6E4F0EEF6EFD0EDBCFE9FFFE0EE3
:100D2000DBCFEAFFE9CF14F0EACF15F0010EDBCFFD
:100D3000F3FFDB2AF3501424E96E000E1520EA6E4F
:100D4000540EEF6EFD0EDBCFE9FFFE0EDBCFEAFFA8
:100D5000E9CF14F0EACF15F0010EDBCFF3FFDB2A69
:100D6000F3501424E96E000E1520EA6E480EEF6E63
:100D7000FD0EDBCFE9FFFE0EDBCFEAFFE9CF14F07B
:100D8000EACF15F0010EDBCFF3FFDB2AF35014247A
:100D9000E96E000E1520EA6E450EEF6EFD0EDBCFFC
:100DA000E9FFFE0EDBCFEAFFE9CF14F0EACF15F042
:100DB000010EDBCFF3FFDB2AF3501424E96E000EA3
:100DC0001520EA6E520EEF6EFD0EDBCFE9FFFE0E30
:100DD000DBCFEAFFE9CF14F0EACF15F0010EDBCF4D
:100DE000F3FFDB2AF3501424E96E000E1520EA6E9F
:100DF000530EEF6EFD0EDBCFE9FFFE0EDBCFEAFFF9
:100E0000E9CF14F0EACF15F0010EDBCFF3FFDB2AB8
:100E1000F3501424E96E000E1520EA6E3B0EEF6EBF
:100E200000D0020EDB2ADF501D0DF3CFE9FFF4CF17
:100E3000EAFF170EE926010EEA22E9CF14F0EACF05
:100E400015F0020EDB501424E96E000E1520EA6E38
:100E5000EF5030E0DF501D0DF3CFE9FFF4CFEAFF94
:100E6000170EE926010EEA22E9CF16F0EACF17F0B5
:100E7000020EDB501624E96E000E1720EA6EEF50CA
:100E8000E66EFD0EDBCFE9FFFE0EDBCFEAFFE9CF1A
:100E900014F0EACF15F0010EDB501424E96E000EB9
:100EA0001520EA6EE552E750EF6E010EDB2A020EC6
:100EB000DB2AB9D7FD0EDBCFE9FFFE0EDBCFEAFF61
:100EC000E9CF14F0EACF15F0010EDB501424E96EDF
:100ED000000E1520EA6EEF6ADFCF6FF1FD0EDBCF5B
:100EE000E9FFFE0EDBCFEAFF200EE926000EEA2224
:100EF0006FC1EFFF00D0040EE15C02E2E16AE5524F
:100F0000E16EE552E7CFD9FF1200D9CFE6FFE1CF7E
:100F1000D9FF040EE126FD0EDBCFE9FFFE0EDBCF8D
:100F2000EAFF200EE926000EEA22EF28DF6E010E0E
:100F3000DB6AF36E020EF3CFDBFF030EDF5C01E32F
:100F4000DF6AFD0EDBCFE9FFFE0EDBCFEAFF200EEE
:100F5000E926000EEA22EF68030EDB6AF36EDBCFB0
:100F6000F4FFF350F45C01E336D3030E146E14C0A7
:100F70000EF0DFCF09F0F1EC26F00550DF6EDF5008
:100F80001D0DF3CFE9FFF4CFEAFF170EE926010E9E
:100F9000EA221B0EE926000EEA22EF5010E0DF5095
:100FA0001D0DF3CFE9FFF4CFEAFF170EE926010E7E
:100FB000EA221C0EE926000EEA22EF0404E1030EE9
:100FC000DB2ADF2ACBD7FD0EDBCFE9FFFE0EDBCF1E
:100FD000EAFFE9CF14F0EACF15F0010EDBCFF3FF03
:100FE000DB2AF3500F011424E96E000E1520EA6E7F
:100FF000490EEF6EFD0EDBCFE9FFFE0EDBCFEAFF01
:10100000E9CF14F0EACF15F0010EDBCFF3FFDB2AB6
:10101000F3501424E96E000E1520EA6E530EEF6EA5
:10102000FD0EDBCFE9FFFE0EDBCFEAFFE9CF14F0C8
:10103000EACF15F0010EDBCFF3FFDB2AF3501424C7
:10104000E96E000E1520EA6E530EEF6EFD0EDBCF3B
:10105000E9FFFE0EDBCFEAFFE9CF14F0EACF15F08F
:10106000010EDBCFF3FFDB2AF3501424E96E000EF0
:101070001520EA6E550EEF6EFD0EDBCFE9FFFE0E7A
:10108000DBCFEAFFE9CF14F0EACF15F0010EDBCF9A
:10109000F3FFDB2AF3501424E96E000E1520EA6EEC
:1010A000450EEF6EFD0EDBCFE9FFFE0EDBCFEAFF54
:1010B000E9CF14F0EACF15F0010EDBCFF3FFDB2A06
:1010C000F3501424E96E000E1520EA6E3A0EEF6E0E
:1010D000DF501D0DF3CFE9FFF4CFEAFF170EE9262D
:1010E000010EEA22E9CF14F0EACF15F0020EDB5030
:1010F0001424E96E000E1520EA6EEF50330A01E168
:1011000094D1010A01E1E0D0030A01E055D2FD0EBD
:10111000DBCFE9FFFE0EDBCFEAFFE9CF14F0EACF29
:1011200015F0010EDBCFF3FFDB2AF3501424E96E38
:10113000000E1520EA6E420EEF6EFD0EDBCFE9FFCA
:10114000FE0EDBCFEAFFE9CF14F0EACF15F0010E77
:10115000DBCFF3FFDB2AF3501424E96E000E1520D9
:10116000EA6E520EEF6EFD0EDBCFE9FFFE0EDBCF17
:10117000EAFFE9CF14F0EACF15F0010EDBCFF3FF61
:10118000DB2AF3501424E96E000E1520EA6E450E9A
:10119000EF6EFD0EDBCFE9FFFE0EDBCFEAFFE9CFFE
:1011A00014F0EACF15F0010EDBCFF3FFDB2AF3508A
:1011B0001424E96E000E1520EA6E410EEF6EFD0E4E
:1011C000DBCFE9FFFE0EDBCFEAFFE9CF14F0EACF79
:1011D00015F0010EDBCFF3FFDB2AF3501424E96E88
:1011E000000E1520EA6E4B0EEF6EFD0EDBCFE9FF11
:1011F000FE0EDBCFEAFFE9CF14F0EACF15F0010EC7
:10120000DBCFF3FFDB2AF3501424E96E000E152028
:10121000EA6E440EEF6EFD0EDBCFE9FFFE0EDBCF74
:10122000EAFFE9CF14F0EACF15F0010EDBCFF3FFB0
:10123000DB2AF3501424E96E000E1520EA6E4F0EDF
:10124000EF6EFD0EDBCFE9FFFE0EDBCFEAFFE9CF4D
:1012500014F0EACF15F0010EDBCFF3FFDB2AF350D9
:101260001424E96E000E1520EA6E570EEF6EFD0E87
:10127000DBCFE9FFFE0EDBCFEAFFE9CF14F0EACFC8
:1012800015F0010EDBCFF3FFDB2AF3501424E96ED7
:10129000000E1520EA6E4E0EEF6EFD0EDBCFE9FF5D
:1012A000FE0EDBCFEAFFE9CF14F0EACF15F0010E16
:1012B000DBCFF3FFDB2AF3501424E96E000E152078
:1012C000EA6E3B0EEF6E78D1FD0EDBCFE9FFFE0E2E
:1012D000DBCFEAFFE9CF14F0EACF15F0010EDBCF48
:1012E000F3FFDB2AF3501424E96E000E1520EA6E9A
:1012F000510EEF6EFD0EDBCFE9FFFE0EDBCFEAFFF6
:10130000E9CF14F0EACF15F0010EDBCFF3FFDB2AB3
:10131000F3501424E96E000E1520EA6E550EEF6EA0
:10132000FD0EDBCFE9FFFE0EDBCFEAFFE9CF14F0C5
:10133000EACF15F0010EDBCFF3FFDB2AF3501424C4
:10134000E96E000E1520EA6E410EEF6EFD0EDBCF4A
:10135000E9FFFE0EDBCFEAFFE9CF14F0EACF15F08C
:10136000010EDBCFF3FFDB2AF3501424E96E000EED
:101370001520EA6E4C0EEF6EFD0EDBCFE9FFFE0E80
:10138000DBCFEAFFE9CF14F0EACF15F0010EDBCF97
:10139000F3FFDB2AF3501424E96E000E1520EA6EE9
:1013A000490EEF6EFD0EDBCFE9FFFE0EDBCFEAFF4D
:1013B000E9CF14F0EACF15F0010EDBCFF3FFDB2A03
:1013C000F3501424E96E000E1520EA6E540EEF6EF1
:1013D000FD0EDBCFE9FFFE0EDBCFEAFFE9CF14F015
:1013E000EACF15F0010EDBCFF3FFDB2AF350142414
:1013F000E96E000E1520EA6E590EEF6EFD0EDBCF82
:10140000E9FFFE0EDBCFEAFFE9CF14F0EACF15F0DB
:10141000010EDBCFF3FFDB2AF3501424E96E000E3C
:101420001520EA6E3B0EEF6EC7D0FD0EDBCFE9FF55
:10143000FE0EDBCFEAFFE9CF14F0EACF15F0010E84
:10144000DBCFF3FFDB2AF3501424E96E000E1520E6
:10145000EA6E4D0EEF6EFD0EDBCFE9FFFE0EDBCF29
:10146000EAFFE9CF14F0EACF15F0010EDBCFF3FF6E
:10147000DB2AF3501424E96E000E1520EA6E410EAB
:10148000EF6EFD0EDBCFE9FFFE0EDBCFEAFFE9CF0B
:1014900014F0EACF15F0010EDBCFF3FFDB2AF35097
:1014A0001424E96E000E1520EA6E540EEF6EFD0E48
:1014B000DBCFE9FFFE0EDBCFEAFFE9CF14F0EACF86
:1014C00015F0010EDBCFF3FFDB2AF3501424E96E95
:1014D000000E1520EA6E450EEF6EFD0EDBCFE9FF24
:1014E000FE0EDBCFEAFFE9CF14F0EACF15F0010ED4
:1014F000DBCFF3FFDB2AF3501424E96E000E152036
:10150000EA6E520EEF6EFD0EDBCFE9FFFE0EDBCF73
:10151000EAFFE9CF14F0EACF15F0010EDBCFF3FFBD
:10152000DB2AF3501424E96E000E1520EA6E490EF2
:10153000EF6EFD0EDBCFE9FFFE0EDBCFEAFFE9CF5A
:1015400014F0EACF15F0010EDBCFF3FFDB2AF350E6
:101550001424E96E000E1520EA6E410EEF6EFD0EAA
:10156000DBCFE9FFFE0EDBCFEAFFE9CF14F0EACFD5
:1015700015F0010EDBCFF3FFDB2AF3501424E96EE4
:10158000000E1520EA6E4C0EEF6EFD0EDBCFE9FF6C
:10159000FE0EDBCFEAFFE9CF14F0EACF15F0010E23
:1015A000DBCFF3FFDB2AF3501424E96E000E152085
:1015B000EA6E3B0EEF6E00D0DFCF6FF1FD0EDBCF9A
:1015C000E9FFFE0EDBCFEAFF200EE926000EEA223D
:1015D0006FC1EFFF00D0040EE15C02E2E16AE55268
:1015E000E16EE552E7CFD9FF1200D9CFE6FFE1CF98
:1015F000D9FF070EE126FE0EDB501D0DF3CFE9FFEC
:10160000F4CFEAFF170EE926010EEA22E9CF14F023
:10161000EACF15F0050E14C0DBFF060E15C0DBFF88
:1016200001010051030A01E190D0020A01E046D114
:10163000050EDBCFE6FF060EDBCFE6FF5BEC10F01E
:10164000E552E552E76E020EE7CFDBFF020EDB50FC
:10165000FF0801E179D0050EDBCFE6FF060EDBCFF8
:10166000E6FFEBEC0FF0E552E552190EE66EE66A86
:10167000E66A020EDB501D0DF3CFE9FFF4CFEAFF5F
:10168000170EE926010EEA22E9CF14F0EACF15F091
:1016900014C0E6FF15C0E6FFAAEC23F0166E050E97
:1016A000E15E16500400020EDB501D0DF3CF14F066
:1016B000F4CF15F0170E1426010E1522030E14C0D8
:1016C000DBFF040E15C0DBFF010EDB6A1D0EF36E9F
:1016D000010EDBCFF4FFF350F45C25E2010EDB508A
:1016E000E76E030EDBCFE9FF040EDBCFEAFFE75026
:1016F000E926000EEA22EF50E66E010EDBCFE6FF90
:10170000020EDB501D0DF350E552E724E66EE66A4B
:1017100055EC25F0E552E552E55215EC27F00400B2
:10172000010EDB2AD3D7010101510DE10101006B4C
:10173000E66AE66AE66A010EE66E3BEC10F0E552F8
:10174000E552E552E552D3D0BAD0050EDBCFE6FF25
:10175000060EDBCFE6FF5BEC10F0E552E552E76EDC
:10176000020EE7CFDBFF020EDB50FF0801E1A5D040
:10177000050EDBCFE6FF060EDBCFE6FFEBEC0FF04E
:10178000E552E552190EE66EE66AE66A020EDB5095
:101790001D0DF3CFE9FFF4CFEAFF170EE926010E86
:1017A000EA22E9CF14F0EACF15F014C0E6FF15C025
:1017B000E6FFAAEC23F0166E050EE15E165004005B
:1017C000020EDB501D0DF3CF14F0F4CF15F0170E01
:1017D0001426010E1522030E14C0DBFF040E15C0E3
:1017E000DBFF010EDB6A1D0EF36E010EDBCFF4FF93
:1017F000F350F45C25E2010EDB50E76E030EDBCF05
:10180000E9FF040EDBCFEAFFE750E926000EEA22EB
:10181000EF50E66E010EDBCFE6FF020EDB501D0D32
:10182000F350E552E724E66EE66A55EC25F0E55202
:10183000E552E55215EC27F00400010EDB2AD3D760
:101840000101025120E1010101510EE10101006B92
:10185000E66AE66AE66A010EE66E3BEC10F0E552D7
:10186000E552E552E5520ED00101010E006FE66A25
:10187000E66A010EE66EE66A3BEC10F0E552E552D0
:10188000E552E55219D0010101510BE1E66A010E62
:10189000E66EE66AE66AEFDBE552E552E552E552AE
:1018A0000BD0E66A010EE66E010EE66EE66AE3DB39
:1018B000E552E552E552E5521AD001D000D0DF6A78
:1018C000030EDF5C14E2DF501D0DF3CFE9FFF4CF10
:1018D000EAFF170EE926010EEA221C0EE926000E89
:1018E000EA22EF0402E18C8002D0DF2AE9D7070E5A
:1018F000E15C02E2E16AE552E16EE552E7CFD9FF31
:101900001200D9CFE6FFE1CFD9FF050EE126DF6A4D
:10191000030EDF5C37E2DF501D0DF3CFE9FFF4CF9C
:10192000EAFF170EE926010EEA221B0EE926000E39
:10193000EA22EF5025E0DF501D0DF3CFE9FFF4CF91
:10194000EAFF170EE926010EEA22E9CF14F0EACFEA
:1019500015F014C0E6FF15C0E6FFFD0EDBCFE6FF75
:10196000FE0EDBCFE6FFC4EC23F0E552E552E55274
:10197000E552000905E1DFCFE6FF37DEE552DFD0B3
:10198000DF2AC6D7DF6A030EDF5C01E3D2D0DF5067
:101990001D0DF3CFE9FFF4CFEAFF170EE926010E84
:1019A000EA221B0EE926000EEA22EF5001E0BFD02A
:1019B000DF501D0DF3CFE9FFF4CFEAFF170EE92644
:1019C000010EEA221B0EE926000EEA22010EEF6E3E
:1019D000350EF66E4E0EF76E0900F5CF14F00800C6
:1019E000F5CF15F0DF501D0DF3CFE9FFF4CFEAFF7F
:1019F000170EE926010EEA22190EE926000EEA2248
:101A000014C0EEFF15C0EDFFDF501D0DF3CFE9FF51
:101A1000F4CFEAFF170EE926010EEA221C0EE92692
:101A2000000EEA22010EEF6EFD0EDBCFE6FFFE0E8A
:101A3000DBCFE6FFDF501D0DF3CFE9FFF4CFEAFF68
:101A4000170EE926010EEA22E9CF14F0EACF15F0CD
:101A500014C0E6FF15C0E6FFE4EC23F0E552E552C2
:101A6000E552E552DF501D0DF3CF14F0F4CF15F021
:101A7000170E1426010E1522030E14C0DBFF040EF0
:101A800015C0DBFF010EDB6A1D0EF36E010EDBCF0E
:101A9000F4FFF350F45C24E2010EDB50E76E030E1A
:101AA000DBCFE9FF040EDBCFEAFFE750E926000EAB
:101AB000EA22EF50E66E010EDBCFE6FF1D0EDF02DD
:101AC000F350E552E724E66EE66A55EC25F0E55260
:101AD000E552E55215EC27F00400010EDB2AD4D7BD
:101AE0000101012B010102510CE1010EE66EE66AD3
:101AF000010EE66EE66ABFDAE552E552E552E552BE
:101B00000CD0010EE66E010EE66E010EE66EE66A80
:101B1000B2DAE552E552E552E552FD0EDBCFE6FFC3
:101B2000FE0EDBCFE6FF57DAE552E55202D0DF2AA0
:101B30002AD70101025103E10101010E006F050ED8
:101B4000E15C02E2E16AE552E16EE552E7CFD9FFDE
:101B50001200D9CFE6FFE1CFD9FF050EE126020E34
:101B6000E76EFD0EDBCFE9FFFE0EDBCFEAFFE750AD
:101B7000E926000EEA22EF5030080AE1FD0EDBCF25
:101B8000E6FFFE0EDBCFE6FF26DAE552E55251D145
:101B900001010051030A01E194D0020A01E048D199
:101BA000DF6A030EDF5C01E38BD0FD0EDBCFE6FFC7
:101BB000FE0EDBCFE6FF7FDAE552E552E76E020E5E
:101BC000E7CFDBFF020EDB50FF0801E177D0FD0E0F
:101BD000DBCFE6FFFE0EDBCFE6FFFDD9E552E55297
:101BE000190EE66EE66AE66A020EDB501D0DF3CFB3
:101BF000E9FFF4CFEAFF170EE926010EEA22E9CF4A
:101C000014F0EACF15F014C0E6FF15C0E6FFAAEC09
:101C100023F0166E050EE15E16500400020EDB5036
:101C20001D0DF3CF14F0F4CF15F0170E1426010E8E
:101C30001522030E14C0DBFF040E15C0DBFF010EDE
:101C4000DB6A1D0EF36E010EDBCFF4FFF350F45C84
:101C500025E2010EDB50E76E030EDBCFE9FF040E39
:101C6000DBCFEAFFE750E926000EEA22EF50E66EEE
:101C7000010EDBCFE6FF020EDB501D0DF350E552E7
:101C8000E724E66EE66A55EC25F0E552E552E552AA
:101C900015EC27F00400010EDB2AD3D70101015116
:101CA0000CE10101006BE66AE66AE66A010EE66E87
:101CB000E2D9E552E552E552E552BBD0DF2A71D7B1
:101CC000B8D0DF6A030EDF5C01E3B1D0FD0EDBCFDD
:101CD000E6FFFE0EDBCFE6FFEED9E552E552E76EFA
:101CE000020EE7CFDBFFFD0EDBCFE6FFFE0EDBCF04
:101CF000E6FF71D9E552E552190EE66EE66AE66A2C
:101D0000020EDB501D0DF3CFE9FFF4CFEAFF170EF3
:101D1000E926010EEA22E9CF14F0EACF15F014C04B
:101D2000E6FF15C0E6FFAAEC23F0166E050EE15E95
:101D300016500400020EDB501D0DF3CF14F0F4CF4B
:101D400015F0170E1426010E1522030E14C0DBFF2A
:101D5000040E15C0DBFF010EDB6A1D0EF36E010ED3
:101D6000DBCFF4FFF350F45C25E2010EDB50E76EAD
:101D7000030EDBCFE9FF040EDBCFEAFFE750E926D5
:101D8000000EEA22EF50E66E010EDBCFE6FF020EF8
:101D9000DB501D0DF350E552E724E66EE66A55EC84
:101DA00025F0E552E552E55215EC27F00400010E4E
:101DB000DB2AD3D7010102511EE1010101510DE1DE
:101DC0000101006BE66AE66AE66A010EE66E53D927
:101DD000E552E552E552E5520DD00101010E006FCA
:101DE000E66AE66A010EE66EE66A45D9E552E55214
:101DF000E552E55219D0010101510BE1E66A010EED
:101E0000E66EE66AE66A37D9E552E552E552E552F2
:101E10000BD0E66A010EE66E010EE66EE66A2BD97D
:101E2000E552E552E552E55204D0DF2A4BD701D006
:101E300000D0050EE15C02E2E16AE552E16EE55296
:101E4000E7CFD9FF1200D9CFE6FFE1CFD9FF020ECD
:101E5000E12601017551745D0BE1FD0EDBCFE9FF59
:101E6000FE0EDBCFEAFFEE6AED6A010EDB6A2FD0D1
:101E70007451190DF3CF14F0F4CF15F0760E14262B
:101E8000010E1522FD0EDBCFE9FFFE0EDBCFEAFFD0
:101E900014C0EEFF15C0EDFF7451190DF3CF14F00F
:101EA000F4CF15F0760E1426010E152214C0E6FFAD
:101EB00015C0E6FF1EEC24F0E552E552010EF3CF0B
:101EC000DBFF0101742B0A0E745D01E3746B010EDC
:101ED000DB50146E020EE15C03E200D0E16AE552D1
:101EE000E16E1450E552E7CFD9FF1200D9CFE6FFDB
:101EF000E1CFD9FF0101710502E1000E0AD0010E08
:101F0000716FFE0EDBCF73F1FD0EDBCF72F1010EB0
:101F100000D0E552E7CFD9FF1200D9CFE6FFE1CFDD
:101F2000D9FFE652FE0EDB501D0DF3CFE9FFF4CFD3
:101F3000EAFF170EE926010EEA221C0EE926000E22
:101F4000EA22EF6ADF6A030EDF5C3FE2DF501D0D1D
:101F5000F3CFE9FFF4CFEAFF170EE926010EEA22DC
:101F60001C0EE926000EEA22EF040FE1DF501D0DE2
:101F7000F3CFE9FFF4CFEAFF170EE926010EEA22BC
:101F80001C0EE926000EEA22EF6ADF501D0DF3CF8A
:101F9000E9FFF4CFEAFF170EE926010EEA221C0E34
:101FA000E926000EEA22EF50E66E1D0EDF02F35026
:101FB0001C0FE66EE66A55EC25F0E552E552E55257
:101FC00015EC27F00400DF2ABED78C90E552E552CD
:101FD000E7CFD9FF1200D9CFE6FFE1CFD9FFE65214
:101FE000DF6AFD0EDBCFE9FFFE0EDBCFEAFFEF502D
:101FF00024E0FD0EDBCFE9FFFE0EDBCFEAFFEF5062
:10200000E66E01017551190DF3CF14F0F4CF15F000
:10201000760E1426010E1522DF500F011424E96EEE
:10202000000E1520EA6EE552E750EF6EDF2AFD0E36
:10203000DB2AFE0E01E3DB2AD4D701017551190D0D
:10204000F3CF14F0F4CF15F0760E1426010E1522FE
:10205000DF500F011424E96E000E1520EA6EEF6ABE
:102060000101752B0A0E755D01E3756BE552E552B2
:10207000E7CFD9FF1200D9CFE6FFE1CFD9FFFE0E9F
:10208000DB50E8B08A8AE8A08A9AFD0EDB50E8B0FF
:102090008A88E8A08A98FC0EDB50E8B08A86E8A01F
:1020A0008A96FB0EDB50E8B08C80E8A08C90E5525D
:1020B000E7CFD9FF1200D9CFE6FFE1CFD9FF040E59
:1020C000E126DF6A030EDF5C01E379D0DF501D0DEE
:1020D000F3CFE9FFF4CFEAFF170EE926010EEA225B
:1020E0001B0EE926000EEA22EF5067E0DF501D0DBF
:1020F000F3CFE9FFF4CFEAFF170EE926010EEA223B
:10210000E9CF14F0EACF15F014C0E6FF15C0E6FFE2
:10211000FD0EDBCFE6FFFE0EDBCFE6FFC4EC23F0C7
:10212000E552E552E552E552000947E1DF501D0D49
:10213000F3CFE9FFF4CFEAFF170EE926010EEA22FA
:102140001B0EE926000EEA22EF0403E1010101075C
:1021500013D0DF501D0DF3CFE9FFF4CFEAFF170EC8
:10216000E926010EEA221B0EE926000EEA22EF50B4
:10217000030802E101010207DF501D0DF3CFE9FF63
:10218000F4CFEAFF170EE926010EEA221B0EE9261C
:10219000000EEA22EF6ADF501D0DF3CFE9FFF4CF06
:1021A000EAFF170EE926010EEA22190EE926000EB3
:1021B000EA22EE6AED6ADF5004D0DF2A83D7FF0EF1
:1021C00000D0146E040EE15C02E2E16AE552E16EB9
:1021D0001450E552E7CFD9FF1200D9CFE6FFE1CF87
:1021E000D9FF020EE126010EDB6ADF6A030EDF5C17
:1021F0005BE2DF501D0DF3CFE9FFF4CFEAFF170ECE
:10220000E926010EEA221B0EE926000EEA22EF045F
:1022100049E1DF501D0DF3CFE9FFF4CFEAFF170EC0
:10222000E926010EEA22190EE926000EEA22EE50F6
:10223000ED1038E10101022B01010107DF501D0DF6
:10224000F3CFE9FFF4CFEAFF170EE926010EEA22E9
:102250001B0EE926000EEA22030EEF6EDF501D0D65
:10226000F3CFE9FFF4CFEAFF170EE926010EEA22C9
:102270001B0EE926000EEA22EF50E66E1D0EDF026D
:10228000F3501B0FE66EE66A55EC25F0E552E55279
:10229000E55215EC27F004000101030E006FDE5239
:1022A000010EDD6EDF2AA2D7010EDB5000D0146EC6
:1022B000020EE15C02E2E16AE552E16E1450E55281
:1022C000E7CFD9FF1200D9CFE6FFE1CFD9FFE65221
:1022D000DF6A030EDF5C41E2DF501D0DF3CFE9FF43
:1022E000F4CFEAFF170EE926010EEA221B0EE926BB
:1022F000000EEA22EF502FE0DF501D0DF3CFE9FF73
:10230000F4CFEAFF170EE926010EEA22E9CF14F016
:10231000EACF15F014C0E6FF15C0E6FFFD0EDBCFD7
:10232000E6FFFE0EDBCFE6FFC4EC23F0E552E552FC
:10233000E552E55200090FE1DF501D0DF3CFE9FF33
:10234000F4CFEAFF170EE926010EEA221C0EE92659
:10235000000EEA22EF6ADF2ABCD7E552E552E7CF4A
:10236000D9FF1200D9CFE6FFE1CFD9FFFD0EDBCFB9
:10237000E6FFFE0EDBCFE6FF0D0EE66E010EE66E0B
:10238000C4EC23F0E552E552E552E552000902E0C3
:10239000000E02D0010E00D0E552E7CFD9FF1200A7
:1023A000D9CFE6FFE1CFD9FF020EE1260101006B94
:1023B0000101016B0101026B0101036B046B056BF1
:1023C000066B0101076B086B096B0A6B01016F6BF0
:1023D0000101756B0101746BDE6ADD6ADECF14F0FA
:1023E000DDCF15F0030E145C000E155870E2DECF41
:1023F000E9FFDDCFEAFF1D0EEA02F3CFEAFF1D0E73
:10240000E902F3CFE9FFF450EA26170EE926010EA0
:10241000EA221B0EE926000EEA22EF6ADECFE9FF70
:10242000DDCFEAFF1D0EEA02F3CFEAFF1D0EE9023F
:10243000F3CFE9FFF450EA26170EE926010EEA224F
:10244000190EE926000EEA22EE6AED6ADECFE9FFF8
:10245000DDCFEAFF1D0EEA02F3CFEAFF1D0EE9020F
:10246000F3CFE9FFF450EA26170EE926010EEA221F
:102470001C0EE926000EEA22EF6A190EE66EE66AE5
:10248000E66ADECFE9FFDDCFEAFF1D0EEA02F3CFF9
:10249000EAFF1D0EE902F3CFE9FFF450EA26170E1A
:1024A000E926010EEA22E9CF14F0EACF15F014C0B4
:1024B000E6FF15C0E6FFAAEC23F0166E050EE15EFE
:1024C00016500400DF2A010E01E3DB2A87D7DE6AFB
:1024D000DD6ADECF14F0DDCF15F0570E145C000E70
:1024E000155812E2E66ADECFE6FFDDCFE6FF55ECD7
:1024F00025F0E552E552E55215EC27F00400DF2AFD
:10250000010E01E3DB2AE5D701016E050BE1E66A66
:10251000E66AE66A010EE66EAEDDE552E552E55288
:10252000E55209D0E66AE66AE66AE66AA4DDE552A3
:10253000E552E552E552020EE15C02E2E16AE55243
:10254000E16EE552E7CFD9FF1200D9CFE6FFE1CF28
:10255000D9FF030EE126FD0EDBCFE9FFFE0EDBCF38
:10256000EAFF010EEFCFDBFF020EDB6A010EDB504C
:10257000A00A65E0010A57E0030A23E0220A0BE003
:10258000020EDB6AFB0EDBCFE9FFFC0EDBCFEAFFBE
:10259000920EEF6E5FD0F90EDBCFE6FFFA0EDBCFC7
:1025A000E6FF51DCE552E552E76E020EE7CFDBFFB6
:1025B000FB0EDBCFE9FFFC0EDBCFEAFF800EEF6EF8
:1025C00049D0010EE76EFD0EDBCF14F0FE0EDBCF1F
:1025D00015F0E7501426000E152214C0E6FF15C0B2
:1025E000E6FF71DEE552E552010EE76EFD0EDBCF30
:1025F00014F0FE0EDBCF15F0E7501426000E152266
:1026000014C0E6FF15C0E6FFA9EC0DF0E552E55257
:10261000FB0EDBCFE9FFFC0EDBCFEAFFA20EEF6E75
:10262000020EDB6A17D0BCDEFB0EDBCFE9FFFC0E2F
:10263000DBCFEAFFA10EEF6E020EDB6A0BD0020EBB
:10264000DB6AFB0EDBCFE9FFFC0EDBCFEAFFA00E5F
:10265000EF6E00D0020EDB50146E030EE15C03E25D
:1026600000D0E16AE552E16E1450E552E7CFD9FFA0
:02267000120056
:0E267200080EE66EC2EC1CF0E55273EC1AF096
:1026800086EC1AF00401050E006F040EE66EC5EC30
:102690001AF0E5521200D9CFE6FFE1CFD9FF0E0EB6
:1026A000E126DF68D950020FE66E000EDA20E66EF2
:1026B000D950030FE66E000EDA20E66EE9EC22F048
:1026C000E552E552E552E552000902E1F9EF17F053
:1026D000020EDBCFE6FF030EDBCFE6FF03EC18F0C4
:1026E000E552E552DF6EFF0EDF5C02E1F9EF17F015
:1026F000040100510C0A02E1DFEF17F0070A01E1C3
:10270000B4D3010A01E196D3070A01E15BD3050ABC
:1027100001E13FD30F0A01E161D2010A01E134D2A4
:10272000030A01E1D2D1060A01E1E3D0010A01E185
:102730008DD0030A32E0010A02E0F9EF17F00B0E28
:10274000DF5C29E1010EE66EC5EC1AF0E55273EC90
:102750001AF086EC1AF000C401F404014751472B2B
:10276000EA6A260FE96E040EEA22390EEF6E47512F
:10277000472BEA6A260FE96E040EEA22390EEF6E45
:102780004751472BEA6A260FE96E040EEA22300E03
:10279000EF6E010E006FF9EF17F0080EDF5C1CE121
:1027A000235100080CE2DFCFE6FFD4EC1CF0E55229
:1027B000040123074751020801E247070CD00151E9
:1027C0000AE1E66AC5EC1AF0E55273EC1AF086EC01
:1027D0001AF001C400F439D00A0EDF5C18E123516D
:1027E000000814E20C0EE66EC5EC1AF0E55273EC2C
:1027F0001AF004014751472BEA6A260FE96E040ECE
:10280000EA22EF6A010E016F0B0E006F1ED02351FA
:10281000EA6A020FE96E040EEA22DFCFEFFF2351CE
:10282000EA6A020FE96E040EEA22EF50E66ED4EC7B
:102830001CF0E55204014751472BEA6A260FE96E66
:10284000040EEA22DFCFEFFF232BD3D3080EDF5C89
:102850001EE1235100080CE2DFCFE6FFD4EC1CF0B0
:10286000E552040123074751020801E247070ED051
:10287000030E015D0BE1020EE66EC5EC1AF0E552A7
:1028800073EC1AF086EC1AF001C400F431D00A0E91
:10289000DF5C10E1235100080CE20C0EE66EC5EC83
:1028A0001AF0E55273EC1AF00401020E016F0B0EE0
:1028B000006F1ED02351EA6A020FE96E040EEA226D
:1028C000DFCFEFFF2351EA6A020FE96E040EEA221E
:1028D000EF50E66ED4EC1CF0E55204014751472B53
:1028E000EA6A260FE96E040EEA22DFCFEFFF232B00
:1028F00080D3080EDF5C2BE1235100080CE2DFCF10
:10290000E6FFD4EC1CF0E552040123074751000810
:1029100001E247071BD0690EE66E040EE66E85ECF9
:1029200007F0E552E552FF0E0401895D0FE0690EE4
:10293000E66E040EE66E97EC1AF0E552E55273EC83
:102940001AF086EC1AF004010D0E006FBDD0300EA7
:10295000DF5C35E12351000816E22351EA6A020FD9
:10296000E96E040EEA22DFCFEFFF2351EA6A020F7D
:10297000E96E040EEA22EF50E66ED4EC1CF0E5524C
:102980000401232B1BD0480EE66E040EE66E82EC8B
:1029900003F0E552E552FF0E0401685D0FE0480EBA
:1029A000E66E040EE66E97EC1AF0E552E55273EC13
:1029B0001AF086EC1AF00401080E006F85D00B0E99
:1029C000DF5C2CE1235129E1010EE66EC5EC1AF023
:1029D000E55273EC1AF086EC1AF004014751472BCC
:1029E000EA6A260FE96E040EEA22390EEF6E4751AD
:1029F000472BEA6A260FE96E040EEA22390EEF6EC3
:102A00004751472BEA6A260FE96E040EEA22300E80
:102A1000EF6E00C401F4020E006F56D00C0EDF5CA6
:102A20001CE1480EE66E040EE66E82EC03F0E55201
:102A3000E552FF0E0401685D0FE0480EE66E040EDD
:102A4000E66E97EC1AF0E552E55273EC1AF086EC5C
:102A50001AF00401080E006F37D00A0EDF5C1FE188
:102A6000235100081BE2FAEC19F000090DE1020EF7
:102A7000E66EC5EC1AF0E55273EC1AF086EC1AF02B
:102A80000401030E006F0AD0040EE66EC5EC1AF0C6
:102A9000E55273EC1AF00401050E006F15D02351B6
:102AA000EA6A020FE96E040EEA22DFCFEFFF23513C
:102AB000EA6A020FE96E040EEA22EF50E66ED4ECE9
:102AC0001CF0E5520401232B94D2300EDF5C14E19C
:102AD000235111E168C4E6FF8DEC0FF0E552040EBE
:102AE000E66EC5EC1AF0E55273EC1AF086EC1AF0BB
:102AF0000401050E006F47D04751EA6A260FE96EC0
:102B0000040EEA22300EEF6E472BDF50330A29E025
:102B1000010A15E0030A01E036D0050EE66E19EC55
:102B20001BF0E55204014751EA6A260FE96E040ED4
:102B3000EA22310EEF6E472B060E006F24D0060EF0
:102B4000E66E19EC1BF0E55204014751EA6A260FC4
:102B5000E96E040EEA22320EEF6E472B060E006F6E
:102B600012D0070EE66E19EC1BF0E5520401475136
:102B7000EA6A260FE96E040EEA22330EEF6E472B47
:102B8000060E006F00D035D2080EDF5C0DE1040E9A
:102B9000E66EC5EC1AF0E55273EC1AF00401050E6E
:102BA000006F4705476F19D00A0EDF5C16E144EC51
:102BB0001AF0260EE66E040EE66E81EC0CF0E5527D
:102BC000E552040EE66EC5EC1AF0E55273EC1AF00D
:102BD00086EC1AF00401050E006F0BD2080EDF5CC4
:102BE00018E12351000808E2DFCFE6FFD4EC1CF027
:102BF000E552040123070CD0040EE66EC5EC1AF072
:102C0000E55273EC1AF00401050E006F010E476FD8
:102C1000BFD00A0EDF5C1AE12351000816E244EC33
:102C20001AF0260EE66E040EE66E81EC0CF0E5520C
:102C3000E552040EE66EC5EC1AF0E55273EC1AF09C
:102C400086EC1AF00401050E006FA2D0030EDB50D3
:102C5000245D6DE1140EF36E020EDBCFF4FFF35032
:102C6000F45C36E223072351EA6A020FE96E040E90
:102C7000EA22DFCFEFFF080EE66ED4EC1CF0E5523F
:102C800004012351EA6A020FE96E040EEA22EF50B2
:102C9000E66ED4EC1CF0E552140EF36E050EF3CF85
:102CA000DBFF060EDB6A050EDBCF14F0DB06060E3B
:102CB000DBCF15F001E2DB061450151006E0080E1C
:102CC000E66EC3EC26F0E552EED70401232B2ED09E
:102CD0002351EA6A020FE96E040EEA22DFCFEFFF0A
:102CE0002351EA6A020FE96E040EEA22EF50E66E03
:102CF000D4EC1CF0E552140EF36E070EF3CFDBFF9D
:102D0000080EDB6A070EDBCF14F0DB06080EDBCF04
:102D100015F001E2DB061450151006E0080EE66E11
:102D2000C3EC26F0E552EED70401232B2ED023511D
:102D3000EA6A020FE96E040EEA22DFCFEFFF2351A9
:102D4000EA6A020FE96E040EEA22EF50E66ED4EC56
:102D50001CF0E552140EF36E090EF3CFDBFF0A0EE2
:102D6000DB6A090EDBCF14F0DB060A0EDBCF15F0B1
:102D700001E2DB061450151006E0080EE66EC3EC07
:102D800026F0E552EED70401232B030EDBCF24F40B
:102D900030D1480EE66E040EE66E82EC03F0E5528A
:102DA000E55268C4E6FF8DEC0FF0E5520401686956
:102DB000040EE66EEADBE55296DBA8DB0401050EA5
:102DC000006F17D1080EDF5C14E1690EE66E040E89
:102DD000E66E85EC07F0E552E552FF0E0401895DD1
:102DE00007E0690EE66E040EE66EA1DBE552E552E1
:102DF00020D0300EDF5C0AE1040EE66EC6DBE55241
:102E000072DB84DB0401050E006F13D00A0EDF5C59
:102E100010E189C4E6FFF5EC0AF0E5520401896986
:102E2000040EE66EB2DBE5525EDB70DB0401050EDC
:102E3000006FDFD0080EDF5C09E1020EE66EA5DB55
:102E4000E55251DB0401030E006F0ED00A0EDF5C69
:102E50000BE1D0EC11F047DB59DB020EE66E95DB9F
:102E6000E5520401030E006FC4D0080EDF5C1AE1C6
:102E7000010508E1E66A89DBE55235DB47DB040141
:102E8000006B0FD0020E015D03E0030E015D09E14E
:102E9000020EE66E7ADBE55226DB38DB0401030E18
:102EA000006F8CD00A0EDF5C01E079D02351EA6A12
:102EB000020FE96E040EEA22EF6A010528E10B0E0B
:102EC000DB6A260EE66E040EE66E020EE66E040E59
:102ED000E66EFCEC01F0E552E552E552E552E76E94
:102EE0000B0EE7CFDBFFDB040AE1020EE66E4DDBE3
:102EF000E552F9DA0BDB0401030E006F07D0E66A36
:102F000044DBE552F0DA02DB0401006B47D0020E2D
:102F1000015D28E10C0EDB6A260EE66E040EE66EFD
:102F2000020EE66E040EE66E43EC02F0E552E55248
:102F3000E552E552E76E0C0EE7CFDBFFDB0408E15C
:102F4000E66A23DBE552CFDAE1DA0401006B09D04F
:102F5000020EE66E1ADBE552C6DAD8DA0401030E79
:102F6000006F1CD0030E015D19E10D0EDB6A020E2D
:102F7000E66E040EE66EB2EC11F0E552E552E76E35
:102F80000D0EE7CFDBFFDB0409E10D0EE66EFDDA87
:102F9000E552A9DABBDA04010C0E006F0FD0235101
:102FA000EA6A020FE96E040EEA22DFCFEFFF2A0E73
:102FB000E66ED4EC1CF0E5520401232B1AD0080E67
:102FC000DF5C0AE1020EE66EE0DAE5528CDA9EDAA8
:102FD0000401030E006F0CD0300EDF5C09E10B0E14
:102FE000E66ED3DAE5527FDA91DA04010A0E006F59
:102FF00000D00E0EE15C02E2E16AE552E16EE552BC
:10300000E7CFD9FF1200D9CFE6FFE1CFD9FFE652D3
:10301000DF68040100510C0A01E1B5D1060A01E1A3
:103020009CD1010A01E18AD1020A01E163D1040ABB
:1030300001E144D1050A01E125D10F0A01E1F0D0F7
:10304000010A01E1D7D0030A01E1B2D0010A01E18E
:103050009AD0070A01E17ED0010A4AE0030A16E08D
:10306000010A01E0A9D1FE0EDB50040DF3CFF6FFFB
:10307000F4CFF7FF580EF6264B0EF7220800F55056
:10308000DF6E0B0EDF5C01E0DF6896D1FE0EDB50D9
:10309000245D10E1140EF36EFD0EDBCFF4FFF35050
:1030A000F45C06E2252B040E255D01E1256B01D0C1
:1030B000256B01D0256BFE0EDB50040DF3CF14F011
:1030C000F4CF15F0580E14264B0E152225510F0182
:1030D0001424F66E000E1520F76E0800F550DF6E12
:1030E0000B0EDF5C03E00C0EDF5C01E1DF6864D1F6
:1030F000FE0EDB50245D10E1140EF36EFD0EDBCFEF
:10310000F4FFF350F45C06E2252B040E255D01E18B
:10311000256B01D0256B01D0256BFE0EDB50040D15
:10312000F3CF14F0F4CF15F0580E14264B0E1522E1
:1031300025510F011424F66E000E1520F76E0800BD
:10314000F550DF6E0B0EDF5C03E00C0EDF5C01E17F
:10315000DF6832D1FE0EDB50040DF3CFF6FFF4CF63
:10316000F7FF580EF6264B0EF7220800F550DF6EDB
:10317000020E235D07E3080EDF5C04E00A0EDF5C4D
:1031800001E0DF6819D1FE0EDB50040DF3CFF6FF2E
:10319000F4CFF7FF580EF6264B0EF7220800F55035
:1031A000DF6E235104E10A0EDF5C01E1DF6804D128
:1031B000FE0EDB50040DF3CFF6FFF4CFF7FF580EF1
:1031C000F6264B0EF7220800F550DF6E300EDF5C5E
:1031D00010E0310EDF5C0DE0320EDF5C0AE0330EF2
:1031E000DF5C07E0080EDF5C04E00A0EDF5C01E054
:1031F000DF68E2D0FE0EDB50040DF3CFF6FFF4CF14
:10320000F7FF580EF6264B0EF7220800F550DF6E3A
:103210000A0EDF5C04E0080EDF5C01E0DF68CCD062
:10322000FE0EDB50245D10E1140EF36EFD0EDBCFBD
:10323000F4FFF350F45C06E2252B040E255D01E15A
:10324000256B01D0256B01D0256BFE0EDB50040DE4
:10325000F3CF14F0F4CF15F0580E14264B0E1522B0
:1032600025510F011424F66E000E1520F76E08008C
:10327000F550DF6E0C0EDF5C03E00B0EDF5C01E14E
:10328000DF689AD0FE0EDB50040DF3CFF6FFF4CFCB
:10329000F7FF580EF6264B0EF7220800F550DF6EAA
:1032A0000A0EDF5C0AE0080EDF5C07E00C0EDF5C54
:1032B00004E0300EDF5C01E0DF687ED0FE0EDB5004
:1032C000040DF3CFF6FFF4CFF7FF580EF6264B0EA2
:1032D000F7220800F550DF6E0A0EDF5C0AE0080EE8
:1032E000DF5C07E00C0EDF5C04E0300EDF5C01E029
:1032F000DF6862D0FE0EDB50040DF3CFF6FFF4CF93
:10330000F7FF580EF6264B0EF7220800F550DF6E39
:10331000020E235D08E20B0EDF5C03E00C0EDF5CA7
:1033200001E1DF680AD0020E235D07E3080EDF5CCF
:1033300004E00A0EDF5C01E0DF683ED0FE0EDB50E9
:10334000040DF3CFF6FFF4CFF7FF580EF6264B0E21
:10335000F7220800F550DF6E2FD0FE0EDB50040D73
:10336000F3CFF6FFF4CFF7FF580EF6264B0EF722F9
:103370000800F550DF6E0A0EDF5C04E0080EDF5C2B
:1033800001E0DF6819D0FE0EDB50040DF3CFF6FF2D
:10339000F4CFF7FF580EF6264B0EF7220800F55033
:1033A000DF6E300EDF5C07E0080EDF5C04E00A0E23
:1033B000DF5C01E0DF6800D0DF5000D0E552E5526D
:1033C000E7CFD9FF1200D9CFE6FFE1CFD9FFFE0E3C
:1033D000DB50030A01E00AD0020EE66ED6D8E552B1
:1033E00082D894D80401030E006F00D0E552E7CFD5
:1033F000D9FF1200D9CFE6FFE1CFD9FF020EE126B7
:10340000010EDB6A0401230513E14751EA6A260F26
:10341000E96E040EEA22300EEF6E472B4751EA6A3E
:10342000260FE96E040EEA2202C4EFFF472B12D0EA
:103430004751EA6A260FE96E040EEA2202C4EFFF42
:10344000472B4751EA6A260FE96E040EEA2203C4AD
:10345000EFFF472B300E275D146E300E265D0A0DF0
:10346000F3501424E76E010EE7CFDBFFDB50146E40
:10347000020EE15C03E200D0E16AE552E16E145015
:10348000E552E7CFD9FF1200D9CFE6FFE1CFD9FF50
:10349000E652DF6A04012351DF5C14E2DF50EA6A7E
:1034A000020FE96E040EEA22EF50E66E4751EA6A17
:1034B000260FE96E040EEA22E552E750EF6E472B25
:1034C000DF2AE8D74751EA6A260FE96E040EEA229E
:1034D000EF6A472B200E475D01E3476BE552E5524B
:1034E000E7CFD9FF1200200EE66EE66AE66A020E0A
:1034F000E66E040EE66EAAEC23F0146E050EE15E95
:1035000014500401236B256B24691200200EE66E13
:10351000E66AE66A260EE66E040EE66EAAEC23F074
:10352000146E050EE15E14500401476B1200D9CFF2
:10353000E6FFE1CFD9FFE652CDEC1CF0DF6ADF50A9
:10354000E76EFD0EDBCFE9FFFE0EDBCFEAFFE750B3
:10355000E926000EEA22EF5013E0DF50E76EFD0E81
:10356000DBCFE9FFFE0EDBCFEAFFE750E926000ED6
:10357000EA22EF50E66ED4EC1CF0E552DF2ADFD7EA
:10358000E552E552E7CFD9FF1200D9CFE6FFE1CFF0
:10359000D9FF150EE126CDEC1CF0FE0EEA6ADB34F5
:1035A000FE0BEA36E96EBD0EE926040EEA22EECFE6
:1035B00014F0EFCF15F0166A14C0E6FF15C0E6FF51
:1035C00016C0E6FFD950010FE66E000EDA20E66E57
:1035D00005EC24F0176E050EE15E1750DF6AD95036
:1035E000010F146EDACF15F0DF500F011424E96ECD
:1035F000000E1520EA6EEF5012E0D950010F146E44
:10360000DACF15F0DF501424E96E000E1520EA6EB3
:10361000EF50E66ED4EC1CF0E552DF2AE0D7150E31
:10362000E15C02E2E16AE552E16EE552E7CFD9FFE3
:103630001200D9CFE6FFE1CFD9FF030EE126FE0E3F
:10364000EA6ADB34FE0BEA36E96EBD0EE926040EAB
:10365000EA22010EEECFDBFF020EEDCFDBFFDF6AC9
:10366000DF50E76E010EDBCFF6FF020EDBCFF7FF78
:10367000E750F626000EF7220800F55014E0DF5060
:10368000E76E010EDBCFF6FF020EDBCFF7FFE75050
:10369000F626000EF7220800F550E66ED4EC1CF07A
:1036A000E552DF2ADDD7030EE15C02E2E16AE55272
:0A36B000E16EE552E7CFD9FF1200EA
:0636BA00D9CFE6FFE1CFCD
:1036C000D9FF030EE126300EF36E010EF3CFDBFFC0
:1036D000750EF36E020EF3CFDBFF010EDF6EDF041B
:1036E00025E105DA000000008396838400000000D5
:1036F0008382000000008350800B01E0010EDF6E2A
:1037000083928382000000008392010EDB06020E8A
:1037100001E2DB06D950010FE96EDACFEAFFEE5085
:10372000ED1003E1ECD9FF0E04D0D9D7E8D9000E93
:1037300000D0146E030EE15C02E2E16AE552E16E34
:103740001450E552E7CFD9FF1200D9CFE6FFE1CF01
:10375000D9FF839683940000FE0EDB50F00B146EAD
:103760000F0E8C1414108C6E000083820000000079
:103770008392E552E7CFD9FF1200D9CFE6FFE1CF20
:10378000D9FF9BDF839683940000FE0EDB50F00B85
:10379000146E0F0E8C1414108C6E000083820000C7
:1037A00000008392FE0EDB38F00BF00B146E0F0E50
:1037B0008C1414108C6E0000838200000000839231
:1037C000E552E7CFD9FF1200D9CFE6FFE1CFD9FF0D
:1037D00074DF838683940000FE0EDB50F00B146EC2
:1037E0000F0E8C1414108C6E0000838200000000F9
:1037F0008392FE0EDB38F00BF00B146E0F0E8C1460
:1038000014108C6E00008382000000008392E55249
:10381000E7CFD9FF1200D9CFE6FFE1CFD9FF0B0EDA
:10382000E1266DD9280EF36E010EF3CFDBFF020EF9
:10383000DB6A010EDBCF14F0DB06020EDBCF15F0E6
:1038400001E2DB061450151006E0080EE66EC3EC2C
:1038500026F0E552EED7300EE66E77DFE5520A0E1F
:10386000F36E030EF3CFDBFF040EDB6A030EDBCF38
:1038700014F0DB06040EDBCF15F001E2DB0614507A
:10388000151006E0080EE66EC3EC26F0E552EED702
:10389000300EE66E5ADFE5520A0EF36E050EF3CFD8
:1038A000DBFF060EDB6A050EDBCF14F0DB06060E2F
:1038B000DBCF15F001E2DB061450151006E0080E10
:1038C000E66EC3EC26F0E552EED7300EE66E3DDF35
:1038D000E5520A0EF36E070EF3CFDBFF080EDB6A2C
:1038E000070EDBCF14F0DB06080EDBCF15F001E28C
:1038F000DB061450151006E0080EE66EC3EC26F049
:10390000E552EED7200EE66E20DFE5520A0EF36E8A
:10391000090EF3CFDBFF0A0EDB6A090EDBCF14F0D2
:10392000DB060A0EDBCF15F001E2DB0614501510A2
:1039300006E0080EE66EC3EC26F0E552EED7280E40
:10394000E66E1BDFE552B9DEDF6EDF5010E10F0ED1
:10395000E66E13DFE552010EE66E0FDFE552040E50
:10396000E66E0BDFE552060EE66E07DFE5520B0E44
:10397000E15C03E200D0E16AE552E16EE552E7CF97
:10398000D9FF1200D9CFE6FFE1CFD9FFFE0EDBCF82
:103990008BF4E552E7CFD9FF1200010EE66EEDDEA3
:1039A000E55204018A6B1200D9CFE6FFE1CFD9FFBF
:1039B000E652FE0EDB5004018B5D23E18A5101E1EA
:1039C00037D0100E8A5D0EE1800EE66ED6DEE5522F
:1039D000DF6A100EDF5C06E2140EE66ECEDEE55204
:1039E000DF2AF7D7100EE66EC8DEE552200EE66E2F
:1039F000EBDEE552100EE66EC0DEE55204018A07EA
:103A000017D0100E8A5D05E1C00EE66EB6DEE552F7
:103A100008D0200E8A5D05E38A6B020EE66EADDEED
:103A2000E552FE0EDBCFE6FFCFDEE55204018A2B26
:103A3000E552E552E7CFD9FF1200EDDE010EE66E4A
:103A40009CDEE55204018A6B1200D9CFE6FFE1CF7C
:103A5000D9FFE652010EE66E90DEE552DF6A100EE7
:103A6000DF5C1CE2FD0EDBCFE9FFFE0EDBCFEAFFE1
:103A7000EF50E66EDF50EA6A8C0FE96E040EEA2220
:103A8000E552E750EF6EFD0EDBCFE9FFDB2AFE0EBD
:103A9000DBCFEAFF01E3DB2ADF2AE1D7C00EE66EC7
:103AA0006CDEE552DF6A100EDF5C1CE2FD0EDBCF40
:103AB000E9FFFE0EDBCFEAFFEF50E66EDF50EA6A69
:103AC0008C0FE96E040EEA22E552E750EF6EFD0E10
:103AD000DBCFE9FFDB2AFE0EDBCFEAFF01E3DB2AC7
:103AE000DF2AE1D7E552E552E7CFD9FF1200958EE4
:103AF000958C958A95889592959495961200959EA9
:0E3B0000959C959A959895929594959612009D
:023B0E00D9CF0D
:103B1000E6FFE1CFD9FF020EE126FE0EDBCF43F533
:103B2000FD0EDBCF44F5FC0EDBCF45F5FB0EDBCF06
:103B300046F5F90EDBCF87F5FA0EDBCF88F529D8ED
:103B4000DE6ADD6ADECF14F0DDCF15F0D8901550B7
:103B500004E61A0E145C000E15580FE2DECF14F0C6
:103B6000DDCF15F0410E1424E66EB3EC20F0E552E3
:103B7000DF2A010E01E3DB2AE5D7CFEC20F0020EAD
:103B8000E15C02E2E16AE552E16EE552E7CFD9FF7E
:103B90001200240EE66EF40EE66EE66AE66A4FEC5C
:103BA00020F0E552E552E552E5520501836B846B46
:103BB000010E426F856B86698DC589F58EC58AF5C4
:103BC0008FC58BF590C58CF542C591F51200D9CF04
:103BD000E6FFE1CFD9FF060EE126DF6A050142517B
:103BE000915D0BE1420509E0030E425D06E08607A8
:103BF000865102E1CEDFB7D001D086694251030A77
:103C000001E1ACD0010A13E0030A02E0C2DFA9D04F
:103C100010EC21F0000903E02DEC21F0DF6E05012E
:103C20004351DF5C03E1836B020E426F9AD010ECCC
:103C300021F0000901E197D0050186692DEC21F002
:103C4000DF6E05014451DF5C74E1020EDB6A030E96
:103C5000DB68D950030FE66E000EDA20E66E8DD8D1
:103C6000E552E552E76E020EE7CFDBFFDB50020ABA
:103C700054E0030A05E0010A01E057D08ADF73D05F
:103C800005018751881147E0D950040FE66E000EF8
:103C9000DA20E66E850EE66E050EE66E490EE66EDD
:103CA000050EE66E05D088C5FAFF05018751F96E4D
:103CB000FADF146E060EE15E14500501846FFA0EF1
:103CC000656F842B85C566F5842BDE52020EDD6E92
:103CD0008451F36E010EDBCFF4FFF350F45C1AE273
:103CE000040EDBCFE9FF050EDBCFEAFFEF50E66EF7
:103CF000010EDB50EA6A650FE96E050EEA22E55215
:103D0000E750EF6E040EDB2A050E01E3DB2A010EFD
:103D1000DB2ADED701D03DDF08D00501FA0E656F42
:103D2000842B85C566F5842B00D00501030E426FF8
:103D300014D08351832BEA6A470FE96E050EEA22FD
:103D4000DFCFEFFF1E0E835D08E3FA0E656F842B55
:103D5000900E666F842B030E426F03D05AD819DF82
:103D600000D042C591F5060EE15C02E2E16AE5523F
:103D7000E16EE552E7CFD9FF1200D9CFE6FFE1CFE0
:103D8000D9FF020EE12605018305EA6A470FE96EB5
:103D9000050EEA22EFCFDFFF010EDB6AFA0E475D68
:103DA00005E0FF0E475D02E0000E27D08305E66EBA
:103DB000470EE66E050EE66E9FD8E552E552E552D7
:103DC000E76E010EE7CFDBFFDB50DF5C0CE10501A6
:103DD00083078351EA6A470FE96E050EEA22EF6A0C
:103DE000010E0BD00AD0FD0EDBCFE9FFFE0EDBCFBC
:103DF000EAFF910EEF6E020E00D0146E020EE15C2F
:103E000002E2E16AE552E16E1450E552E7CFD9FFD4
:103E10001200D9CFE6FFE1CFD9FF020EE126DF6A1B
:103E2000010EDB6A84C5E6FF650EE66E050EE66EE2
:103E300063D8E552E552E552DF6E45C5E6FFB3ECC7
:103E400020F0E552010EDB6A05018451F36E010E8C
:103E5000DBCFF4FFF350F45C0FE2010EDB50EA6AB3
:103E6000650FE96E050EEA22EF50E66EB3EC20F026
:103E7000E552010EDB2AE8D7DFCFE6FFB3EC20F0F6
:103E8000E55246C5E6FFB3EC20F0E552CFEC20F05A
:103E90000400020EE15C02E2E16AE552E16EE552E5
:103EA000E7CFD9FF1200D9CFE6FFE1CFD9FFFD0E52
:103EB000DBCFF6FFFE0EDBCFF7FF0800F55016E074
:103EC000FD0EDBCFF6FFFE0EDBCFF7FF0800F5504F
:103ED000E66EB3EC20F0E552FD0EDBCFF6FFDB2AF9
:103EE000FE0EDBCFF7FF01E3DB2AE1D7CFEC20F0BA
:103EF000E552E7CFD9FF1200D9CFE6FFE1CFD9FFD6
:103F0000030EE126DF6A010EDB6AFC0EDB50F36E66
:103F1000010EDBCFF4FFF350F45C12E2010EDB5034
:103F2000E76EFD0EDBCFE9FFFE0EDBCFEAFFE750C9
:103F3000E926000EEA22EF50DF1A010EDB2AE5D750
:103F4000DF50146E030EE15C03E200D0E16AE5523B
:0C3F5000E16E1450E552E7CFD9FF1200DB
:043F5C00DACFE4FFD5
:103F6000E2CFDAFFE9CFE4FFEACFE4FFF6CFE4FFE8
:103F7000F7CFE4FFF5CFE4FFF3CFE4FFF4CFE4FFA6
:103F8000FACFE4FF00EE00F0140EE80403E3EECFF6
:103F9000E4FFFBD700EE14F0040EE80403E3EECFD9
:103FA000E4FFFBD7E652D9CFE6FFE1CFD9FFE652D7
:103FB00032EC26F0DF6E05012151212BEA6A240F35
:103FC000E96E050EEA22DFCFEFFF1E0E215D01E351
:103FD000216B232B9E9AE552E552E7CFD9FFE5529C
:103FE00000EE17F0040EE80403E3E5CFEDFFFBD786
:103FF00000EE13F0140EE80403E3E5CFEDFFFBD76A
:10400000E5CFFAFFE5CFF4FFE5CFF3FFE5CFF5FF0E
:10401000E5CFF7FFE5CFF6FFE5CFEAFFE5CFE9FF14
:10402000E5CFDAFF1100DACFE4FFE2CFDAFFE9CF24
:10403000E4FFEACFE4FFE652D9CFE6FFE1CFD9FFB4
:10404000E6520501025104E1ACA2FED7AC9A1BD0A6
:104050000151EA6A030FE96E050EEA22EFCFDFFF96
:10406000DF50AD6E012B1E0E015D01E3016B000EF2
:10407000E76E0219E8AE02D0023503D0E750D880CF
:10408000025501E20207E552E552E7CFD9FFE552BA
:10409000E5CFEAFFE5CFE9FFE5CFDAFF1100D9CFA1
:1040A000E6FFE1CFD9FFE6527C0EDF6ED950FB0F61
:1040B000E96EFF0EDA20EA6EEE2A000EEE22EE2204
:1040C000EE22D950FB0FE96EFF0EDA20EA6E040EE5
:1040D000E76ED890EF36010EEB36020EEB36030E8C
:1040E000EB36E706F6E1146A480E156EE80E166E1A
:1040F000010E176E14C006F015C007F016C008F0C8
:1041000017C009F0FB0EDBCF0BF0FC0EDBCF0CF081
:10411000FD0EDBCF0DF0FE0EDBCF0EF088EC25F0B0
:10412000FB0E06C0DBFFFC0E07C0DBFFFD0E08C068
:10413000DBFFFE0E09C0DBFFFB0EDBCFE6FFFC0E54
:10414000DBCFE6FFDFCFE6FFD0EC24F0E552E5520F
:10415000E552AC8AAC9E9D8A9F889F8AE552E552C3
:10416000E7CFD9FF1200D9CFE6FFE1CFD9FFACA24C
:10417000FED705010051002BEA6A030FE96E050E18
:10418000EA22FE0EDBCFEFFF022B1E0E005D01E3E5
:10419000006B010E00D0E552E7CFD9FF1200D9CF56
:1041A000E6FFE1CFD9FF020EE126000E0501E76E22
:1041B0000219E8AE02D0023503D0E750D88002558C
:1041C00023E20151EA6A030FE96E050EEA22010EAD
:1041D000EFCFDBFFACA2FED7010EDB50AD6EACA281
:1041E000FED70501012B1E0E015D01E3016B000EE0
:1041F000E76E0219E8AE02D0023503D0E750D8804E
:10420000025501E20207D1D7146E020EE15C02E210
:10421000E16AE552E16E1450E552E7CFD9FF120092
:10422000D9CFE6FFE1CFD9FFE652DF6A9D9A000EB3
:104230000501E76E2319E8AE02D0233503D0E7501D
:10424000D880235502E2010EDF6E9D8ADF5000D038
:10425000E552E552E7CFD9FF1200D9CFE6FFE1CF13
:10426000D9FFE6529D9A05012251222BEA6A240FBA
:10427000E96E050EEA22EFCFDFFF1E0E225D01E39D
:10428000226B000EE76E2319E8AE02D0233503D06F
:10429000E750D880235501E223079D8ADF5000D0E4
:0A42A000E552E552E7CFD9FF120006
:0642AA00DACFE4FFE2CFD1
:1042B000DAFFE9CFE4FFEACFE4FFF6CFE4FFF7CF80
:1042C000E4FFF5CFE4FFF3CFE4FFF4CFE4FFFACF50
:1042D000E4FF00EE00F0140EE80403E3EECFE4FF89
:1042E000FBD700EE14F0040EE80403E3EECFE4FF86
:1042F000FBD7E652F2940401E32B000EE423E52BF6
:10430000E623E72BE823E92BEA23EB2BEC23ED074D
:10431000EE5BEE3504E2ED510008000EEE5508E3C9
:10432000EF2B000EF023F123F223C80EED6FEE6B9E
:10433000DD51DE1107E005D0DEC4FAFF0401DD51D6
:10434000F96EFADFDBC4E6FFDCC4E6FF8BEC26F097
:10435000E552E552E55200EE17F0040EE80403E3DF
:10436000E5CFEDFFFBD700EE13F0140EE80403E3F6
:10437000E5CFEDFFFBD7E5CFFAFFE5CFF4FFE5CFC3
:10438000F3FFE5CFF5FFE5CFF7FFE5CFF6FFE5CF8C
:10439000EAFFE5CFE9FFE5CFDAFF1100DACFE4FF6E
:1043A000E2CFDAFFE9CFE4FFEACFE4FFF6CFE4FFA4
:1043B000F7CFE4FFF5CFE4FFF3CFE4FFF4CFE4FF62
:1043C000FACFE4FF00EE00F0140EE80403E3EECFB2
:1043D000E4FFFBD700EE14F0040EE80403E3EECF95
:1043E000E4FFFBD7E6529E90DFC4E6FFE0C4E6FFA1
:1043F0006FEC26F0E552E5520401E151E21107E0CD
:1044000005D0E2C4FAFF0401E151F96EFADFE5528A
:1044100000EE17F0040EE80403E3E5CFEDFFFBD751
:1044200000EE13F0140EE80403E3E5CFEDFFFBD735
:10443000E5CFFAFFE5CFF4FFE5CFF3FFE5CFF5FFDA
:10444000E5CFF7FFE5CFF6FFE5CFEAFFE5CFE9FFE0
:10445000E5CFDAFF1100D9CFE6FFE1CFD9FF9F0EFC
:10446000E66EA7EC26F0E552FD0EDBCFDBF4FE0E88
:10447000DBCFDCF4FB0EDBCFDDF4FC0EDBCFDEF4B8
:10448000FD0EDBCFE6FFFE0EDBCFE6FF8BEC26F06A
:10449000E552E552E552E7CFD9FF1200D9CFE6FF4A
:1044A000E1CFD9FFC50EE66EF0EC25F0E552FD0E2A
:1044B000DBCFE6FFFE0EDBCFE6FF6FEC26F0E5522A
:1044C000E5529F80FD0EDBCFDFF4FE0EDBCFE0F484
:1044D000FB0EDBCFE1F4FC0EDBCFE2F4E552E7CFDD
:1044E000D9FF1200D9CFE6FFE1CFD9FF040EE126B4
:1044F000F29AEFC4DFFF010EF0C4DBFF020EF1C43D
:10450000DBFF030EF2C4DBFFF28ADECF06F0DECF64
:1045100007F0DECF08F0DDCF09F0DD52DD52040EEA
:10452000E15C03E200D0E16AE552E16EE552E7CFDB
:10453000D9FF1200F29E0401EF6BF06BF16BF26B8E
:04454000F28E1200E5
:0C4544000401BA6BBB6B1200D9CFE6FF7C
:10455000E1CFD9FF020EE1260401BC2BD9CFE6FF43
:10456000DACFE6FF81D8E552E552000901E127D014
:104570000401BA51BB5D02E1BB6BBA6BBB51E96E82
:10458000EA6AD890E936EA36AC0EE926040EEA2249
:10459000DFCFEFFFBB51E96EEA6AD890E936EA3621
:1045A000AC0EE926040EEA22010EE926000EEA22EC
:1045B000BCC4EFFF060EBB5D01E2BB2BBC6B020E61
:1045C000E15C02E2E16AE552E16EE552E7CFD9FF34
:1045D0001200D9CFE6FFE1CFD9FF0401BB51BA5D8C
:1045E00031E2BA51E96EEA6AD890E936EA36AC0EA1
:1045F000E926040EEA22EF50E66EFD0EDBCFE9FF5E
:10460000FE0EDBCFEAFFE552E750EF6EBA51E96EDE
:10461000EA6AD890E936EA36AC0EE926040EEA22B8
:10462000010EE926000EEA22EF50E66EFB0EDBCF0C
:10463000E9FFFC0EDBCFEAFFE552E750EF6EBA2B45
:10464000010E02D0000E00D0E552E7CFD9FF1200D4
:1046500005019C5100D0120005019D5100D01200AF
:104660000401BB6BBA6B1200D9CFE6FFE1CFD9FFD3
:10467000E652DF68809881B402D0010EDF6E80B20E
:1046800002D0040EDF6E80B402D0070EDF6E80B65B
:1046900002D00A0EDF6E8088FF0EDF5C12E1809A86
:1046A00081B402D0020EDF6E80B202D0050EDF6E42
:1046B00080B402D0080EDF6E80B602D00B0EDF6E23
:1046C000808AFF0EDF5C12E1849081B402D0030E79
:1046D000DF6E80B202D0060EDF6E80B402D0090E0B
:1046E000DF6E80B602D00C0EDF6E8480FF0EDF5CC2
:1046F0000BE1829484B203D00D0EDF6E04D082B23F
:1047000002D00E0EDF6E8284FF0EDF5C06E1050133
:10471000A06905019B69000E18D00501A051DF5C5E
:1047200010E105019B51DF5C0CE0FD0EDBCFE9FFE2
:10473000FE0EDBCFEAFFDFCFEFFFDFCF9BF5010EF1
:1047400004D0DFCFA0F5000E00D0E552E552E7CF50
:04475000D9FF12007B
:0C475400FE0EE3CFE9FFFF0EE3CFEAFF0B
:10476000E9CFF3FFEACFF4FFFB0EE35003E1FC0EC9
:10477000E35009E0FB0EE30602E2FC0EE306FD0E49
:10478000E350EE6EF1D71200D9CFE6FFDACFE6FFA5
:10479000FA0EE3CFD9FFFB0EE3CFDAFFFC0EE3CF37
:1047A000E9FFFD0EE3CFEAFFDE50EF5C02E1EE66CB
:1047B000FBD7F36EFF0EE3CFDAFFE552FF0EE3CF38
:1047C000D9FFE552F3501200D9CFE6FFDACFE6FF6A
:1047D000FA0EE3CFD9FFFB0EE3CFDAFFFC0EE3CFF7
:1047E000E9FFFD0EE3CFEAFFE9CFF3FFEACFF4FFE5
:1047F000DECFEFFFEE66FCD7FF0EE3CFDAFFE55228
:10480000FF0EE3CFD9FFE5521200FB0EE3CFF6FF18
:10481000FC0EE3CFF7FFFD0EE3CFF8FFFE0EE3CF74
:10482000E9FFFF0EE3CFEAFFE9CFF3FFEACFF4FFA2
:104830000900F5CFEFFFEE66FBD71200FE0EE3CFC7
:10484000E9FFFF0EE3CFEAFFF36AF46AEE5203E0FA
:08485000F34AF42AFBD7120021
:084858004F5448455253004142
:10486000444D494E2041435449564954593A005009
:10487000415353574F52443A00434C45415220490B
:10488000535355455300434C4153533A0041434B16
:104890004E4F574C454447450050415254204E4FCF
:1048A0003A00504152542053484F5254414745001A
:1048B0005155414C49545900425245414B444F5780
:1048C0004E0049535355453A005052444E205154DE
:1048D000593A0053544154494F4E3A0049443A0022
:1048E000202020204944454F4E494353202020207A
:1048F00020414E444F4E205445524D494E414C208C
:0149000000B6
:0149010000B5
:0E4902002A0EF66E000EF76E000EF86E04011F
:104910000900F550FA6F0900F550FB6F03E1FA67E3
:1049200001D03DD00900F550F56F0900F550F66F44
:104930000900F550F76F09000900F550E96E09000C
:10494000F550EA6E090009000900F550F86F0900FA
:10495000F550F96F09000900F6CFFCF4F7CFFDF42C
:10496000F8CFFEF4F5C4F6FFF6C4F7FFF7C4F8FF7E
:104970000401F85302E1F95307E00900F550EE6E27
:10498000F807F8E2F907F9D7FCC4F6FFFDC4F7FF12
:10499000FEC4F8FF0401FA07000EFB5BBFD712004C
:1049A000D9CFE6FFDACFE6FFE1CFD9FFE2CFDAFFDA
:1049B000AC6AAB6AFD0EDBB0AC88DBA202D0AC8C7B
:1049C000AB8CDBB4AC8EDBA602D0AB8801D0AB8A5B
:1049D000DBB8AC849E98DBBAAB86DBAC02D09D8A98
:1049E00001D09D9A9E9ADBAE02D09D8801D09D9801
:1049F000FB0EDB50AF6EFB0EFC0EDBCF15F015C0CF
:104A000014F0156A1450B06EAC8AAB8E949C948EE0
:104A1000AC50100B04E0AC50800B01E1948CE552DB
:0A4A2000E5CFDAFFE7CFD9FF12005F
:064A2A00D9CFE6FFE1CF49
:104A3000D9FFE65211EC26F01DEC1DF0A2EC22F09D
:104A4000000EE66EE66ADF0EE66EB10EE66E2BEC49
:104A500022F0E552E552E552E55239EC13F05EECF6
:104A600000F009EC00F00401C80EE35D000EE4590B
:104A700005E302EC27F00401E36BE46B0401030E91
:104A8000E55D000EE65905E3A6EC22F00401E56BB6
:104A9000E66BE7EC1DF08FEC02F04BEC13F0E3D784
:0A4AA000E552E552E7CFD9FF1200FE
:064AAA00D9CFE6FFDACFD0
:104AB000E6FFE1CFD9FFE2CFDAFFE652DF6AFF0E71
:104AC000E76EFC0EDBCF14F0E75014161450A96EFD
:104AD000FB0EDB50A86EA69EA69CA684F250800B0F
:104AE00001E0010EDF6EF29E550EA76EAA0EA76EB4
:104AF000A682A6B2FED7DF50E8B0F28EE8A0F29E02
:104B0000A694E552E552E5CFDAFFE7CFD9FF1200D0
:104B1000056A046A036A026A200EE76ED8900636B8
:104B200007360836093602360336043605360B508A
:104B3000025C0C5003580D5004580E50055809E300
:104B40000B50025E0C50035A0D50045A0E50055A79
:084B5000062AE72EE4D712004B
:084B5800FFFFFFFF3131313195
:104B6000324142433344454634474849354A4B4C29
:104B7000364D4E4F37505253385455563957585971
:104B80000808080830515A2D0A0A0A0A00000000D5
:0C4B900000000000000000000000000019
:044B9C00D9CFE6FF88
:104BA000DACFE6FFE1CFD9FFE2CFDAFFFF0EE76E03
:104BB000FC0EDBCF14F0FD0EDBCF15F0E750141622
:104BC000156A1450A96EA69CA69EA680000000003F
:104BD000A85000D0E552E5CFDAFFE7CFD9FF1200A9
:104BE000D9CFE6FFDACFE6FFE1CFD9FFE2CFDAFF98
:104BF000FD0EDB507E0BCD6EFD0EDBAC02D0CD8EFC
:104C000001D0CD9ECF6ACE6A9E90DBAE02D09D8051
:104C100001D09D90CD80E552E5CFDAFFE7CFD9FFF7
:024C2000120080
:0E4C22000F0EC16E700ED3129B8C9694959E51
:104C3000959C959A95989592959495969384928241
:104C4000928492869298929A969096829482949464
:104C5000829495908C90939A8A9A93968A96939838
:044C60008A9812001C
:0C4C6400D9CFE6FFDACFE6FFE1CFD9FFA1
:104C7000E2CFDAFFE652F20E0401FF17ABAC03D02D
:104C8000FF91ABB0FF81ABB4FF85ABB2FF87AE50F5
:104C9000DF6EDF50E552E552E5CFDAFFE7CFD9FF0F
:024CA000120000
:0E4CA20008C012F008500D02F4CF07F0F3CF57
:104CB00006F009500E02F4CF09F0F3CF08F00D0210
:104CC000F3500726F4500822E86A092212500E0217
:0E4CD000F3500726F4500822E86A0922000C6F
:024CDE00D9CF2C
:104CE000E6FFDACFE6FFE1CFD9FFE2CFDAFFE65207
:104CF000E652FC0EDBCFDEFFDBCFDDFF010EDB502B
:104D0000CF6EDF50CE6EE552E552E552E5CFDAFFC9
:064D1000E7CFD9FF1200FD
:0A4D1600D9CFE6FFDACFE6FFE1CFC8
:104D2000D9FFE2CFDAFFE652E652FC0EDBCFDEFF20
:104D3000DBCFDDFF010EDB50D76EDF50D66EE552C4
:0E4D4000E552E552E5CFDAFFE7CFD9FF1200CA
:024D4E00D9CFBB
:104D5000E6FFDACFE6FFE1CFD9FFE2CFDAFFFD0EC3
:104D6000DB507F0BD56ED76AD66AF294FD0EDBAEB0
:104D700002D0F28A01D0F29AD58EE552E5CFDAFF61
:064D8000E7CFD9FF12008D
:0A4D8600FF0EE350186E480E01D036
:104D90004C0EE76EE72EFED7E76AE72EFED7182EF9
:064DA000F7D7000012002D
:0A4DA600000EF36E00EE00F0060EA2
:104DB00001D81200EA6002D0EE6AFCD7F350E96035
:064DC0001200EE6AFCD7B0
:0A4DC60010EE80F020EE80F0F86A95
:104DD000019C81EC24F01CEC27F015EC25F0FBD7AE
:024DE0001200BF
:0E4DE200056A080EE76ED890093605360E50A9
:0E4DF000055C02E3056E092AE72EF7D71200D4
:024DFE000501AD
:104E0000A26B12000501A20503E1A26B8D9403D0F1
:084E1000010EA26F8D84120057
:084E1800202020202020202092
:094E200020202020202020200089
:064E2A00A6B2FED7120043
:054E3000434F4D0A0094
:024E35008403F4
:024E3800120066
:064E3A0000000000000072
:104E40000000000000000000000000000000000062
:104E50000000000000000000000000000000FF0053
:104E60000000000000000000000000000000000042
:104E70000000000000000000000000000000000032
:104E80000000000000000000000000000000000022
:104E90000000000000000000000000000000000012
:104EA0000000FF0000000000000000000000000003
:104EB00000000000000000000000000000000000F2
:044EC000000000FFEF
:0C4EC400000000000000000000000000E2
:104ED00000000000000000000000000000000000D2
:104EE00000000000000000000000000000000000C2
:104EF00000000000000000000000000000000000B2
:064F0000000000000000AB
:0A4F060000000000000000000000A1
:104F10000000000000000000000000000000000091
:104F20000000000000000000000000000000000081
:104F30000000000000000000000000000000000071
:104F40000000000000000000000000000000000061
:104F50000000000000000000000000000000000051
:104F60000000000000000000000000000000000041
:104F70000000000000000000000000000000000031
:104F80000000000000000000000000000000000021
:104F90000000000000000000000000000000000011
:104FA0000000000000000000000000000000000001
:104FB00000000000000000000000000000000000F1
:104FC00000000000000000000000000000000000E1
:104FD00000000000000000000000000000000000D1
:104FE00000000000000000000000000000000000C1
:104FF00000000000000000000000000000000000B1
:055000000000000000AB
:0B5005000000000000000000000000A0
:105010000000000000000000000000000000000090
:105020000000000000000000000000000000000080
:105030000000000000000000000000000000000070
:105040000000000000000000000000000000000060
:105050000000000000000000000000000000000050
:105060000000000000000000000000000000000040
:065070000000000000003A
:0A5076000000000000000000000030
:105080000000000000000000000000000000000020
:105090000000000000000000000000000000000010
:1050A0000000000000000000000000000000000000
:1050B00000000000000000000000000000000000F0
:0650C000000000000000EA
:0A50C60000000000000000000000E0
:1050D00000000000000000000000000000000000D0
:0850E0000000000000000000C8
:0850E8000000000000000000C0
:1050F00000000000000000000000C80000000000E8
:025100000000AD
:095102004944454F4E4943530056
:03510B00FF0000A2
:02510E00FFFFA1
:10511000E048DC48D348C948C248B848B048A2482B
:0E51200099488D48864879486F485F4858483E
:020000040030CA
:0100010008F6
:010002001BE2
:0100030012EA
:010005008179
:010006008178
:010008000FE8
:01000900C036
:01000A000FE6
:01000B00E014
:01000C000FE4
:01000D0040B2
:00000001FF
